{
  "_format": "hh-sol-artifact-1",
  "contractName": "Futoshiki",
  "sourceName": "contracts/Futoshiki/Futoshiki.sol",
  "abi": [
    {
      "inputs": [
        {
          "internalType": "address",
          "name": "_verifierAddr",
          "type": "address"
        }
      ],
      "stateMutability": "nonpayable",
      "type": "constructor"
    },
    {
      "anonymous": false,
      "inputs": [
        {
          "indexed": true,
          "internalType": "address",
          "name": "owner",
          "type": "address"
        },
        {
          "indexed": true,
          "internalType": "address",
          "name": "approved",
          "type": "address"
        },
        {
          "indexed": true,
          "internalType": "uint256",
          "name": "tokenId",
          "type": "uint256"
        }
      ],
      "name": "Approval",
      "type": "event"
    },
    {
      "anonymous": false,
      "inputs": [
        {
          "indexed": true,
          "internalType": "address",
          "name": "owner",
          "type": "address"
        },
        {
          "indexed": true,
          "internalType": "address",
          "name": "operator",
          "type": "address"
        },
        {
          "indexed": false,
          "internalType": "bool",
          "name": "approved",
          "type": "bool"
        }
      ],
      "name": "ApprovalForAll",
      "type": "event"
    },
    {
      "anonymous": false,
      "inputs": [
        {
          "indexed": true,
          "internalType": "address",
          "name": "from",
          "type": "address"
        },
        {
          "indexed": true,
          "internalType": "address",
          "name": "to",
          "type": "address"
        },
        {
          "indexed": true,
          "internalType": "uint256",
          "name": "tokenId",
          "type": "uint256"
        }
      ],
      "name": "Transfer",
      "type": "event"
    },
    {
      "inputs": [
        {
          "internalType": "address",
          "name": "to",
          "type": "address"
        },
        {
          "internalType": "uint256",
          "name": "tokenId",
          "type": "uint256"
        }
      ],
      "name": "approve",
      "outputs": [],
      "stateMutability": "nonpayable",
      "type": "function"
    },
    {
      "inputs": [
        {
          "internalType": "address",
          "name": "owner",
          "type": "address"
        }
      ],
      "name": "balanceOf",
      "outputs": [
        {
          "internalType": "uint256",
          "name": "",
          "type": "uint256"
        }
      ],
      "stateMutability": "view",
      "type": "function"
    },
    {
      "inputs": [
        {
          "internalType": "string",
          "name": "stringTime",
          "type": "string"
        }
      ],
      "name": "generateFutoshikiBoard",
      "outputs": [
        {
          "internalType": "uint8[4][4]",
          "name": "",
          "type": "uint8[4][4]"
        },
        {
          "internalType": "uint8[24]",
          "name": "",
          "type": "uint8[24]"
        }
      ],
      "stateMutability": "view",
      "type": "function"
    },
    {
      "inputs": [
        {
          "internalType": "uint256",
          "name": "tokenId",
          "type": "uint256"
        }
      ],
      "name": "getApproved",
      "outputs": [
        {
          "internalType": "address",
          "name": "",
          "type": "address"
        }
      ],
      "stateMutability": "view",
      "type": "function"
    },
    {
      "inputs": [
        {
          "internalType": "address",
          "name": "owner",
          "type": "address"
        },
        {
          "internalType": "address",
          "name": "operator",
          "type": "address"
        }
      ],
      "name": "isApprovedForAll",
      "outputs": [
        {
          "internalType": "bool",
          "name": "",
          "type": "bool"
        }
      ],
      "stateMutability": "view",
      "type": "function"
    },
    {
      "inputs": [],
      "name": "name",
      "outputs": [
        {
          "internalType": "string",
          "name": "",
          "type": "string"
        }
      ],
      "stateMutability": "view",
      "type": "function"
    },
    {
      "inputs": [
        {
          "internalType": "uint256",
          "name": "tokenId",
          "type": "uint256"
        }
      ],
      "name": "ownerOf",
      "outputs": [
        {
          "internalType": "address",
          "name": "",
          "type": "address"
        }
      ],
      "stateMutability": "view",
      "type": "function"
    },
    {
      "inputs": [
        {
          "internalType": "address",
          "name": "from",
          "type": "address"
        },
        {
          "internalType": "address",
          "name": "to",
          "type": "address"
        },
        {
          "internalType": "uint256",
          "name": "tokenId",
          "type": "uint256"
        }
      ],
      "name": "safeTransferFrom",
      "outputs": [],
      "stateMutability": "nonpayable",
      "type": "function"
    },
    {
      "inputs": [
        {
          "internalType": "address",
          "name": "from",
          "type": "address"
        },
        {
          "internalType": "address",
          "name": "to",
          "type": "address"
        },
        {
          "internalType": "uint256",
          "name": "tokenId",
          "type": "uint256"
        },
        {
          "internalType": "bytes",
          "name": "_data",
          "type": "bytes"
        }
      ],
      "name": "safeTransferFrom",
      "outputs": [],
      "stateMutability": "nonpayable",
      "type": "function"
    },
    {
      "inputs": [
        {
          "internalType": "address",
          "name": "operator",
          "type": "address"
        },
        {
          "internalType": "bool",
          "name": "approved",
          "type": "bool"
        }
      ],
      "name": "setApprovalForAll",
      "outputs": [],
      "stateMutability": "nonpayable",
      "type": "function"
    },
    {
      "inputs": [
        {
          "internalType": "bytes4",
          "name": "interfaceId",
          "type": "bytes4"
        }
      ],
      "name": "supportsInterface",
      "outputs": [
        {
          "internalType": "bool",
          "name": "",
          "type": "bool"
        }
      ],
      "stateMutability": "view",
      "type": "function"
    },
    {
      "inputs": [],
      "name": "symbol",
      "outputs": [
        {
          "internalType": "string",
          "name": "",
          "type": "string"
        }
      ],
      "stateMutability": "view",
      "type": "function"
    },
    {
      "inputs": [
        {
          "internalType": "uint256",
          "name": "tokenId",
          "type": "uint256"
        }
      ],
      "name": "tokenURI",
      "outputs": [
        {
          "internalType": "string",
          "name": "",
          "type": "string"
        }
      ],
      "stateMutability": "view",
      "type": "function"
    },
    {
      "inputs": [
        {
          "internalType": "address",
          "name": "from",
          "type": "address"
        },
        {
          "internalType": "address",
          "name": "to",
          "type": "address"
        },
        {
          "internalType": "uint256",
          "name": "tokenId",
          "type": "uint256"
        }
      ],
      "name": "transferFrom",
      "outputs": [],
      "stateMutability": "nonpayable",
      "type": "function"
    },
    {
      "inputs": [],
      "name": "verifierAddr",
      "outputs": [
        {
          "internalType": "address",
          "name": "",
          "type": "address"
        }
      ],
      "stateMutability": "view",
      "type": "function"
    },
    {
      "inputs": [
        {
          "internalType": "uint256[2]",
          "name": "a",
          "type": "uint256[2]"
        },
        {
          "internalType": "uint256[2][2]",
          "name": "b",
          "type": "uint256[2][2]"
        },
        {
          "internalType": "uint256[2]",
          "name": "c",
          "type": "uint256[2]"
        },
        {
          "internalType": "uint256[40]",
          "name": "input",
          "type": "uint256[40]"
        }
      ],
      "name": "verifyFutoshiki",
      "outputs": [
        {
          "internalType": "bool",
          "name": "",
          "type": "bool"
        }
      ],
      "stateMutability": "view",
      "type": "function"
    },
    {
      "inputs": [
        {
          "internalType": "uint256[2]",
          "name": "a",
          "type": "uint256[2]"
        },
        {
          "internalType": "uint256[2][2]",
          "name": "b",
          "type": "uint256[2][2]"
        },
        {
          "internalType": "uint256[2]",
          "name": "c",
          "type": "uint256[2]"
        },
        {
          "internalType": "uint256[40]",
          "name": "input",
          "type": "uint256[40]"
        }
      ],
      "name": "verifyFutoshikiAndMintNft",
      "outputs": [],
      "stateMutability": "nonpayable",
      "type": "function"
    },
    {
      "inputs": [
        {
          "internalType": "uint256[2]",
          "name": "a",
          "type": "uint256[2]"
        },
        {
          "internalType": "uint256[2][2]",
          "name": "b",
          "type": "uint256[2][2]"
        },
        {
          "internalType": "uint256[2]",
          "name": "c",
          "type": "uint256[2]"
        },
        {
          "internalType": "uint256[40]",
          "name": "input",
          "type": "uint256[40]"
        }
      ],
      "name": "verifyProof",
      "outputs": [
        {
          "internalType": "bool",
          "name": "",
          "type": "bool"
        }
      ],
      "stateMutability": "view",
      "type": "function"
    }
  ],
  "bytecode": "0x6004610160818152600361018081905260026101a081905260016101c081905260e09384526101e0818152610200839052610220869052610240849052610100526102608281526102808290526102a08490526102c0869052610120526102e08381526103009590955261032081905260006103408190526101409590955260809384526103e08581526104008690526104208690526104408690526103609081526104608681526104808790526104a08790526104c0879052610380526104e08681526105008790526105208590526105408790526103a0526105608681526105808790526105a08790526105c08790526103c05260a0526106609182526106808590526106a08590526106c08590526105e09182526106e085815261070086905261072091909152610740859052610600526107608481526107808590526107a08590526107c0859052610620526108606040526107e0848152610800859052610820859052610840949094526106409390935260c0929092526200018a91600891906200059e565b506040518060600160405280604051806103000160405280600060ff168152602001600060ff168152602001600060ff168152602001600060ff168152602001600060ff168152602001600060ff168152602001600060ff168152602001600060ff168152602001600060ff168152602001600160ff168152602001600060ff168152602001600160ff168152602001600060ff168152602001600060ff168152602001600060ff168152602001600060ff168152602001600160ff168152602001600060ff168152602001600060ff168152602001600060ff168152602001600160ff168152602001600060ff168152602001600060ff168152602001600060ff168152508152602001604051806103000160405280600060ff168152602001600060ff168152602001600060ff168152602001600060ff168152602001600060ff168152602001600060ff168152602001600060ff168152602001600060ff168152602001600060ff168152602001600160ff168152602001600060ff168152602001600160ff168152602001600060ff168152602001600060ff168152602001600060ff168152602001600060ff168152602001600160ff168152602001600060ff168152602001600060ff168152602001600060ff168152602001600160ff168152602001600060ff168152602001600060ff168152602001600060ff168152508152602001604051806103000160405280600060ff168152602001600060ff168152602001600060ff168152602001600060ff168152602001600060ff168152602001600060ff168152602001600060ff168152602001600060ff168152602001600060ff168152602001600060ff168152602001600160ff168152602001600060ff168152602001600060ff168152602001600060ff168152602001600060ff168152602001600060ff168152602001600060ff168152602001600060ff168152602001600060ff168152602001600260ff168152602001600160ff168152602001600060ff168152602001600060ff168152602001600260ff168152508152506014906003620004a3929190620005f0565b5060405180610260016040528061023e815260200162002d3d61023e91398051620004d7916018916020909101906200063d565b50348015620004e557600080fd5b5060405162002f7b38038062002f7b8339810160408190526200050891620007f2565b604080518082018252600c81526b119d5d1bdcda1a5ada53919560a21b60208083019182528351808501909452600a845269466b697a6b47616d657360b01b9084015281519192916200055e916000916200063d565b508051620005749060019060208401906200063d565b5050600780546001600160a01b0319166001600160a01b039390931692909217909155506200085f565b600c83019183908215620005de579160200282015b82811115620005de578251620005cd9083906004620006c8565b5091602001919060040190620005b3565b50620005ec92915062000707565b5090565b82600381019282156200062f579160200282015b828111156200062f5782516200061e908390601862000731565b509160200191906001019062000604565b50620005ec929150620007c6565b8280546200064b9062000822565b90600052602060002090601f0160209004810192826200066f5760008555620006ba565b82601f106200068a57805160ff1916838001178555620006ba565b82800160010185558215620006ba579182015b82811115620006ba5782518255916020019190600101906200069d565b50620005ec929150620007dc565b82600481019282156200062f579160200282015b828111156200062f578251620006f6908390600462000731565b5091602001919060010190620006dc565b80821115620005ec5760008082556001820181905560028201819055600382015560040162000707565b600183019183908215620006ba5791602002820160005b838211156200078857835183826101000a81548160ff021916908360ff160217905550926020019260010160208160000104928301926001030262000748565b8015620007b75782816101000a81549060ff021916905560010160208160000104928301926001030262000788565b5050620005ec929150620007dc565b80821115620005ec5760008155600101620007c6565b80821115620005ec5760008155600101620007c6565b60006020828403121562000804578081fd5b81516001600160a01b03811681146200081b578182fd5b9392505050565b600181811c908216806200083757607f821691505b602082108114156200085957634e487b7160e01b600052602260045260246000fd5b50919050565b6124ce806200086f6000396000f3fe608060405234801561001057600080fd5b50600436106101165760003560e01c8063663ea2e2116100a25780639984998f116100715780639984998f14610254578063a22cb46514610267578063b88d4fde1461027a578063c87b56dd1461028d578063e985e9c5146102a057600080fd5b8063663ea2e2146101f757806370a082311461020a57806375305d071461022b57806395d89b411461024c57600080fd5b806319da330f116100e957806319da330f1461019857806323b872dd146101ab57806342842e0e146101be5780634715fba4146101d15780636352211e146101e457600080fd5b806301ffc9a71461011b57806306fdde0314610143578063081812fc14610158578063095ea7b314610183575b600080fd5b61012e610129366004611e46565b6102dc565b60405190151581526020015b60405180910390f35b61014b61032e565b60405161013a91906121f4565b61016b610166366004611ec4565b6103c0565b6040516001600160a01b03909116815260200161013a565b610196610191366004611d17565b61044d565b005b61012e6101a6366004611d40565b610563565b6101966101b9366004611c2d565b6105f5565b6101966101cc366004611c2d565b610626565b6101966101df366004611d40565b610641565b61016b6101f2366004611ec4565b6106ec565b60075461016b906001600160a01b031681565b61021d610218366004611be1565b610763565b60405190815260200161013a565b61023e610239366004611e7e565b6107ea565b60405161013a9291906120de565b61014b61080c565b61012e610262366004611d40565b61081b565b610196610275366004611ce1565b6108c5565b610196610288366004611c68565b6108d4565b61014b61029b366004611ec4565b610906565b61012e6102ae366004611bfb565b6001600160a01b03918216600090815260056020908152604080832093909416825291909152205460ff1690565b60006001600160e01b031982166380ac58cd60e01b148061030d57506001600160e01b03198216635b5e139f60e01b145b8061032857506301ffc9a760e01b6001600160e01b03198316145b92915050565b60606000805461033d90612385565b80601f016020809104026020016040519081016040528092919081815260200182805461036990612385565b80156103b65780601f1061038b576101008083540402835291602001916103b6565b820191906000526020600020905b81548152906001019060200180831161039957829003601f168201915b5050505050905090565b60006103cb82610a75565b6104315760405162461bcd60e51b815260206004820152602c60248201527f4552433732313a20617070726f76656420717565727920666f72206e6f6e657860448201526b34b9ba32b73a103a37b5b2b760a11b60648201526084015b60405180910390fd5b506000908152600460205260409020546001600160a01b031690565b6000610458826106ec565b9050806001600160a01b0316836001600160a01b031614156104c65760405162461bcd60e51b815260206004820152602160248201527f4552433732313a20617070726f76616c20746f2063757272656e74206f776e656044820152603960f91b6064820152608401610428565b336001600160a01b03821614806104e257506104e281336102ae565b6105545760405162461bcd60e51b815260206004820152603860248201527f4552433732313a20617070726f76652063616c6c6572206973206e6f74206f7760448201527f6e6572206e6f7220617070726f76656420666f7220616c6c00000000000000006064820152608401610428565b61055e8383610a92565b505050565b6007546040516319da330f60e01b81526000916001600160a01b0316906319da330f9061059a908890889088908890600401612170565b60206040518083038186803b1580156105b257600080fd5b505afa1580156105c6573d6000803e3d6000fd5b505050506040513d601f19601f820116820180604052508101906105ea9190611e2a565b90505b949350505050565b6105ff3382610b00565b61061b5760405162461bcd60e51b815260040161042890612259565b61055e838383610be6565b61055e838383604051806020016040528060008152506108d4565b61064a81610d82565b6106925760405162461bcd60e51b8152602060048201526019602482015278151a1a5cc8189bd85c9908191bd95cc81b9bdd08195e1a5cdd603a1b6044820152606401610428565b61069e84848484610563565b6106de5760405162461bcd60e51b815260206004820152601160248201527046696c65642070726f6f6620636865636b60781b6044820152606401610428565b6106e6610f2d565b50505050565b6000818152600260205260408120546001600160a01b0316806103285760405162461bcd60e51b815260206004820152602960248201527f4552433732313a206f776e657220717565727920666f72206e6f6e657869737460448201526832b73a103a37b5b2b760b91b6064820152608401610428565b60006001600160a01b0382166107ce5760405162461bcd60e51b815260206004820152602a60248201527f4552433732313a2062616c616e636520717565727920666f7220746865207a65604482015269726f206164647265737360b01b6064820152608401610428565b506001600160a01b031660009081526003602052604090205490565b6107f26119f7565b6107fa611a24565b6108038361103e565b91509150915091565b60606001805461033d90612385565b600061082682610d82565b61086e5760405162461bcd60e51b8152602060048201526019602482015278151a1a5cc8189bd85c9908191bd95cc81b9bdd08195e1a5cdd603a1b6044820152606401610428565b61087a85858585610563565b6108ba5760405162461bcd60e51b815260206004820152601160248201527046696c65642070726f6f6620636865636b60781b6044820152606401610428565b506001949350505050565b6108d03383836111a9565b5050565b6108de3383610b00565b6108fa5760405162461bcd60e51b815260040161042890612259565b6106e684848484611278565b606061091182610a75565b6109775760405162461bcd60e51b815260206004820152603160248201527f45524337323155524953746f726167653a2055524920717565727920666f72206044820152703737b732bc34b9ba32b73a103a37b5b2b760791b6064820152608401610428565b6000828152600660205260408120805461099090612385565b80601f01602080910402602001604051908101604052809291908181526020018280546109bc90612385565b8015610a095780601f106109de57610100808354040283529160200191610a09565b820191906000526020600020905b8154815290600101906020018083116109ec57829003601f168201915b505050505090506000610a2760408051602081019091526000815290565b9050805160001415610a3a575092915050565b815115610a6c578082604051602001610a54929190611f2b565b60405160208183030381529060405292505050919050565b6105ed846112ab565b6000908152600260205260409020546001600160a01b0316151590565b600081815260046020526040902080546001600160a01b0319166001600160a01b0384169081179091558190610ac7826106ec565b6001600160a01b03167f8c5be1e5ebec7d5bd14f71427d1e84f3dd0314c0f7b2291e5b200ac8c7c3b92560405160405180910390a45050565b6000610b0b82610a75565b610b6c5760405162461bcd60e51b815260206004820152602c60248201527f4552433732313a206f70657261746f7220717565727920666f72206e6f6e657860448201526b34b9ba32b73a103a37b5b2b760a11b6064820152608401610428565b6000610b77836106ec565b9050806001600160a01b0316846001600160a01b03161480610bb25750836001600160a01b0316610ba7846103c0565b6001600160a01b0316145b806105ed57506001600160a01b0380821660009081526005602090815260408083209388168352929052205460ff166105ed565b826001600160a01b0316610bf9826106ec565b6001600160a01b031614610c5d5760405162461bcd60e51b815260206004820152602560248201527f4552433732313a207472616e736665722066726f6d20696e636f72726563742060448201526437bbb732b960d91b6064820152608401610428565b6001600160a01b038216610cbf5760405162461bcd60e51b8152602060048201526024808201527f4552433732313a207472616e7366657220746f20746865207a65726f206164646044820152637265737360e01b6064820152608401610428565b610cca600082610a92565b6001600160a01b0383166000908152600360205260408120805460019290610cf3908490612342565b90915550506001600160a01b0382166000908152600360205260408120805460019290610d219084906122f7565b909155505060008181526002602052604080822080546001600160a01b0319166001600160a01b0386811691821790925591518493918716917fddf252ad1be2c89b69c2b068fc378daa952ba7f163c4a11628f55a4df523b3ef91a4505050565b60006001815b6003811015610f26576001915060005b60088260038110610db957634e487b7160e01b600052603260045260246000fd5b50506004811015610ef95760005b60088360038110610de857634e487b7160e01b600052603260045260246000fd5b600402018260048110610e0b57634e487b7160e01b600052603260045260246000fd5b50506004811015610ee85760088360038110610e3757634e487b7160e01b600052603260045260246000fd5b600402018260048110610e5a57634e487b7160e01b600052603260045260246000fd5b018160048110610e7a57634e487b7160e01b600052603260045260246000fd5b602081049091015460ff601f9092166101000a9004168682610e9d856004612323565b610ea791906122f7565b60288110610ec557634e487b7160e01b600052603260045260246000fd5b602002015114610ed85760009350610ee8565b610ee1816123c0565b9050610dc7565b50610ef2816123c0565b9050610d98565b508115610f1657610f0a8482611383565b15610f16575092915050565b610f1f816123c0565b9050610d88565b5092915050565b6000610f3860175490565b90506000610ff6610fd260188054610f4f90612385565b80601f0160208091040260200160405190810160405280929190818152602001828054610f7b90612385565b8015610fc85780601f10610f9d57610100808354040283529160200191610fc8565b820191906000526020600020905b815481529060010190602001808311610fab57829003601f168201915b5050505050611466565b604051602001610fe29190611f5a565b604051602081830303815290604052611466565b905060008160405160200161100b9190612016565b604051602081830303815290604052905061102633846115c8565b61103083826115e2565b61055e601780546001019055565b6110466119f7565b61104e611a24565b6000600344423387604051602001611069949392919061205b565b6040516020818303038152906040528051906020012060001c61108c91906123db565b9050600881600381106110af57634e487b7160e01b600052603260045260246000fd5b60040201601482600381106110d457634e487b7160e01b600052603260045260246000fd5b60408051608081019091529101908260046000835b8282101561114c576040805160808101918290529085840190600490826000855b825461010083900a900460ff1681526020600192830181810494850194909303909202910180841161110a5790505050505050815260200190600101906110e9565b50506040805161030081019182905293955084925060189150826000855b825461010083900a900460ff1681526020600192830181810494850194909303909202910180841161116a579050505050505090509250925050915091565b816001600160a01b0316836001600160a01b0316141561120b5760405162461bcd60e51b815260206004820152601960248201527f4552433732313a20617070726f766520746f2063616c6c6572000000000000006044820152606401610428565b6001600160a01b03838116600081815260056020908152604080832094871680845294825291829020805460ff191686151590811790915591519182527f17307eab39ab6107e8899845ad3d59bd9653f200f220920489ca2b5937696c31910160405180910390a3505050565b611283848484610be6565b61128f8484848461166d565b6106e65760405162461bcd60e51b815260040161042890612207565b60606112b682610a75565b61131a5760405162461bcd60e51b815260206004820152602f60248201527f4552433732314d657461646174613a2055524920717565727920666f72206e6f60448201526e3732bc34b9ba32b73a103a37b5b2b760891b6064820152608401610428565b600061133160408051602081019091526000815290565b90506000815111611351576040518060200160405280600081525061137c565b8061135b84611777565b60405160200161136c929190611f2b565b6040516020818303038152906040525b9392505050565b600060016010825b601485600381106113ac57634e487b7160e01b600052603260045260246000fd5b5050601881101561145c57601485600381106113d857634e487b7160e01b600052603260045260246000fd5b0181601881106113f857634e487b7160e01b600052603260045260246000fd5b602081049091015460ff601f9092166101000a90041686836028811061142e57634e487b7160e01b600052603260045260246000fd5b602002015114611441576000925061145c565b61144a826123c0565b9150611455816123c0565b905061138b565b5090949350505050565b606081516000141561148657505060408051602081019091526000815290565b600060405180606001604052806040815260200161245960409139905060006003845160026114b591906122f7565b6114bf919061230f565b6114ca906004612323565b67ffffffffffffffff8111156114f057634e487b7160e01b600052604160045260246000fd5b6040519080825280601f01601f19166020018201604052801561151a576020820181803683370190505b509050600182016020820185865187015b80821015611586576003820191508151603f8160121c168501518453600184019350603f81600c1c168501518453600184019350603f8160061c168501518453600184019350603f811685015184535060018301925061152b565b50506003865106600181146115a257600281146115b5576115bd565b603d6001830353603d60028303536115bd565b603d60018303535b509195945050505050565b6108d0828260405180602001604052806000815250611891565b6115eb82610a75565b61164e5760405162461bcd60e51b815260206004820152602e60248201527f45524337323155524953746f726167653a2055524920736574206f66206e6f6e60448201526d32bc34b9ba32b73a103a37b5b2b760911b6064820152608401610428565b6000828152600660209081526040909120825161055e92840190611a43565b60006001600160a01b0384163b1561176f57604051630a85bd0160e11b81526001600160a01b0385169063150b7a02906116b19033908990889088906004016120a1565b602060405180830381600087803b1580156116cb57600080fd5b505af19250505080156116fb575060408051601f3d908101601f191682019092526116f891810190611e62565b60015b611755573d808015611729576040519150601f19603f3d011682016040523d82523d6000602084013e61172e565b606091505b50805161174d5760405162461bcd60e51b815260040161042890612207565b805181602001fd5b6001600160e01b031916630a85bd0160e11b1490506105ed565b5060016105ed565b60608161179b5750506040805180820190915260018152600360fc1b602082015290565b8160005b81156117c557806117af816123c0565b91506117be9050600a8361230f565b915061179f565b60008167ffffffffffffffff8111156117ee57634e487b7160e01b600052604160045260246000fd5b6040519080825280601f01601f191660200182016040528015611818576020820181803683370190505b5090505b84156105ed5761182d600183612342565b915061183a600a866123db565b6118459060306122f7565b60f81b81838151811061186857634e487b7160e01b600052603260045260246000fd5b60200101906001600160f81b031916908160001a90535061188a600a8661230f565b945061181c565b61189b83836118c4565b6118a8600084848461166d565b61055e5760405162461bcd60e51b815260040161042890612207565b6001600160a01b03821661191a5760405162461bcd60e51b815260206004820181905260248201527f4552433732313a206d696e7420746f20746865207a65726f20616464726573736044820152606401610428565b61192381610a75565b156119705760405162461bcd60e51b815260206004820152601c60248201527f4552433732313a20746f6b656e20616c7265616479206d696e746564000000006044820152606401610428565b6001600160a01b03821660009081526003602052604081208054600192906119999084906122f7565b909155505060008181526002602052604080822080546001600160a01b0319166001600160a01b03861690811790915590518392907fddf252ad1be2c89b69c2b068fc378daa952ba7f163c4a11628f55a4df523b3ef908290a45050565b60405180608001604052806004905b611a0e611ac7565b815260200190600190039081611a065790505090565b6040518061030001604052806018906020820280368337509192915050565b828054611a4f90612385565b90600052602060002090601f016020900481019282611a715760008555611ab7565b82601f10611a8a57805160ff1916838001178555611ab7565b82800160010185558215611ab7579182015b82811115611ab7578251825591602001919060010190611a9c565b50611ac3929150611ae5565b5090565b60405180608001604052806004906020820280368337509192915050565b5b80821115611ac35760008155600101611ae6565b600067ffffffffffffffff80841115611b1557611b1561241b565b604051601f8501601f19908116603f01168101908282118183101715611b3d57611b3d61241b565b81604052809350858152868686011115611b5657600080fd5b858560208301376000602087830101525050509392505050565b80356001600160a01b0381168114611b8757600080fd5b919050565b600082601f830112611b9c578081fd5b611ba46122aa565b808385604086011115611bb5578384fd5b835b6002811015611bd6578135845260209384019390910190600101611bb7565b509095945050505050565b600060208284031215611bf2578081fd5b61137c82611b70565b60008060408385031215611c0d578081fd5b611c1683611b70565b9150611c2460208401611b70565b90509250929050565b600080600060608486031215611c41578081fd5b611c4a84611b70565b9250611c5860208501611b70565b9150604084013590509250925092565b60008060008060808587031215611c7d578081fd5b611c8685611b70565b9350611c9460208601611b70565b925060408501359150606085013567ffffffffffffffff811115611cb6578182fd5b8501601f81018713611cc6578182fd5b611cd587823560208401611afa565b91505092959194509250565b60008060408385031215611cf3578182fd5b611cfc83611b70565b91506020830135611d0c81612431565b809150509250929050565b60008060408385031215611d29578182fd5b611d3283611b70565b946020939093013593505050565b600080600080610600808688031215611d57578283fd5b611d618787611b8c565b9450604087605f880112611d73578384fd5b611d7b6122aa565b8082890160c08a018b811115611d8f578788fd5b875b6002811015611db857611da48d84611b8c565b855260209094019391850191600101611d91565b50829850611dc68c82611b8c565b975050505050508661011f870112611ddc578182fd5b611de46122d3565b80610100880189848a011115611df8578485fd5b8493505b6028841015611e1c57803583526001939093019260209283019201611dfc565b509598949750929550505050565b600060208284031215611e3b578081fd5b815161137c81612431565b600060208284031215611e57578081fd5b813561137c81612442565b600060208284031215611e73578081fd5b815161137c81612442565b600060208284031215611e8f578081fd5b813567ffffffffffffffff811115611ea5578182fd5b8201601f81018413611eb5578182fd5b6105ed84823560208401611afa565b600060208284031215611ed5578081fd5b5035919050565b8060005b60028110156106e6578151845260209384019390910190600101611ee0565b60008151808452611f17816020860160208601612359565b601f01601f19169290920160200192915050565b60008351611f3d818460208801612359565b835190830190611f51818360208801612359565b01949350505050565b693d913730b6b2911d101160b11b8152684675746f7368696b6960b81b600a8201527f222c20226465736372697074696f6e223a2022536f6c766564204675746f736860138201527f696b69206f6e207a6b47616d65732e222c2022696d616765223a2022646174616033820152750e9a5b5859d94bdcdd99cade1b5b0ed8985cd94d8d0b60521b60538201528151600090611ffd816069850160208701612359565b61227d60f01b6069939091019283015250606b01919050565b7f646174613a6170706c69636174696f6e2f6a736f6e3b6261736536342c00000081526000825161204e81601d850160208701612359565b91909101601d0192915050565b8481528360208201526bffffffffffffffffffffffff198360601b16604082015260008251612091816054850160208701612359565b9190910160540195945050505050565b6001600160a01b03858116825284166020820152604081018390526080606082018190526000906120d490830184611eff565b9695505050505050565b6105008101818460005b60048082106120f75750612138565b82518460005b8381101561211e57825160ff168252602092830192909101906001016120fd565b5050506080939093019250602091909101906001016120e8565b50505061020082018360005b601881101561216657815160ff16835260209283019290910190600101612144565b5050509392505050565b610600810161217f8287611edc565b60408083018660005b60028110156121af5761219c838351611edc565b9183019160209190910190600101612188565b505050506121c060c0830185611edc565b61010082018360005b60288110156121e85781518352602092830192909101906001016121c9565b50505095945050505050565b60208152600061137c6020830184611eff565b60208082526032908201527f4552433732313a207472616e7366657220746f206e6f6e20455243373231526560408201527131b2b4bb32b91034b6b83632b6b2b73a32b960711b606082015260800190565b60208082526031908201527f4552433732313a207472616e736665722063616c6c6572206973206e6f74206f6040820152701ddb995c881b9bdc88185c1c1c9bdd9959607a1b606082015260800190565b6040805190810167ffffffffffffffff811182821017156122cd576122cd61241b565b60405290565b604051610500810167ffffffffffffffff811182821017156122cd576122cd61241b565b6000821982111561230a5761230a6123ef565b500190565b60008261231e5761231e612405565b500490565b600081600019048311821515161561233d5761233d6123ef565b500290565b600082821015612354576123546123ef565b500390565b60005b8381101561237457818101518382015260200161235c565b838111156106e65750506000910152565b600181811c9082168061239957607f821691505b602082108114156123ba57634e487b7160e01b600052602260045260246000fd5b50919050565b60006000198214156123d4576123d46123ef565b5060010190565b6000826123ea576123ea612405565b500690565b634e487b7160e01b600052601160045260246000fd5b634e487b7160e01b600052601260045260246000fd5b634e487b7160e01b600052604160045260246000fd5b801515811461243f57600080fd5b50565b6001600160e01b03198116811461243f57600080fdfe4142434445464748494a4b4c4d4e4f505152535455565758595a6162636465666768696a6b6c6d6e6f707172737475767778797a303132333435363738392b2fa2646970667358221220953eb36e15db56d9e26e06f2eb5d5e61c7029d3246029819ed3f7133d0d6cd3464736f6c634300080400333c7376672077696474683d2233353022206865696768743d22333530222076696577426f783d2230203020333530203335302220786d6c6e733d22687474703a2f2f7777772e77332e6f72672f323030302f737667223e3c646566733e3c6c696e6561724772616469656e742069643d2261222078313d2230222079313d2230222078323d22323730222079323d2232373022206772616469656e74556e6974733d227573657253706163654f6e557365223e3c73746f702073746f702d636f6c6f723d2223393333336561222f3e3c73746f70206f66667365743d2231222073746f702d636f6c6f723d2223346634366535222073746f702d6f7061636974793d222e3939222f3e3c2f6c696e6561724772616469656e743e3c2f646566733e3c726563742077696474683d223130302522206865696768743d2231303025222066696c6c3d2275726c28236129222f3e3c7465787420783d223830252220793d2239352522207374796c653d2266696c6c3a233066313732613b666f6e742d66616d696c793a73657269663b666f6e742d73697a653a31357078223e7a6b47616d65733c2f746578743e3c7465787420783d223530252220793d223530252220646f6d696e616e742d626173656c696e653d226d6964646c652220746578742d616e63686f723d226d6964646c6522207374796c653d2266696c6c3a236532653866303b666f6e742d66616d696c793a73657269663b666f6e742d73697a653a33307078223e4675746f7368696b693c2f746578743e3c2f7376673e",
  "linkReferences": {},
  "deployedLinkReferences": {}
}