{
  "_format": "hh-sol-artifact-1",
  "contractName": "Sudoku",
  "sourceName": "contracts/Sudoku.sol",
  "abi": [
    {
      "inputs": [
        {
          "internalType": "address",
          "name": "_verifierAddr",
          "type": "address"
        }
      ],
      "stateMutability": "nonpayable",
      "type": "constructor"
    },
    {
      "anonymous": false,
      "inputs": [
        {
          "indexed": true,
          "internalType": "address",
          "name": "owner",
          "type": "address"
        },
        {
          "indexed": true,
          "internalType": "address",
          "name": "approved",
          "type": "address"
        },
        {
          "indexed": true,
          "internalType": "uint256",
          "name": "tokenId",
          "type": "uint256"
        }
      ],
      "name": "Approval",
      "type": "event"
    },
    {
      "anonymous": false,
      "inputs": [
        {
          "indexed": true,
          "internalType": "address",
          "name": "owner",
          "type": "address"
        },
        {
          "indexed": true,
          "internalType": "address",
          "name": "operator",
          "type": "address"
        },
        {
          "indexed": false,
          "internalType": "bool",
          "name": "approved",
          "type": "bool"
        }
      ],
      "name": "ApprovalForAll",
      "type": "event"
    },
    {
      "anonymous": false,
      "inputs": [
        {
          "indexed": true,
          "internalType": "address",
          "name": "from",
          "type": "address"
        },
        {
          "indexed": true,
          "internalType": "address",
          "name": "to",
          "type": "address"
        },
        {
          "indexed": true,
          "internalType": "uint256",
          "name": "tokenId",
          "type": "uint256"
        }
      ],
      "name": "Transfer",
      "type": "event"
    },
    {
      "inputs": [
        {
          "internalType": "address",
          "name": "to",
          "type": "address"
        },
        {
          "internalType": "uint256",
          "name": "tokenId",
          "type": "uint256"
        }
      ],
      "name": "approve",
      "outputs": [],
      "stateMutability": "nonpayable",
      "type": "function"
    },
    {
      "inputs": [
        {
          "internalType": "address",
          "name": "owner",
          "type": "address"
        }
      ],
      "name": "balanceOf",
      "outputs": [
        {
          "internalType": "uint256",
          "name": "",
          "type": "uint256"
        }
      ],
      "stateMutability": "view",
      "type": "function"
    },
    {
      "inputs": [],
      "name": "generateSudokuBoard",
      "outputs": [
        {
          "internalType": "uint8[9][9]",
          "name": "",
          "type": "uint8[9][9]"
        }
      ],
      "stateMutability": "pure",
      "type": "function"
    },
    {
      "inputs": [
        {
          "internalType": "uint256",
          "name": "tokenId",
          "type": "uint256"
        }
      ],
      "name": "getApproved",
      "outputs": [
        {
          "internalType": "address",
          "name": "",
          "type": "address"
        }
      ],
      "stateMutability": "view",
      "type": "function"
    },
    {
      "inputs": [
        {
          "internalType": "address",
          "name": "owner",
          "type": "address"
        },
        {
          "internalType": "address",
          "name": "operator",
          "type": "address"
        }
      ],
      "name": "isApprovedForAll",
      "outputs": [
        {
          "internalType": "bool",
          "name": "",
          "type": "bool"
        }
      ],
      "stateMutability": "view",
      "type": "function"
    },
    {
      "inputs": [],
      "name": "name",
      "outputs": [
        {
          "internalType": "string",
          "name": "",
          "type": "string"
        }
      ],
      "stateMutability": "view",
      "type": "function"
    },
    {
      "inputs": [
        {
          "internalType": "uint256",
          "name": "tokenId",
          "type": "uint256"
        }
      ],
      "name": "ownerOf",
      "outputs": [
        {
          "internalType": "address",
          "name": "",
          "type": "address"
        }
      ],
      "stateMutability": "view",
      "type": "function"
    },
    {
      "inputs": [
        {
          "internalType": "address",
          "name": "from",
          "type": "address"
        },
        {
          "internalType": "address",
          "name": "to",
          "type": "address"
        },
        {
          "internalType": "uint256",
          "name": "tokenId",
          "type": "uint256"
        }
      ],
      "name": "safeTransferFrom",
      "outputs": [],
      "stateMutability": "nonpayable",
      "type": "function"
    },
    {
      "inputs": [
        {
          "internalType": "address",
          "name": "from",
          "type": "address"
        },
        {
          "internalType": "address",
          "name": "to",
          "type": "address"
        },
        {
          "internalType": "uint256",
          "name": "tokenId",
          "type": "uint256"
        },
        {
          "internalType": "bytes",
          "name": "_data",
          "type": "bytes"
        }
      ],
      "name": "safeTransferFrom",
      "outputs": [],
      "stateMutability": "nonpayable",
      "type": "function"
    },
    {
      "inputs": [
        {
          "internalType": "address",
          "name": "operator",
          "type": "address"
        },
        {
          "internalType": "bool",
          "name": "approved",
          "type": "bool"
        }
      ],
      "name": "setApprovalForAll",
      "outputs": [],
      "stateMutability": "nonpayable",
      "type": "function"
    },
    {
      "inputs": [
        {
          "internalType": "bytes4",
          "name": "interfaceId",
          "type": "bytes4"
        }
      ],
      "name": "supportsInterface",
      "outputs": [
        {
          "internalType": "bool",
          "name": "",
          "type": "bool"
        }
      ],
      "stateMutability": "view",
      "type": "function"
    },
    {
      "inputs": [],
      "name": "symbol",
      "outputs": [
        {
          "internalType": "string",
          "name": "",
          "type": "string"
        }
      ],
      "stateMutability": "view",
      "type": "function"
    },
    {
      "inputs": [
        {
          "internalType": "uint256",
          "name": "tokenId",
          "type": "uint256"
        }
      ],
      "name": "tokenURI",
      "outputs": [
        {
          "internalType": "string",
          "name": "",
          "type": "string"
        }
      ],
      "stateMutability": "view",
      "type": "function"
    },
    {
      "inputs": [
        {
          "internalType": "address",
          "name": "from",
          "type": "address"
        },
        {
          "internalType": "address",
          "name": "to",
          "type": "address"
        },
        {
          "internalType": "uint256",
          "name": "tokenId",
          "type": "uint256"
        }
      ],
      "name": "transferFrom",
      "outputs": [],
      "stateMutability": "nonpayable",
      "type": "function"
    },
    {
      "inputs": [],
      "name": "verifierAddr",
      "outputs": [
        {
          "internalType": "address",
          "name": "",
          "type": "address"
        }
      ],
      "stateMutability": "view",
      "type": "function"
    },
    {
      "inputs": [
        {
          "internalType": "uint256[2]",
          "name": "a",
          "type": "uint256[2]"
        },
        {
          "internalType": "uint256[2][2]",
          "name": "b",
          "type": "uint256[2][2]"
        },
        {
          "internalType": "uint256[2]",
          "name": "c",
          "type": "uint256[2]"
        },
        {
          "internalType": "uint256[81]",
          "name": "input",
          "type": "uint256[81]"
        }
      ],
      "name": "verifyProof",
      "outputs": [
        {
          "internalType": "bool",
          "name": "",
          "type": "bool"
        }
      ],
      "stateMutability": "view",
      "type": "function"
    },
    {
      "inputs": [
        {
          "internalType": "uint256[2]",
          "name": "a",
          "type": "uint256[2]"
        },
        {
          "internalType": "uint256[2][2]",
          "name": "b",
          "type": "uint256[2][2]"
        },
        {
          "internalType": "uint256[2]",
          "name": "c",
          "type": "uint256[2]"
        },
        {
          "internalType": "uint256[81]",
          "name": "input",
          "type": "uint256[81]"
        }
      ],
      "name": "verifySudoku",
      "outputs": [
        {
          "internalType": "bool",
          "name": "",
          "type": "bool"
        }
      ],
      "stateMutability": "view",
      "type": "function"
    },
    {
      "inputs": [
        {
          "internalType": "uint256[2]",
          "name": "a",
          "type": "uint256[2]"
        },
        {
          "internalType": "uint256[2][2]",
          "name": "b",
          "type": "uint256[2][2]"
        },
        {
          "internalType": "uint256[2]",
          "name": "c",
          "type": "uint256[2]"
        },
        {
          "internalType": "uint256[81]",
          "name": "input",
          "type": "uint256[81]"
        }
      ],
      "name": "verifySudokuAndMintNft",
      "outputs": [],
      "stateMutability": "nonpayable",
      "type": "function"
    }
  ],
  "bytecode": "0x608060405260405180610260016040528061023b8152602001620043e761023b9139600990805190602001906200003892919062000154565b503480156200004657600080fd5b50604051620046223803806200462283398181016040528101906200006c91906200021b565b6040518060400160405280600981526020017f5375646f6b754e465400000000000000000000000000000000000000000000008152506040518060400160405280600781526020017f7a6b47616d6573000000000000000000000000000000000000000000000000008152508160009080519060200190620000f092919062000154565b5080600190805190602001906200010992919062000154565b50505080600760006101000a81548173ffffffffffffffffffffffffffffffffffffffff021916908373ffffffffffffffffffffffffffffffffffffffff16021790555050620002fa565b82805462000162906200027b565b90600052602060002090601f016020900481019282620001865760008555620001d2565b82601f10620001a157805160ff1916838001178555620001d2565b82800160010185558215620001d2579182015b82811115620001d1578251825591602001919060010190620001b4565b5b509050620001e19190620001e5565b5090565b5b8082111562000200576000816000905550600101620001e6565b5090565b6000815190506200021581620002e0565b92915050565b6000602082840312156200022e57600080fd5b60006200023e8482850162000204565b91505092915050565b600062000254826200025b565b9050919050565b600073ffffffffffffffffffffffffffffffffffffffff82169050919050565b600060028204905060018216806200029457607f821691505b60208210811415620002ab57620002aa620002b1565b5b50919050565b7f4e487b7100000000000000000000000000000000000000000000000000000000600052602260045260246000fd5b620002eb8162000247565b8114620002f757600080fd5b50565b6140dd806200030a6000396000f3fe608060405234801561001057600080fd5b50600436106101165760003560e01c8063663ea2e2116100a2578063b88d4fde11610071578063b88d4fde146102f3578063c0397c671461030f578063c87b56dd1461032b578063e235ad2a1461035b578063e985e9c51461038b57610116565b8063663ea2e21461026b57806370a082311461028957806395d89b41146102b9578063a22cb465146102d757610116565b806323b872dd116100e957806323b872dd146101b55780633a44e53a146101d15780633e7c838f146101ef57806342842e0e1461021f5780636352211e1461023b57610116565b806301ffc9a71461011b57806306fdde031461014b578063081812fc14610169578063095ea7b314610199575b600080fd5b6101356004803603810190610130919061293a565b6103bb565b60405161014291906131a8565b60405180910390f35b61015361049d565b60405161016091906131c3565b60405180910390f35b610183600480360381019061017e919061298c565b61052f565b60405161019091906130de565b60405180910390f35b6101b360048036038101906101ae9190612870565b6105b4565b005b6101cf60048036038101906101ca919061276a565b6106cc565b005b6101d961072c565b6040516101e69190613145565b60405180910390f35b610209600480360381019061020491906128ac565b610afa565b60405161021691906131a8565b60405180910390f35b6102396004803603810190610234919061276a565b610b53565b005b6102556004803603810190610250919061298c565b610b73565b60405161026291906130de565b60405180910390f35b610273610c25565b60405161028091906130de565b60405180910390f35b6102a3600480360381019061029e9190612705565b610c4b565b6040516102b09190613443565b60405180910390f35b6102c1610d03565b6040516102ce91906131c3565b60405180910390f35b6102f160048036038101906102ec9190612834565b610d95565b005b61030d600480360381019061030891906127b9565b610dab565b005b610329600480360381019061032491906128ac565b610e0d565b005b6103456004803603810190610340919061298c565b610e66565b60405161035291906131c3565b60405180910390f35b610375600480360381019061037091906128ac565b610fb8565b60405161038291906131a8565b60405180910390f35b6103a560048036038101906103a0919061272e565b611075565b6040516103b291906131a8565b60405180910390f35b60007f80ac58cd000000000000000000000000000000000000000000000000000000007bffffffffffffffffffffffffffffffffffffffffffffffffffffffff1916827bffffffffffffffffffffffffffffffffffffffffffffffffffffffff1916148061048657507f5b5e139f000000000000000000000000000000000000000000000000000000007bffffffffffffffffffffffffffffffffffffffffffffffffffffffff1916827bffffffffffffffffffffffffffffffffffffffffffffffffffffffff1916145b80610496575061049582611109565b5b9050919050565b6060600080546104ac9061382d565b80601f01602080910402602001604051908101604052809291908181526020018280546104d89061382d565b80156105255780601f106104fa57610100808354040283529160200191610525565b820191906000526020600020905b81548152906001019060200180831161050857829003601f168201915b5050505050905090565b600061053a82611173565b610579576040517f08c379a0000000000000000000000000000000000000000000000000000000008152600401610570906133c3565b60405180910390fd5b6004600083815260200190815260200160002060009054906101000a900473ffffffffffffffffffffffffffffffffffffffff169050919050565b60006105bf82610b73565b90508073ffffffffffffffffffffffffffffffffffffffff168373ffffffffffffffffffffffffffffffffffffffff161415610630576040517f08c379a000000000000000000000000000000000000000000000000000000000815260040161062790613403565b60405180910390fd5b8073ffffffffffffffffffffffffffffffffffffffff1661064f6111df565b73ffffffffffffffffffffffffffffffffffffffff16148061067e575061067d816106786111df565b611075565b5b6106bd576040517f08c379a00000000000000000000000000000000000000000000000000000000081526004016106b490613303565b60405180910390fd5b6106c783836111e7565b505050565b6106dd6106d76111df565b826112a0565b61071c576040517f08c379a000000000000000000000000000000000000000000000000000000000815260040161071390613423565b60405180910390fd5b61072783838361137e565b505050565b61073461238d565b6000604051806101200160405280604051806101200160405280600160ff168152602001600260ff168152602001600760ff168152602001600560ff168152602001600860ff168152602001600460ff168152602001600660ff168152602001600960ff168152602001600360ff168152508152602001604051806101200160405280600860ff168152602001600560ff168152602001600660ff168152602001600360ff168152602001600760ff168152602001600960ff168152602001600160ff168152602001600260ff168152602001600460ff168152508152602001604051806101200160405280600360ff168152602001600460ff168152602001600960ff168152602001600660ff168152602001600260ff168152602001600160ff168152602001600860ff168152602001600760ff168152602001600560ff168152508152602001604051806101200160405280600460ff168152602001600760ff168152602001600160ff168152602001600960ff168152602001600560ff168152602001600860ff168152602001600260ff168152602001600360ff168152602001600660ff168152508152602001604051806101200160405280600260ff168152602001600660ff168152602001600860ff168152602001600760ff168152602001600160ff168152602001600360ff168152602001600560ff168152602001600460ff168152602001600960ff168152508152602001604051806101200160405280600960ff168152602001600360ff168152602001600560ff168152602001600460ff168152602001600660ff168152602001600260ff168152602001600760ff168152602001600160ff168152602001600860ff168152508152602001604051806101200160405280600560ff168152602001600860ff168152602001600360ff168152602001600260ff168152602001600960ff168152602001600760ff168152602001600460ff168152602001600660ff168152602001600160ff168152508152602001604051806101200160405280600760ff168152602001600160ff168152602001600460ff168152602001600860ff168152602001600360ff168152602001600660ff168152602001600960ff168152602001600560ff168152602001600260ff168152508152602001604051806101200160405280600660ff168152602001600960ff168152602001600260ff168152602001600160ff168152602001600460ff168152602001600560ff168152602001600360ff168152602001600060ff168152602001600760ff1681525081525090508091505090565b6000610b0885858585610fb8565b610b47576040517f08c379a0000000000000000000000000000000000000000000000000000000008152600401610b3e906132e3565b60405180910390fd5b60019050949350505050565b610b6e83838360405180602001604052806000815250610dab565b505050565b6000806002600084815260200190815260200160002060009054906101000a900473ffffffffffffffffffffffffffffffffffffffff169050600073ffffffffffffffffffffffffffffffffffffffff168173ffffffffffffffffffffffffffffffffffffffff161415610c1c576040517f08c379a0000000000000000000000000000000000000000000000000000000008152600401610c1390613343565b60405180910390fd5b80915050919050565b600760009054906101000a900473ffffffffffffffffffffffffffffffffffffffff1681565b60008073ffffffffffffffffffffffffffffffffffffffff168273ffffffffffffffffffffffffffffffffffffffff161415610cbc576040517f08c379a0000000000000000000000000000000000000000000000000000000008152600401610cb390613323565b60405180910390fd5b600360008373ffffffffffffffffffffffffffffffffffffffff1673ffffffffffffffffffffffffffffffffffffffff168152602001908152602001600020549050919050565b606060018054610d129061382d565b80601f0160208091040260200160405190810160405280929190818152602001828054610d3e9061382d565b8015610d8b5780601f10610d6057610100808354040283529160200191610d8b565b820191906000526020600020905b815481529060010190602001808311610d6e57829003601f168201915b5050505050905090565b610da7610da06111df565b83836115e5565b5050565b610dbc610db66111df565b836112a0565b610dfb576040517f08c379a0000000000000000000000000000000000000000000000000000000008152600401610df290613423565b60405180910390fd5b610e0784848484611752565b50505050565b610e1984848484610fb8565b610e58576040517f08c379a0000000000000000000000000000000000000000000000000000000008152600401610e4f906132e3565b60405180910390fd5b610e606117ae565b50505050565b6060610e7182611173565b610eb0576040517f08c379a0000000000000000000000000000000000000000000000000000000008152600401610ea7906133a3565b60405180910390fd5b6000600660008481526020019081526020016000208054610ed09061382d565b80601f0160208091040260200160405190810160405280929190818152602001828054610efc9061382d565b8015610f495780601f10610f1e57610100808354040283529160200191610f49565b820191906000526020600020905b815481529060010190602001808311610f2c57829003601f168201915b505050505090506000610f5a611988565b9050600081511415610f70578192505050610fb3565b600082511115610fa5578082604051602001610f8d929190613033565b60405160208183030381529060405292505050610fb3565b610fae8461199f565b925050505b919050565b6000600760009054906101000a900473ffffffffffffffffffffffffffffffffffffffff1673ffffffffffffffffffffffffffffffffffffffff1663e235ad2a868686866040518563ffffffff1660e01b815260040161101b9493929190613161565b60206040518083038186803b15801561103357600080fd5b505afa158015611047573d6000803e3d6000fd5b505050506040513d601f19601f8201168201806040525081019061106b9190612911565b9050949350505050565b6000600560008473ffffffffffffffffffffffffffffffffffffffff1673ffffffffffffffffffffffffffffffffffffffff16815260200190815260200160002060008373ffffffffffffffffffffffffffffffffffffffff1673ffffffffffffffffffffffffffffffffffffffff16815260200190815260200160002060009054906101000a900460ff16905092915050565b60007f01ffc9a7000000000000000000000000000000000000000000000000000000007bffffffffffffffffffffffffffffffffffffffffffffffffffffffff1916827bffffffffffffffffffffffffffffffffffffffffffffffffffffffff1916149050919050565b60008073ffffffffffffffffffffffffffffffffffffffff166002600084815260200190815260200160002060009054906101000a900473ffffffffffffffffffffffffffffffffffffffff1673ffffffffffffffffffffffffffffffffffffffff1614159050919050565b600033905090565b816004600083815260200190815260200160002060006101000a81548173ffffffffffffffffffffffffffffffffffffffff021916908373ffffffffffffffffffffffffffffffffffffffff160217905550808273ffffffffffffffffffffffffffffffffffffffff1661125a83610b73565b73ffffffffffffffffffffffffffffffffffffffff167f8c5be1e5ebec7d5bd14f71427d1e84f3dd0314c0f7b2291e5b200ac8c7c3b92560405160405180910390a45050565b60006112ab82611173565b6112ea576040517f08c379a00000000000000000000000000000000000000000000000000000000081526004016112e1906132c3565b60405180910390fd5b60006112f583610b73565b90508073ffffffffffffffffffffffffffffffffffffffff168473ffffffffffffffffffffffffffffffffffffffff16148061136457508373ffffffffffffffffffffffffffffffffffffffff1661134c8461052f565b73ffffffffffffffffffffffffffffffffffffffff16145b8061137557506113748185611075565b5b91505092915050565b8273ffffffffffffffffffffffffffffffffffffffff1661139e82610b73565b73ffffffffffffffffffffffffffffffffffffffff16146113f4576040517f08c379a00000000000000000000000000000000000000000000000000000000081526004016113eb90613243565b60405180910390fd5b600073ffffffffffffffffffffffffffffffffffffffff168273ffffffffffffffffffffffffffffffffffffffff161415611464576040517f08c379a000000000000000000000000000000000000000000000000000000000815260040161145b90613283565b60405180910390fd5b61146f838383611a46565b61147a6000826111e7565b6001600360008573ffffffffffffffffffffffffffffffffffffffff1673ffffffffffffffffffffffffffffffffffffffff16815260200190815260200160002060008282546114ca9190613736565b925050819055506001600360008473ffffffffffffffffffffffffffffffffffffffff1673ffffffffffffffffffffffffffffffffffffffff16815260200190815260200160002060008282546115219190613655565b92505081905550816002600083815260200190815260200160002060006101000a81548173ffffffffffffffffffffffffffffffffffffffff021916908373ffffffffffffffffffffffffffffffffffffffff160217905550808273ffffffffffffffffffffffffffffffffffffffff168473ffffffffffffffffffffffffffffffffffffffff167fddf252ad1be2c89b69c2b068fc378daa952ba7f163c4a11628f55a4df523b3ef60405160405180910390a46115e0838383611a4b565b505050565b8173ffffffffffffffffffffffffffffffffffffffff168373ffffffffffffffffffffffffffffffffffffffff161415611654576040517f08c379a000000000000000000000000000000000000000000000000000000000815260040161164b906132a3565b60405180910390fd5b80600560008573ffffffffffffffffffffffffffffffffffffffff1673ffffffffffffffffffffffffffffffffffffffff16815260200190815260200160002060008473ffffffffffffffffffffffffffffffffffffffff1673ffffffffffffffffffffffffffffffffffffffff16815260200190815260200160002060006101000a81548160ff0219169083151502179055508173ffffffffffffffffffffffffffffffffffffffff168373ffffffffffffffffffffffffffffffffffffffff167f17307eab39ab6107e8899845ad3d59bd9653f200f220920489ca2b5937696c318360405161174591906131a8565b60405180910390a3505050565b61175d84848461137e565b61176984848484611a50565b6117a8576040517f08c379a000000000000000000000000000000000000000000000000000000000815260040161179f90613223565b60405180910390fd5b50505050565b60006117ba6008611be7565b90506000611878611854600980546117d19061382d565b80601f01602080910402602001604051908101604052809291908181526020018280546117fd9061382d565b801561184a5780601f1061181f5761010080835404028352916020019161184a565b820191906000526020600020905b81548152906001019060200180831161182d57829003601f168201915b5050505050611bf5565b6040516020016118649190613079565b604051602081830303815290604052611bf5565b905060008160405160200161188d91906130bc565b60405160208183030381529060405290506118dc6040518060400160405280601581526020017f0a2d2d2d2d2d2d2d2d2d2d2d2d2d2d2d2d2d2d2d2d0000000000000000000000815250611d7f565b611904816040516020016118f09190613057565b604051602081830303815290604052611d7f565b6119426040518060400160405280601581526020017f2d2d2d2d2d2d2d2d2d2d2d2d2d2d2d2d2d2d2d2d0a0000000000000000000000815250611d7f565b61194c3384611e18565b6119568382611e36565b6119606008611eaa565b611983604051806060016040528060258152602001614043602591398433611ec0565b505050565b606060405180602001604052806000815250905090565b60606119aa82611173565b6119e9576040517f08c379a00000000000000000000000000000000000000000000000000000000081526004016119e0906133e3565b60405180910390fd5b60006119f3611988565b90506000815111611a135760405180602001604052806000815250611a3e565b80611a1d84611f5f565b604051602001611a2e929190613033565b6040516020818303038152906040525b915050919050565b505050565b505050565b6000611a718473ffffffffffffffffffffffffffffffffffffffff1661210c565b15611bda578373ffffffffffffffffffffffffffffffffffffffff1663150b7a02611a9a6111df565b8786866040518563ffffffff1660e01b8152600401611abc94939291906130f9565b602060405180830381600087803b158015611ad657600080fd5b505af1925050508015611b0757506040513d601f19601f82011682018060405250810190611b049190612963565b60015b611b8a573d8060008114611b37576040519150601f19603f3d011682016040523d82523d6000602084013e611b3c565b606091505b50600081511415611b82576040517f08c379a0000000000000000000000000000000000000000000000000000000008152600401611b7990613223565b60405180910390fd5b805181602001fd5b63150b7a0260e01b7bffffffffffffffffffffffffffffffffffffffffffffffffffffffff1916817bffffffffffffffffffffffffffffffffffffffffffffffffffffffff191614915050611bdf565b600190505b949350505050565b600081600001549050919050565b6060600082511415611c1857604051806020016040528060008152509050611d7a565b60006040518060600160405280604081526020016140686040913990506000600360028551611c479190613655565b611c5191906136ab565b6004611c5d91906136dc565b67ffffffffffffffff811115611c9c577f4e487b7100000000000000000000000000000000000000000000000000000000600052604160045260246000fd5b6040519080825280601f01601f191660200182016040528015611cce5781602001600182028036833780820191505090505b509050600182016020820185865187015b80821015611d3a576003820191508151603f8160121c168501518453600184019350603f81600c1c168501518453600184019350603f8160061c168501518453600184019350603f8116850151845360018401935050611cdf565b5050600386510660018114611d565760028114611d6957611d71565b603d6001830353603d6002830353611d71565b603d60018303535b50505080925050505b919050565b611e1581604051602401611d9391906131c3565b6040516020818303038152906040527f41304fac000000000000000000000000000000000000000000000000000000007bffffffffffffffffffffffffffffffffffffffffffffffffffffffff19166020820180517bffffffffffffffffffffffffffffffffffffffffffffffffffffffff838183161783525050505061212f565b50565b611e32828260405180602001604052806000815250612158565b5050565b611e3f82611173565b611e7e576040517f08c379a0000000000000000000000000000000000000000000000000000000008152600401611e7590613363565b60405180910390fd5b80600660008481526020019081526020016000209080519060200190611ea59291906123bb565b505050565b6001816000016000828254019250508190555050565b611f5a838383604051602401611ed8939291906131e5565b6040516020818303038152906040527fe3849f79000000000000000000000000000000000000000000000000000000007bffffffffffffffffffffffffffffffffffffffffffffffffffffffff19166020820180517bffffffffffffffffffffffffffffffffffffffffffffffffffffffff838183161783525050505061212f565b505050565b60606000821415611fa7576040518060400160405280600181526020017f30000000000000000000000000000000000000000000000000000000000000008152509050612107565b600082905060005b60008214611fd9578080611fc290613890565b915050600a82611fd291906136ab565b9150611faf565b60008167ffffffffffffffff81111561201b577f4e487b7100000000000000000000000000000000000000000000000000000000600052604160045260246000fd5b6040519080825280601f01601f19166020018201604052801561204d5781602001600182028036833780820191505090505b5090505b60008514612100576001826120669190613736565b9150600a8561207591906138d9565b60306120819190613655565b60f81b8183815181106120bd577f4e487b7100000000000000000000000000000000000000000000000000000000600052603260045260246000fd5b60200101907effffffffffffffffffffffffffffffffffffffffffffffffffffffffffffff1916908160001a905350600a856120f991906136ab565b9450612051565b8093505050505b919050565b6000808273ffffffffffffffffffffffffffffffffffffffff163b119050919050565b60008151905060006a636f6e736f6c652e6c6f679050602083016000808483855afa5050505050565b61216283836121b3565b61216f6000848484611a50565b6121ae576040517f08c379a00000000000000000000000000000000000000000000000000000000081526004016121a590613223565b60405180910390fd5b505050565b600073ffffffffffffffffffffffffffffffffffffffff168273ffffffffffffffffffffffffffffffffffffffff161415612223576040517f08c379a000000000000000000000000000000000000000000000000000000000815260040161221a90613383565b60405180910390fd5b61222c81611173565b1561226c576040517f08c379a000000000000000000000000000000000000000000000000000000000815260040161226390613263565b60405180910390fd5b61227860008383611a46565b6001600360008473ffffffffffffffffffffffffffffffffffffffff1673ffffffffffffffffffffffffffffffffffffffff16815260200190815260200160002060008282546122c89190613655565b92505081905550816002600083815260200190815260200160002060006101000a81548173ffffffffffffffffffffffffffffffffffffffff021916908373ffffffffffffffffffffffffffffffffffffffff160217905550808273ffffffffffffffffffffffffffffffffffffffff16600073ffffffffffffffffffffffffffffffffffffffff167fddf252ad1be2c89b69c2b068fc378daa952ba7f163c4a11628f55a4df523b3ef60405160405180910390a461238960008383611a4b565b5050565b6040518061012001604052806009905b6123a5612441565b81526020019060019003908161239d5790505090565b8280546123c79061382d565b90600052602060002090601f0160209004810192826123e95760008555612430565b82601f1061240257805160ff1916838001178555612430565b82800160010185558215612430579182015b8281111561242f578251825591602001919060010190612414565b5b50905061243d9190612464565b5090565b604051806101200160405280600990602082028036833780820191505090505090565b5b8082111561247d576000816000905550600101612465565b5090565b600061249461248f84613483565b61345e565b905080828560408602820111156124aa57600080fd5b60005b858110156124da57816124c08882612624565b8452602084019350604083019250506001810190506124ad565b5050509392505050565b60006124f76124f2846134a9565b61345e565b9050808285602086028201111561250d57600080fd5b60005b8581101561253d578161252388826126f0565b845260208401935060208301925050600181019050612510565b5050509392505050565b600061255a612555846134cf565b61345e565b9050808285602086028201111561257057600080fd5b60005b858110156125a0578161258688826126f0565b845260208401935060208301925050600181019050612573565b5050509392505050565b60006125bd6125b8846134f5565b61345e565b9050828152602081018484840111156125d557600080fd5b6125e08482856137eb565b509392505050565b6000813590506125f781613fe6565b92915050565b600082601f83011261260e57600080fd5b600261261b848285612481565b91505092915050565b600082601f83011261263557600080fd5b60026126428482856124e4565b91505092915050565b600082601f83011261265c57600080fd5b6051612669848285612547565b91505092915050565b60008135905061268181613ffd565b92915050565b60008151905061269681613ffd565b92915050565b6000813590506126ab81614014565b92915050565b6000815190506126c081614014565b92915050565b600082601f8301126126d757600080fd5b81356126e78482602086016125aa565b91505092915050565b6000813590506126ff8161402b565b92915050565b60006020828403121561271757600080fd5b6000612725848285016125e8565b91505092915050565b6000806040838503121561274157600080fd5b600061274f858286016125e8565b9250506020612760858286016125e8565b9150509250929050565b60008060006060848603121561277f57600080fd5b600061278d868287016125e8565b935050602061279e868287016125e8565b92505060406127af868287016126f0565b9150509250925092565b600080600080608085870312156127cf57600080fd5b60006127dd878288016125e8565b94505060206127ee878288016125e8565b93505060406127ff878288016126f0565b925050606085013567ffffffffffffffff81111561281c57600080fd5b612828878288016126c6565b91505092959194509250565b6000806040838503121561284757600080fd5b6000612855858286016125e8565b925050602061286685828601612672565b9150509250929050565b6000806040838503121561288357600080fd5b6000612891858286016125e8565b92505060206128a2858286016126f0565b9150509250929050565b600080600080610b2085870312156128c357600080fd5b60006128d187828801612624565b94505060406128e2878288016125fd565b93505060c06128f387828801612624565b9250506101006129058782880161264b565b91505092959194509250565b60006020828403121561292357600080fd5b600061293184828501612687565b91505092915050565b60006020828403121561294c57600080fd5b600061295a8482850161269c565b91505092915050565b60006020828403121561297557600080fd5b6000612983848285016126b1565b91505092915050565b60006020828403121561299e57600080fd5b60006129ac848285016126f0565b91505092915050565b60006129c18383612ad3565b60408301905092915050565b60006129d98383612bd8565b6101208301905092915050565b60006129f28383613006565b60208301905092915050565b6000612a0a8383613024565b60208301905092915050565b612a1f8161376a565b82525050565b612a2e81613558565b612a3881846135e6565b9250612a4382613526565b8060005b83811015612a74578151612a5b87826129b5565b9650612a66836135a5565b925050600181019050612a47565b505050505050565b612a8581613563565b612a8f81846135f1565b9250612a9a82613530565b8060005b83811015612acb578151612ab287826129cd565b9650612abd836135b2565b925050600181019050612a9e565b505050505050565b612adc8161356e565b612ae681846135fc565b9250612af18261353a565b8060005b83811015612b22578151612b0987826129e6565b9650612b14836135bf565b925050600181019050612af5565b505050505050565b612b338161356e565b612b3d8184613607565b9250612b488261353a565b8060005b83811015612b79578151612b6087826129e6565b9650612b6b836135bf565b925050600181019050612b4c565b505050505050565b612b8a81613579565b612b948184613612565b9250612b9f82613544565b8060005b83811015612bd0578151612bb787826129e6565b9650612bc2836135cc565b925050600181019050612ba3565b505050505050565b612be181613584565b612beb818461361d565b9250612bf68261354e565b8060005b83811015612c27578151612c0e87826129fe565b9650612c19836135d9565b925050600181019050612bfa565b505050505050565b612c388161377c565b82525050565b6000612c498261358f565b612c538185613628565b9350612c638185602086016137fa565b612c6c816139c6565b840191505092915050565b6000612c828261359a565b612c8c8185613639565b9350612c9c8185602086016137fa565b612ca5816139c6565b840191505092915050565b6000612cbb8261359a565b612cc5818561364a565b9350612cd58185602086016137fa565b80840191505092915050565b6000612cee60068361364a565b9150612cf9826139d7565b600682019050919050565b6000612d1160258361364a565b9150612d1c82613a00565b602582019050919050565b6000612d34603283613639565b9150612d3f82613a4f565b604082019050919050565b6000612d57602583613639565b9150612d6282613a9e565b604082019050919050565b6000612d7a601c83613639565b9150612d8582613aed565b602082019050919050565b6000612d9d602483613639565b9150612da882613b16565b604082019050919050565b6000612dc0601983613639565b9150612dcb82613b65565b602082019050919050565b6000612de3602c83613639565b9150612dee82613b8e565b604082019050919050565b6000612e06601183613639565b9150612e1182613bdd565b602082019050919050565b6000612e29603883613639565b9150612e3482613c06565b604082019050919050565b6000612e4c602a83613639565b9150612e5782613c55565b604082019050919050565b6000612e6f602983613639565b9150612e7a82613ca4565b604082019050919050565b6000612e92602e83613639565b9150612e9d82613cf3565b604082019050919050565b6000612eb560028361364a565b9150612ec082613d42565b600282019050919050565b6000612ed8602083613639565b9150612ee382613d6b565b602082019050919050565b6000612efb603183613639565b9150612f0682613d94565b604082019050919050565b6000612f1e602c83613639565b9150612f2982613de3565b604082019050919050565b6000612f41602f83613639565b9150612f4c82613e32565b604082019050919050565b6000612f64600a8361364a565b9150612f6f82613e81565b600a82019050919050565b6000612f8760538361364a565b9150612f9282613eaa565b605382019050919050565b6000612faa602183613639565b9150612fb582613f1f565b604082019050919050565b6000612fcd601d8361364a565b9150612fd882613f6e565b601d82019050919050565b6000612ff0603183613639565b9150612ffb82613f97565b604082019050919050565b61300f816137d4565b82525050565b61301e816137d4565b82525050565b61302d816137de565b82525050565b600061303f8285612cb0565b915061304b8284612cb0565b91508190509392505050565b600061306282612d04565b915061306e8284612cb0565b915081905092915050565b600061308482612f57565b915061308f82612ce1565b915061309a82612f7a565b91506130a68284612cb0565b91506130b182612ea8565b915081905092915050565b60006130c782612fc0565b91506130d38284612cb0565b915081905092915050565b60006020820190506130f36000830184612a16565b92915050565b600060808201905061310e6000830187612a16565b61311b6020830186612a16565b6131286040830185613015565b818103606083015261313a8184612c3e565b905095945050505050565b6000610a208201905061315b6000830184612a7c565b92915050565b6000610b20820190506131776000830187612b2a565b6131846040830186612a25565b61319160c0830185612b2a565b61319f610100830184612b81565b95945050505050565b60006020820190506131bd6000830184612c2f565b92915050565b600060208201905081810360008301526131dd8184612c77565b905092915050565b600060608201905081810360008301526131ff8186612c77565b905061320e6020830185613015565b61321b6040830184612a16565b949350505050565b6000602082019050818103600083015261323c81612d27565b9050919050565b6000602082019050818103600083015261325c81612d4a565b9050919050565b6000602082019050818103600083015261327c81612d6d565b9050919050565b6000602082019050818103600083015261329c81612d90565b9050919050565b600060208201905081810360008301526132bc81612db3565b9050919050565b600060208201905081810360008301526132dc81612dd6565b9050919050565b600060208201905081810360008301526132fc81612df9565b9050919050565b6000602082019050818103600083015261331c81612e1c565b9050919050565b6000602082019050818103600083015261333c81612e3f565b9050919050565b6000602082019050818103600083015261335c81612e62565b9050919050565b6000602082019050818103600083015261337c81612e85565b9050919050565b6000602082019050818103600083015261339c81612ecb565b9050919050565b600060208201905081810360008301526133bc81612eee565b9050919050565b600060208201905081810360008301526133dc81612f11565b9050919050565b600060208201905081810360008301526133fc81612f34565b9050919050565b6000602082019050818103600083015261341c81612f9d565b9050919050565b6000602082019050818103600083015261343c81612fe3565b9050919050565b60006020820190506134586000830184613015565b92915050565b6000613468613479565b9050613474828261385f565b919050565b6000604051905090565b600067ffffffffffffffff82111561349e5761349d613997565b5b602082029050919050565b600067ffffffffffffffff8211156134c4576134c3613997565b5b602082029050919050565b600067ffffffffffffffff8211156134ea576134e9613997565b5b602082029050919050565b600067ffffffffffffffff8211156135105761350f613997565b5b613519826139c6565b9050602081019050919050565b6000819050919050565b6000819050919050565b6000819050919050565b6000819050919050565b6000819050919050565b600060029050919050565b600060099050919050565b600060029050919050565b600060519050919050565b600060099050919050565b600081519050919050565b600081519050919050565b6000602082019050919050565b6000602082019050919050565b6000602082019050919050565b6000602082019050919050565b6000602082019050919050565b600081905092915050565b600081905092915050565b600081905092915050565b600081905092915050565b600081905092915050565b600081905092915050565b600082825260208201905092915050565b600082825260208201905092915050565b600081905092915050565b6000613660826137d4565b915061366b836137d4565b9250827fffffffffffffffffffffffffffffffffffffffffffffffffffffffffffffffff038211156136a05761369f61390a565b5b828201905092915050565b60006136b6826137d4565b91506136c1836137d4565b9250826136d1576136d0613939565b5b828204905092915050565b60006136e7826137d4565b91506136f2836137d4565b9250817fffffffffffffffffffffffffffffffffffffffffffffffffffffffffffffffff048311821515161561372b5761372a61390a565b5b828202905092915050565b6000613741826137d4565b915061374c836137d4565b92508282101561375f5761375e61390a565b5b828203905092915050565b6000613775826137b4565b9050919050565b60008115159050919050565b60007fffffffff0000000000000000000000000000000000000000000000000000000082169050919050565b600073ffffffffffffffffffffffffffffffffffffffff82169050919050565b6000819050919050565b600060ff82169050919050565b82818337600083830152505050565b60005b838110156138185780820151818401526020810190506137fd565b83811115613827576000848401525b50505050565b6000600282049050600182168061384557607f821691505b6020821081141561385957613858613968565b5b50919050565b613868826139c6565b810181811067ffffffffffffffff8211171561388757613886613997565b5b80604052505050565b600061389b826137d4565b91507fffffffffffffffffffffffffffffffffffffffffffffffffffffffffffffffff8214156138ce576138cd61390a565b5b600182019050919050565b60006138e4826137d4565b91506138ef836137d4565b9250826138ff576138fe613939565b5b828206905092915050565b7f4e487b7100000000000000000000000000000000000000000000000000000000600052601160045260246000fd5b7f4e487b7100000000000000000000000000000000000000000000000000000000600052601260045260246000fd5b7f4e487b7100000000000000000000000000000000000000000000000000000000600052602260045260246000fd5b7f4e487b7100000000000000000000000000000000000000000000000000000000600052604160045260246000fd5b6000601f19601f8301169050919050565b7f5375646f6b750000000000000000000000000000000000000000000000000000600082015250565b7f68747470733a2f2f6e6674707265766965772e30786465762e636f6465732f3f60008201527f636f64653d000000000000000000000000000000000000000000000000000000602082015250565b7f4552433732313a207472616e7366657220746f206e6f6e20455243373231526560008201527f63656976657220696d706c656d656e7465720000000000000000000000000000602082015250565b7f4552433732313a207472616e736665722066726f6d20696e636f72726563742060008201527f6f776e6572000000000000000000000000000000000000000000000000000000602082015250565b7f4552433732313a20746f6b656e20616c7265616479206d696e74656400000000600082015250565b7f4552433732313a207472616e7366657220746f20746865207a65726f2061646460008201527f7265737300000000000000000000000000000000000000000000000000000000602082015250565b7f4552433732313a20617070726f766520746f2063616c6c657200000000000000600082015250565b7f4552433732313a206f70657261746f7220717565727920666f72206e6f6e657860008201527f697374656e7420746f6b656e0000000000000000000000000000000000000000602082015250565b7f46696c65642070726f6f6620636865636b000000000000000000000000000000600082015250565b7f4552433732313a20617070726f76652063616c6c6572206973206e6f74206f7760008201527f6e6572206e6f7220617070726f76656420666f7220616c6c0000000000000000602082015250565b7f4552433732313a2062616c616e636520717565727920666f7220746865207a6560008201527f726f206164647265737300000000000000000000000000000000000000000000602082015250565b7f4552433732313a206f776e657220717565727920666f72206e6f6e657869737460008201527f656e7420746f6b656e0000000000000000000000000000000000000000000000602082015250565b7f45524337323155524953746f726167653a2055524920736574206f66206e6f6e60008201527f6578697374656e7420746f6b656e000000000000000000000000000000000000602082015250565b7f227d000000000000000000000000000000000000000000000000000000000000600082015250565b7f4552433732313a206d696e7420746f20746865207a65726f2061646472657373600082015250565b7f45524337323155524953746f726167653a2055524920717565727920666f722060008201527f6e6f6e6578697374656e7420746f6b656e000000000000000000000000000000602082015250565b7f4552433732313a20617070726f76656420717565727920666f72206e6f6e657860008201527f697374656e7420746f6b656e0000000000000000000000000000000000000000602082015250565b7f4552433732314d657461646174613a2055524920717565727920666f72206e6f60008201527f6e6578697374656e7420746f6b656e0000000000000000000000000000000000602082015250565b7f7b226e616d65223a202200000000000000000000000000000000000000000000600082015250565b7f222c20226465736372697074696f6e223a2022536f6c766564205375646f6b7560008201527f206f6e207a6b47616d65732e222c2022696d616765223a2022646174613a696d60208201527f6167652f7376672b786d6c3b6261736536342c00000000000000000000000000604082015250565b7f4552433732313a20617070726f76616c20746f2063757272656e74206f776e6560008201527f7200000000000000000000000000000000000000000000000000000000000000602082015250565b7f646174613a6170706c69636174696f6e2f6a736f6e3b6261736536342c000000600082015250565b7f4552433732313a207472616e736665722063616c6c6572206973206e6f74206f60008201527f776e6572206e6f7220617070726f766564000000000000000000000000000000602082015250565b613fef8161376a565b8114613ffa57600080fd5b50565b6140068161377c565b811461401157600080fd5b50565b61401d81613788565b811461402857600080fd5b50565b614034816137d4565b811461403f57600080fd5b5056fe416e204e465420772f20494420257320686173206265656e206d696e74656420746f2025734142434445464748494a4b4c4d4e4f505152535455565758595a6162636465666768696a6b6c6d6e6f707172737475767778797a303132333435363738392b2fa26469706673582212207a02c1a0ced53b101623f66904951b825b626e2e53538d3385dd30b115cc4c3a64736f6c634300080400333c7376672077696474683d2233353022206865696768743d22333530222076696577426f783d2230203020333530203335302220786d6c6e733d22687474703a2f2f7777772e77332e6f72672f323030302f737667223e3c646566733e3c6c696e6561724772616469656e742069643d2261222078313d2230222079313d2230222078323d22323730222079323d2232373022206772616469656e74556e6974733d227573657253706163654f6e557365223e3c73746f702073746f702d636f6c6f723d2223393333336561222f3e3c73746f70206f66667365743d2231222073746f702d636f6c6f723d2223346634366535222073746f702d6f7061636974793d222e3939222f3e3c2f6c696e6561724772616469656e743e3c2f646566733e3c726563742077696474683d223130302522206865696768743d2231303025222066696c6c3d2275726c28236129222f3e3c7465787420783d223830252220793d2239352522207374796c653d2266696c6c3a233066313732613b666f6e742d66616d696c793a73657269663b666f6e742d73697a653a31357078223e7a6b47616d65733c2f746578743e3c7465787420783d223530252220793d223530252220646f6d696e616e742d626173656c696e653d226d6964646c652220746578742d616e63686f723d226d6964646c6522207374796c653d2266696c6c3a236532653866303b666f6e742d66616d696c793a73657269663b666f6e742d73697a653a33307078223e5375646f6b753c2f746578743e3c2f7376673e",
  "linkReferences": {},
  "deployedLinkReferences": {}
}