{
  "_format": "hh-sol-artifact-1",
  "contractName": "Sudoku",
  "sourceName": "contracts/Sudoku.sol",
  "abi": [
    {
      "inputs": [
        {
          "internalType": "address",
          "name": "_verifierAddr",
          "type": "address"
        }
      ],
      "stateMutability": "nonpayable",
      "type": "constructor"
    },
    {
      "anonymous": false,
      "inputs": [
        {
          "indexed": true,
          "internalType": "address",
          "name": "owner",
          "type": "address"
        },
        {
          "indexed": true,
          "internalType": "address",
          "name": "approved",
          "type": "address"
        },
        {
          "indexed": true,
          "internalType": "uint256",
          "name": "tokenId",
          "type": "uint256"
        }
      ],
      "name": "Approval",
      "type": "event"
    },
    {
      "anonymous": false,
      "inputs": [
        {
          "indexed": true,
          "internalType": "address",
          "name": "owner",
          "type": "address"
        },
        {
          "indexed": true,
          "internalType": "address",
          "name": "operator",
          "type": "address"
        },
        {
          "indexed": false,
          "internalType": "bool",
          "name": "approved",
          "type": "bool"
        }
      ],
      "name": "ApprovalForAll",
      "type": "event"
    },
    {
      "anonymous": false,
      "inputs": [
        {
          "indexed": true,
          "internalType": "address",
          "name": "from",
          "type": "address"
        },
        {
          "indexed": true,
          "internalType": "address",
          "name": "to",
          "type": "address"
        },
        {
          "indexed": true,
          "internalType": "uint256",
          "name": "tokenId",
          "type": "uint256"
        }
      ],
      "name": "Transfer",
      "type": "event"
    },
    {
      "inputs": [
        {
          "internalType": "address",
          "name": "to",
          "type": "address"
        },
        {
          "internalType": "uint256",
          "name": "tokenId",
          "type": "uint256"
        }
      ],
      "name": "approve",
      "outputs": [],
      "stateMutability": "nonpayable",
      "type": "function"
    },
    {
      "inputs": [
        {
          "internalType": "address",
          "name": "owner",
          "type": "address"
        }
      ],
      "name": "balanceOf",
      "outputs": [
        {
          "internalType": "uint256",
          "name": "",
          "type": "uint256"
        }
      ],
      "stateMutability": "view",
      "type": "function"
    },
    {
      "inputs": [],
      "name": "generateSudokuBoard",
      "outputs": [
        {
          "internalType": "uint8[9][9]",
          "name": "",
          "type": "uint8[9][9]"
        }
      ],
      "stateMutability": "view",
      "type": "function"
    },
    {
      "inputs": [
        {
          "internalType": "uint256",
          "name": "tokenId",
          "type": "uint256"
        }
      ],
      "name": "getApproved",
      "outputs": [
        {
          "internalType": "address",
          "name": "",
          "type": "address"
        }
      ],
      "stateMutability": "view",
      "type": "function"
    },
    {
      "inputs": [
        {
          "internalType": "address",
          "name": "owner",
          "type": "address"
        },
        {
          "internalType": "address",
          "name": "operator",
          "type": "address"
        }
      ],
      "name": "isApprovedForAll",
      "outputs": [
        {
          "internalType": "bool",
          "name": "",
          "type": "bool"
        }
      ],
      "stateMutability": "view",
      "type": "function"
    },
    {
      "inputs": [],
      "name": "name",
      "outputs": [
        {
          "internalType": "string",
          "name": "",
          "type": "string"
        }
      ],
      "stateMutability": "view",
      "type": "function"
    },
    {
      "inputs": [
        {
          "internalType": "uint256",
          "name": "tokenId",
          "type": "uint256"
        }
      ],
      "name": "ownerOf",
      "outputs": [
        {
          "internalType": "address",
          "name": "",
          "type": "address"
        }
      ],
      "stateMutability": "view",
      "type": "function"
    },
    {
      "inputs": [
        {
          "internalType": "address",
          "name": "from",
          "type": "address"
        },
        {
          "internalType": "address",
          "name": "to",
          "type": "address"
        },
        {
          "internalType": "uint256",
          "name": "tokenId",
          "type": "uint256"
        }
      ],
      "name": "safeTransferFrom",
      "outputs": [],
      "stateMutability": "nonpayable",
      "type": "function"
    },
    {
      "inputs": [
        {
          "internalType": "address",
          "name": "from",
          "type": "address"
        },
        {
          "internalType": "address",
          "name": "to",
          "type": "address"
        },
        {
          "internalType": "uint256",
          "name": "tokenId",
          "type": "uint256"
        },
        {
          "internalType": "bytes",
          "name": "_data",
          "type": "bytes"
        }
      ],
      "name": "safeTransferFrom",
      "outputs": [],
      "stateMutability": "nonpayable",
      "type": "function"
    },
    {
      "inputs": [
        {
          "internalType": "address",
          "name": "operator",
          "type": "address"
        },
        {
          "internalType": "bool",
          "name": "approved",
          "type": "bool"
        }
      ],
      "name": "setApprovalForAll",
      "outputs": [],
      "stateMutability": "nonpayable",
      "type": "function"
    },
    {
      "inputs": [
        {
          "internalType": "bytes4",
          "name": "interfaceId",
          "type": "bytes4"
        }
      ],
      "name": "supportsInterface",
      "outputs": [
        {
          "internalType": "bool",
          "name": "",
          "type": "bool"
        }
      ],
      "stateMutability": "view",
      "type": "function"
    },
    {
      "inputs": [],
      "name": "symbol",
      "outputs": [
        {
          "internalType": "string",
          "name": "",
          "type": "string"
        }
      ],
      "stateMutability": "view",
      "type": "function"
    },
    {
      "inputs": [
        {
          "internalType": "uint256",
          "name": "tokenId",
          "type": "uint256"
        }
      ],
      "name": "tokenURI",
      "outputs": [
        {
          "internalType": "string",
          "name": "",
          "type": "string"
        }
      ],
      "stateMutability": "view",
      "type": "function"
    },
    {
      "inputs": [
        {
          "internalType": "address",
          "name": "from",
          "type": "address"
        },
        {
          "internalType": "address",
          "name": "to",
          "type": "address"
        },
        {
          "internalType": "uint256",
          "name": "tokenId",
          "type": "uint256"
        }
      ],
      "name": "transferFrom",
      "outputs": [],
      "stateMutability": "nonpayable",
      "type": "function"
    },
    {
      "inputs": [],
      "name": "verifierAddr",
      "outputs": [
        {
          "internalType": "address",
          "name": "",
          "type": "address"
        }
      ],
      "stateMutability": "view",
      "type": "function"
    },
    {
      "inputs": [
        {
          "internalType": "uint256[2]",
          "name": "a",
          "type": "uint256[2]"
        },
        {
          "internalType": "uint256[2][2]",
          "name": "b",
          "type": "uint256[2][2]"
        },
        {
          "internalType": "uint256[2]",
          "name": "c",
          "type": "uint256[2]"
        },
        {
          "internalType": "uint256[81]",
          "name": "input",
          "type": "uint256[81]"
        }
      ],
      "name": "verifyProof",
      "outputs": [
        {
          "internalType": "bool",
          "name": "",
          "type": "bool"
        }
      ],
      "stateMutability": "view",
      "type": "function"
    },
    {
      "inputs": [
        {
          "internalType": "uint256[2]",
          "name": "a",
          "type": "uint256[2]"
        },
        {
          "internalType": "uint256[2][2]",
          "name": "b",
          "type": "uint256[2][2]"
        },
        {
          "internalType": "uint256[2]",
          "name": "c",
          "type": "uint256[2]"
        },
        {
          "internalType": "uint256[81]",
          "name": "input",
          "type": "uint256[81]"
        }
      ],
      "name": "verifySudoku",
      "outputs": [
        {
          "internalType": "bool",
          "name": "",
          "type": "bool"
        }
      ],
      "stateMutability": "view",
      "type": "function"
    },
    {
      "inputs": [
        {
          "internalType": "uint256[2]",
          "name": "a",
          "type": "uint256[2]"
        },
        {
          "internalType": "uint256[2][2]",
          "name": "b",
          "type": "uint256[2][2]"
        },
        {
          "internalType": "uint256[2]",
          "name": "c",
          "type": "uint256[2]"
        },
        {
          "internalType": "uint256[81]",
          "name": "input",
          "type": "uint256[81]"
        }
      ],
      "name": "verifySudokuAndMintNft",
      "outputs": [],
      "stateMutability": "nonpayable",
      "type": "function"
    }
  ],
  "bytecode": "0x60806040526040518060600160405280604051806101200160405280604051806101200160405280600160ff168152602001600260ff168152602001600760ff168152602001600560ff168152602001600860ff168152602001600460ff168152602001600660ff168152602001600960ff168152602001600360ff168152508152602001604051806101200160405280600860ff168152602001600560ff168152602001600660ff168152602001600360ff168152602001600760ff168152602001600960ff168152602001600160ff168152602001600260ff168152602001600460ff168152508152602001604051806101200160405280600360ff168152602001600460ff168152602001600960ff168152602001600660ff168152602001600260ff168152602001600160ff168152602001600860ff168152602001600760ff168152602001600560ff168152508152602001604051806101200160405280600460ff168152602001600760ff168152602001600160ff168152602001600960ff168152602001600560ff168152602001600860ff168152602001600260ff168152602001600360ff168152602001600660ff168152508152602001604051806101200160405280600260ff168152602001600660ff168152602001600860ff168152602001600760ff168152602001600160ff168152602001600360ff168152602001600560ff168152602001600460ff168152602001600960ff168152508152602001604051806101200160405280600960ff168152602001600360ff168152602001600560ff168152602001600460ff168152602001600660ff168152602001600260ff168152602001600760ff168152602001600160ff168152602001600860ff168152508152602001604051806101200160405280600560ff168152602001600860ff168152602001600360ff168152602001600260ff168152602001600960ff168152602001600760ff168152602001600460ff168152602001600660ff168152602001600160ff168152508152602001604051806101200160405280600760ff168152602001600160ff168152602001600460ff168152602001600860ff168152602001600360ff168152602001600660ff168152602001600960ff168152602001600560ff168152602001600260ff168152508152602001604051806101200160405280600660ff168152602001600960ff168152602001600260ff168152602001600160ff168152602001600460ff168152602001600560ff168152602001600360ff168152602001600060ff168152602001600760ff168152508152508152602001604051806101200160405280604051806101200160405280600060ff168152602001600260ff168152602001600760ff168152602001600560ff168152602001600060ff168152602001600460ff168152602001600060ff168152602001600060ff168152602001600060ff168152508152602001604051806101200160405280600060ff168152602001600060ff168152602001600060ff168152602001600360ff168152602001600760ff168152602001600060ff168152602001600060ff168152602001600060ff168152602001600460ff168152508152602001604051806101200160405280600360ff168152602001600060ff168152602001600060ff168152602001600060ff168152602001600060ff168152602001600060ff168152602001600860ff168152602001600060ff168152602001600060ff168152508152602001604051806101200160405280600460ff168152602001600760ff168152602001600060ff168152602001600960ff168152602001600560ff168152602001600860ff168152602001600060ff168152602001600360ff168152602001600660ff168152508152602001604051806101200160405280600260ff168152602001600660ff168152602001600860ff168152602001600760ff168152602001600160ff168152602001600060ff168152602001600060ff168152602001600460ff168152602001600960ff168152508152602001604051806101200160405280600060ff168152602001600060ff168152602001600060ff168152602001600060ff168152602001600060ff168152602001600260ff168152602001600060ff168152602001600160ff168152602001600860ff168152508152602001604051806101200160405280600060ff168152602001600860ff168152602001600360ff168152602001600060ff168152602001600960ff168152602001600060ff168152602001600460ff168152602001600060ff168152602001600060ff168152508152602001604051806101200160405280600760ff168152602001600160ff168152602001600060ff168152602001600060ff168152602001600060ff168152602001600060ff168152602001600960ff168152602001600060ff168152602001600260ff168152508152602001604051806101200160405280600060ff168152602001600060ff168152602001600060ff168152602001600060ff168152602001600060ff168152602001600560ff168152602001600060ff168152602001600060ff168152602001600760ff168152508152508152602001604051806101200160405280604051806101200160405280600060ff168152602001600060ff168152602001600060ff168152602001600060ff168152602001600060ff168152602001600660ff168152602001600060ff168152602001600060ff168152602001600060ff168152508152602001604051806101200160405280600060ff168152602001600060ff168152602001600760ff168152602001600260ff168152602001600060ff168152602001600060ff168152602001600860ff168152602001600060ff168152602001600060ff168152508152602001604051806101200160405280600960ff168152602001600060ff168152602001600660ff168152602001600860ff168152602001600060ff168152602001600060ff168152602001600060ff168152602001600160ff168152602001600060ff168152508152602001604051806101200160405280600360ff168152602001600060ff168152602001600060ff168152602001600760ff168152602001600060ff168152602001600060ff168152602001600060ff168152602001600260ff168152602001600960ff168152508152602001604051806101200160405280600060ff168152602001600060ff168152602001600060ff168152602001600060ff168152602001600060ff168152602001600060ff168152602001600060ff168152602001600060ff168152602001600060ff168152508152602001604051806101200160405280600460ff168152602001600060ff168152602001600060ff168152602001600560ff168152602001600060ff168152602001600060ff168152602001600060ff168152602001600760ff168152602001600060ff168152508152602001604051806101200160405280600660ff168152602001600560ff168152602001600060ff168152602001600160ff168152602001600060ff168152602001600060ff168152602001600060ff168152602001600060ff168152602001600060ff168152508152602001604051806101200160405280600860ff168152602001600060ff168152602001600160ff168152602001600060ff168152602001600560ff168152602001600060ff168152602001600360ff168152602001600060ff168152602001600060ff168152508152602001604051806101200160405280600760ff168152602001600960ff168152602001600260ff168152602001600060ff168152602001600060ff168152602001600060ff168152602001600060ff168152602001600060ff168152602001600460ff16815250815250815250600890600362000b5f92919062000cb0565b5060405180610260016040528061023b81526020016200519661023b91396024908051906020019062000b9492919062000d08565b5034801562000ba257600080fd5b50604051620053d1380380620053d1833981810160405281019062000bc8919062000f31565b6040518060400160405280600981526020017f5375646f6b754e465400000000000000000000000000000000000000000000008152506040518060400160405280600781526020017f7a6b47616d657300000000000000000000000000000000000000000000000000815250816000908051906020019062000c4c92919062000d08565b50806001908051906020019062000c6592919062000d08565b50505080600760006101000a81548173ffffffffffffffffffffffffffffffffffffffff021916908373ffffffffffffffffffffffffffffffffffffffff1602179055505062001010565b826003600902810192821562000cf5579160200282015b8281111562000cf45782518290600962000ce392919062000d99565b509160200191906009019062000cc7565b5b50905062000d04919062000dee565b5090565b82805462000d169062000f91565b90600052602060002090601f01602090048101928262000d3a576000855562000d86565b82601f1062000d5557805160ff191683800117855562000d86565b8280016001018555821562000d86579182015b8281111562000d8557825182559160200191906001019062000d68565b5b50905062000d95919062000e16565b5090565b826009810192821562000ddb579160200282015b8281111562000dda5782518290600962000dc992919062000e35565b509160200191906001019062000dad565b5b50905062000dea919062000ed6565b5090565b5b8082111562000e12576000818162000e08919062000efe565b5060090162000def565b5090565b5b8082111562000e3157600081600090555060010162000e17565b5090565b826009601f0160209004810192821562000ec35791602002820160005b8382111562000e9257835183826101000a81548160ff021916908360ff160217905550926020019260010160208160000104928301926001030262000e52565b801562000ec15782816101000a81549060ff021916905560010160208160000104928301926001030262000e92565b505b50905062000ed2919062000e16565b5090565b5b8082111562000efa576000818162000ef0919062000f13565b5060010162000ed7565b5090565b50806009019062000f10919062000ed6565b50565b5060009055565b60008151905062000f2b8162000ff6565b92915050565b60006020828403121562000f4457600080fd5b600062000f548482850162000f1a565b91505092915050565b600062000f6a8262000f71565b9050919050565b600073ffffffffffffffffffffffffffffffffffffffff82169050919050565b6000600282049050600182168062000faa57607f821691505b6020821081141562000fc15762000fc062000fc7565b5b50919050565b7f4e487b7100000000000000000000000000000000000000000000000000000000600052602260045260246000fd5b620010018162000f5d565b81146200100d57600080fd5b50565b61417680620010206000396000f3fe608060405234801561001057600080fd5b50600436106101165760003560e01c8063663ea2e2116100a2578063b88d4fde11610071578063b88d4fde146102f3578063c0397c671461030f578063c87b56dd1461032b578063e235ad2a1461035b578063e985e9c51461038b57610116565b8063663ea2e21461026b57806370a082311461028957806395d89b41146102b9578063a22cb465146102d757610116565b806323b872dd116100e957806323b872dd146101b55780633a44e53a146101d15780633e7c838f146101ef57806342842e0e1461021f5780636352211e1461023b57610116565b806301ffc9a71461011b57806306fdde031461014b578063081812fc14610169578063095ea7b314610199575b600080fd5b6101356004803603810190610130919061292d565b6103bb565b6040516101429190613206565b60405180910390f35b61015361049d565b6040516101609190613221565b60405180910390f35b610183600480360381019061017e919061297f565b61052f565b604051610190919061313c565b60405180910390f35b6101b360048036038101906101ae9190612863565b6105b4565b005b6101cf60048036038101906101ca919061275d565b6106cc565b005b6101d961072c565b6040516101e691906131a3565b60405180910390f35b6102096004803603810190610204919061289f565b610741565b6040516102169190613206565b60405180910390f35b6102396004803603810190610234919061275d565b6107ac565b005b6102556004803603810190610250919061297f565b6107cc565b604051610262919061313c565b60405180910390f35b61027361087e565b604051610280919061313c565b60405180910390f35b6102a3600480360381019061029e91906126f8565b6108a4565b6040516102b091906134a1565b60405180910390f35b6102c161095c565b6040516102ce9190613221565b60405180910390f35b6102f160048036038101906102ec9190612827565b6109ee565b005b61030d600480360381019061030891906127ac565b610a04565b005b6103296004803603810190610324919061289f565b610a66565b005b6103456004803603810190610340919061297f565b610ad1565b6040516103529190613221565b60405180910390f35b6103756004803603810190610370919061289f565b610c23565b6040516103829190613206565b60405180910390f35b6103a560048036038101906103a09190612721565b610ce0565b6040516103b29190613206565b60405180910390f35b60007f80ac58cd000000000000000000000000000000000000000000000000000000007bffffffffffffffffffffffffffffffffffffffffffffffffffffffff1916827bffffffffffffffffffffffffffffffffffffffffffffffffffffffff1916148061048657507f5b5e139f000000000000000000000000000000000000000000000000000000007bffffffffffffffffffffffffffffffffffffffffffffffffffffffff1916827bffffffffffffffffffffffffffffffffffffffffffffffffffffffff1916145b80610496575061049582610d74565b5b9050919050565b6060600080546104ac9061388b565b80601f01602080910402602001604051908101604052809291908181526020018280546104d89061388b565b80156105255780601f106104fa57610100808354040283529160200191610525565b820191906000526020600020905b81548152906001019060200180831161050857829003601f168201915b5050505050905090565b600061053a82610dde565b610579576040517f08c379a000000000000000000000000000000000000000000000000000000000815260040161057090613421565b60405180910390fd5b6004600083815260200190815260200160002060009054906101000a900473ffffffffffffffffffffffffffffffffffffffff169050919050565b60006105bf826107cc565b90508073ffffffffffffffffffffffffffffffffffffffff168373ffffffffffffffffffffffffffffffffffffffff161415610630576040517f08c379a000000000000000000000000000000000000000000000000000000000815260040161062790613461565b60405180910390fd5b8073ffffffffffffffffffffffffffffffffffffffff1661064f610e4a565b73ffffffffffffffffffffffffffffffffffffffff16148061067e575061067d81610678610e4a565b610ce0565b5b6106bd576040517f08c379a00000000000000000000000000000000000000000000000000000000081526004016106b490613361565b60405180910390fd5b6106c78383610e52565b505050565b6106dd6106d7610e4a565b82610f0b565b61071c576040517f08c379a000000000000000000000000000000000000000000000000000000000815260040161071390613481565b60405180910390fd5b610727838383610fe9565b505050565b610734612380565b61073c611250565b905090565b600061074c82611371565b61075557600080fd5b61076185858585610c23565b6107a0576040517f08c379a000000000000000000000000000000000000000000000000000000000815260040161079790613341565b60405180910390fd5b60019050949350505050565b6107c783838360405180602001604052806000815250610a04565b505050565b6000806002600084815260200190815260200160002060009054906101000a900473ffffffffffffffffffffffffffffffffffffffff169050600073ffffffffffffffffffffffffffffffffffffffff168173ffffffffffffffffffffffffffffffffffffffff161415610875576040517f08c379a000000000000000000000000000000000000000000000000000000000815260040161086c906133a1565b60405180910390fd5b80915050919050565b600760009054906101000a900473ffffffffffffffffffffffffffffffffffffffff1681565b60008073ffffffffffffffffffffffffffffffffffffffff168273ffffffffffffffffffffffffffffffffffffffff161415610915576040517f08c379a000000000000000000000000000000000000000000000000000000000815260040161090c90613381565b60405180910390fd5b600360008373ffffffffffffffffffffffffffffffffffffffff1673ffffffffffffffffffffffffffffffffffffffff168152602001908152602001600020549050919050565b60606001805461096b9061388b565b80601f01602080910402602001604051908101604052809291908181526020018280546109979061388b565b80156109e45780601f106109b9576101008083540402835291602001916109e4565b820191906000526020600020905b8154815290600101906020018083116109c757829003601f168201915b5050505050905090565b610a006109f9610e4a565b83836115d8565b5050565b610a15610a0f610e4a565b83610f0b565b610a54576040517f08c379a0000000000000000000000000000000000000000000000000000000008152600401610a4b90613481565b60405180910390fd5b610a6084848484611745565b50505050565b610a6f81611371565b610a7857600080fd5b610a8484848484610c23565b610ac3576040517f08c379a0000000000000000000000000000000000000000000000000000000008152600401610aba90613341565b60405180910390fd5b610acb6117a1565b50505050565b6060610adc82610dde565b610b1b576040517f08c379a0000000000000000000000000000000000000000000000000000000008152600401610b1290613401565b60405180910390fd5b6000600660008481526020019081526020016000208054610b3b9061388b565b80601f0160208091040260200160405190810160405280929190818152602001828054610b679061388b565b8015610bb45780601f10610b8957610100808354040283529160200191610bb4565b820191906000526020600020905b815481529060010190602001808311610b9757829003601f168201915b505050505090506000610bc561197b565b9050600081511415610bdb578192505050610c1e565b600082511115610c10578082604051602001610bf8929190613054565b60405160208183030381529060405292505050610c1e565b610c1984611992565b925050505b919050565b6000600760009054906101000a900473ffffffffffffffffffffffffffffffffffffffff1673ffffffffffffffffffffffffffffffffffffffff1663e235ad2a868686866040518563ffffffff1660e01b8152600401610c8694939291906131bf565b60206040518083038186803b158015610c9e57600080fd5b505afa158015610cb2573d6000803e3d6000fd5b505050506040513d601f19601f82011682018060405250810190610cd69190612904565b9050949350505050565b6000600560008473ffffffffffffffffffffffffffffffffffffffff1673ffffffffffffffffffffffffffffffffffffffff16815260200190815260200160002060008373ffffffffffffffffffffffffffffffffffffffff1673ffffffffffffffffffffffffffffffffffffffff16815260200190815260200160002060009054906101000a900460ff16905092915050565b60007f01ffc9a7000000000000000000000000000000000000000000000000000000007bffffffffffffffffffffffffffffffffffffffffffffffffffffffff1916827bffffffffffffffffffffffffffffffffffffffffffffffffffffffff1916149050919050565b60008073ffffffffffffffffffffffffffffffffffffffff166002600084815260200190815260200160002060009054906101000a900473ffffffffffffffffffffffffffffffffffffffff1673ffffffffffffffffffffffffffffffffffffffff1614159050919050565b600033905090565b816004600083815260200190815260200160002060006101000a81548173ffffffffffffffffffffffffffffffffffffffff021916908373ffffffffffffffffffffffffffffffffffffffff160217905550808273ffffffffffffffffffffffffffffffffffffffff16610ec5836107cc565b73ffffffffffffffffffffffffffffffffffffffff167f8c5be1e5ebec7d5bd14f71427d1e84f3dd0314c0f7b2291e5b200ac8c7c3b92560405160405180910390a45050565b6000610f1682610dde565b610f55576040517f08c379a0000000000000000000000000000000000000000000000000000000008152600401610f4c90613321565b60405180910390fd5b6000610f60836107cc565b90508073ffffffffffffffffffffffffffffffffffffffff168473ffffffffffffffffffffffffffffffffffffffff161480610fcf57508373ffffffffffffffffffffffffffffffffffffffff16610fb78461052f565b73ffffffffffffffffffffffffffffffffffffffff16145b80610fe05750610fdf8185610ce0565b5b91505092915050565b8273ffffffffffffffffffffffffffffffffffffffff16611009826107cc565b73ffffffffffffffffffffffffffffffffffffffff161461105f576040517f08c379a0000000000000000000000000000000000000000000000000000000008152600401611056906132a1565b60405180910390fd5b600073ffffffffffffffffffffffffffffffffffffffff168273ffffffffffffffffffffffffffffffffffffffff1614156110cf576040517f08c379a00000000000000000000000000000000000000000000000000000000081526004016110c6906132e1565b60405180910390fd5b6110da838383611a39565b6110e5600082610e52565b6001600360008573ffffffffffffffffffffffffffffffffffffffff1673ffffffffffffffffffffffffffffffffffffffff16815260200190815260200160002060008282546111359190613794565b925050819055506001600360008473ffffffffffffffffffffffffffffffffffffffff1673ffffffffffffffffffffffffffffffffffffffff168152602001908152602001600020600082825461118c91906136b3565b92505081905550816002600083815260200190815260200160002060006101000a81548173ffffffffffffffffffffffffffffffffffffffff021916908373ffffffffffffffffffffffffffffffffffffffff160217905550808273ffffffffffffffffffffffffffffffffffffffff168473ffffffffffffffffffffffffffffffffffffffff167fddf252ad1be2c89b69c2b068fc378daa952ba7f163c4a11628f55a4df523b3ef60405160405180910390a461124b838383611a3e565b505050565b611258612380565b60006003444233604051602001611271939291906130ff565b6040516020818303038152906040528051906020012060001c6112949190613965565b9050600881600381106112d0577f4e487b7100000000000000000000000000000000000000000000000000000000600052603260045260246000fd5b60090201600980602002604051908101604052809291906000905b8282101561136757838201600980602002604051908101604052809291908260098015611353576020028201916000905b82829054906101000a900460ff1660ff168152602001906001019060208260000104928301926001038202915080841161131c5790505b5050505050815260200190600101906112eb565b5050505091505090565b6000806001905060005b60038110156115cd576001915060005b600882600381106113c5577f4e487b7100000000000000000000000000000000000000000000000000000000600052603260045260246000fd5b505060098110156115a25760005b6008836003811061140d577f4e487b7100000000000000000000000000000000000000000000000000000000600052603260045260246000fd5b600902018260098110611449577f4e487b7100000000000000000000000000000000000000000000000000000000600052603260045260246000fd5b5050600981101561158e576008836003811061148e577f4e487b7100000000000000000000000000000000000000000000000000000000600052603260045260246000fd5b6009020182600981106114ca577f4e487b7100000000000000000000000000000000000000000000000000000000600052603260045260246000fd5b018160098110611503577f4e487b7100000000000000000000000000000000000000000000000000000000600052603260045260246000fd5b602091828204019190069054906101000a900460ff1660ff16868284600961152b919061373a565b61153591906136b3565b6051811061156c577f4e487b7100000000000000000000000000000000000000000000000000000000600052603260045260246000fd5b60200201511461157b57600093505b8080611586906138ee565b9150506113d3565b50808061159a906138ee565b91505061138b565b506001151582151514156115ba5781925050506115d3565b80806115c5906138ee565b91505061137b565b50809150505b919050565b8173ffffffffffffffffffffffffffffffffffffffff168373ffffffffffffffffffffffffffffffffffffffff161415611647576040517f08c379a000000000000000000000000000000000000000000000000000000000815260040161163e90613301565b60405180910390fd5b80600560008573ffffffffffffffffffffffffffffffffffffffff1673ffffffffffffffffffffffffffffffffffffffff16815260200190815260200160002060008473ffffffffffffffffffffffffffffffffffffffff1673ffffffffffffffffffffffffffffffffffffffff16815260200190815260200160002060006101000a81548160ff0219169083151502179055508173ffffffffffffffffffffffffffffffffffffffff168373ffffffffffffffffffffffffffffffffffffffff167f17307eab39ab6107e8899845ad3d59bd9653f200f220920489ca2b5937696c31836040516117389190613206565b60405180910390a3505050565b611750848484610fe9565b61175c84848484611a43565b61179b576040517f08c379a000000000000000000000000000000000000000000000000000000000815260040161179290613281565b60405180910390fd5b50505050565b60006117ad6023611bda565b9050600061186b611847602480546117c49061388b565b80601f01602080910402602001604051908101604052809291908181526020018280546117f09061388b565b801561183d5780601f106118125761010080835404028352916020019161183d565b820191906000526020600020905b81548152906001019060200180831161182057829003601f168201915b5050505050611be8565b604051602001611857919061309a565b604051602081830303815290604052611be8565b905060008160405160200161188091906130dd565b60405160208183030381529060405290506118cf6040518060400160405280601581526020017f0a2d2d2d2d2d2d2d2d2d2d2d2d2d2d2d2d2d2d2d2d0000000000000000000000815250611d72565b6118f7816040516020016118e39190613078565b604051602081830303815290604052611d72565b6119356040518060400160405280601581526020017f2d2d2d2d2d2d2d2d2d2d2d2d2d2d2d2d2d2d2d2d0a0000000000000000000000815250611d72565b61193f3384611e0b565b6119498382611e29565b6119536023611e9d565b6119766040518060600160405280602581526020016140dc602591398433611eb3565b505050565b606060405180602001604052806000815250905090565b606061199d82610dde565b6119dc576040517f08c379a00000000000000000000000000000000000000000000000000000000081526004016119d390613441565b60405180910390fd5b60006119e661197b565b90506000815111611a065760405180602001604052806000815250611a31565b80611a1084611f52565b604051602001611a21929190613054565b6040516020818303038152906040525b915050919050565b505050565b505050565b6000611a648473ffffffffffffffffffffffffffffffffffffffff166120ff565b15611bcd578373ffffffffffffffffffffffffffffffffffffffff1663150b7a02611a8d610e4a565b8786866040518563ffffffff1660e01b8152600401611aaf9493929190613157565b602060405180830381600087803b158015611ac957600080fd5b505af1925050508015611afa57506040513d601f19601f82011682018060405250810190611af79190612956565b60015b611b7d573d8060008114611b2a576040519150601f19603f3d011682016040523d82523d6000602084013e611b2f565b606091505b50600081511415611b75576040517f08c379a0000000000000000000000000000000000000000000000000000000008152600401611b6c90613281565b60405180910390fd5b805181602001fd5b63150b7a0260e01b7bffffffffffffffffffffffffffffffffffffffffffffffffffffffff1916817bffffffffffffffffffffffffffffffffffffffffffffffffffffffff191614915050611bd2565b600190505b949350505050565b600081600001549050919050565b6060600082511415611c0b57604051806020016040528060008152509050611d6d565b60006040518060600160405280604081526020016141016040913990506000600360028551611c3a91906136b3565b611c449190613709565b6004611c50919061373a565b67ffffffffffffffff811115611c8f577f4e487b7100000000000000000000000000000000000000000000000000000000600052604160045260246000fd5b6040519080825280601f01601f191660200182016040528015611cc15781602001600182028036833780820191505090505b509050600182016020820185865187015b80821015611d2d576003820191508151603f8160121c168501518453600184019350603f81600c1c168501518453600184019350603f8160061c168501518453600184019350603f8116850151845360018401935050611cd2565b5050600386510660018114611d495760028114611d5c57611d64565b603d6001830353603d6002830353611d64565b603d60018303535b50505080925050505b919050565b611e0881604051602401611d869190613221565b6040516020818303038152906040527f41304fac000000000000000000000000000000000000000000000000000000007bffffffffffffffffffffffffffffffffffffffffffffffffffffffff19166020820180517bffffffffffffffffffffffffffffffffffffffffffffffffffffffff8381831617835250505050612122565b50565b611e2582826040518060200160405280600081525061214b565b5050565b611e3282610dde565b611e71576040517f08c379a0000000000000000000000000000000000000000000000000000000008152600401611e68906133c1565b60405180910390fd5b80600660008481526020019081526020016000209080519060200190611e989291906123ae565b505050565b6001816000016000828254019250508190555050565b611f4d838383604051602401611ecb93929190613243565b6040516020818303038152906040527fe3849f79000000000000000000000000000000000000000000000000000000007bffffffffffffffffffffffffffffffffffffffffffffffffffffffff19166020820180517bffffffffffffffffffffffffffffffffffffffffffffffffffffffff8381831617835250505050612122565b505050565b60606000821415611f9a576040518060400160405280600181526020017f300000000000000000000000000000000000000000000000000000000000000081525090506120fa565b600082905060005b60008214611fcc578080611fb5906138ee565b915050600a82611fc59190613709565b9150611fa2565b60008167ffffffffffffffff81111561200e577f4e487b7100000000000000000000000000000000000000000000000000000000600052604160045260246000fd5b6040519080825280601f01601f1916602001820160405280156120405781602001600182028036833780820191505090505b5090505b600085146120f3576001826120599190613794565b9150600a856120689190613965565b603061207491906136b3565b60f81b8183815181106120b0577f4e487b7100000000000000000000000000000000000000000000000000000000600052603260045260246000fd5b60200101907effffffffffffffffffffffffffffffffffffffffffffffffffffffffffffff1916908160001a905350600a856120ec9190613709565b9450612044565b8093505050505b919050565b6000808273ffffffffffffffffffffffffffffffffffffffff163b119050919050565b60008151905060006a636f6e736f6c652e6c6f679050602083016000808483855afa5050505050565b61215583836121a6565b6121626000848484611a43565b6121a1576040517f08c379a000000000000000000000000000000000000000000000000000000000815260040161219890613281565b60405180910390fd5b505050565b600073ffffffffffffffffffffffffffffffffffffffff168273ffffffffffffffffffffffffffffffffffffffff161415612216576040517f08c379a000000000000000000000000000000000000000000000000000000000815260040161220d906133e1565b60405180910390fd5b61221f81610dde565b1561225f576040517f08c379a0000000000000000000000000000000000000000000000000000000008152600401612256906132c1565b60405180910390fd5b61226b60008383611a39565b6001600360008473ffffffffffffffffffffffffffffffffffffffff1673ffffffffffffffffffffffffffffffffffffffff16815260200190815260200160002060008282546122bb91906136b3565b92505081905550816002600083815260200190815260200160002060006101000a81548173ffffffffffffffffffffffffffffffffffffffff021916908373ffffffffffffffffffffffffffffffffffffffff160217905550808273ffffffffffffffffffffffffffffffffffffffff16600073ffffffffffffffffffffffffffffffffffffffff167fddf252ad1be2c89b69c2b068fc378daa952ba7f163c4a11628f55a4df523b3ef60405160405180910390a461237c60008383611a3e565b5050565b6040518061012001604052806009905b612398612434565b8152602001906001900390816123905790505090565b8280546123ba9061388b565b90600052602060002090601f0160209004810192826123dc5760008555612423565b82601f106123f557805160ff1916838001178555612423565b82800160010185558215612423579182015b82811115612422578251825591602001919060010190612407565b5b5090506124309190612457565b5090565b604051806101200160405280600990602082028036833780820191505090505090565b5b80821115612470576000816000905550600101612458565b5090565b6000612487612482846134e1565b6134bc565b9050808285604086028201111561249d57600080fd5b60005b858110156124cd57816124b38882612617565b8452602084019350604083019250506001810190506124a0565b5050509392505050565b60006124ea6124e584613507565b6134bc565b9050808285602086028201111561250057600080fd5b60005b85811015612530578161251688826126e3565b845260208401935060208301925050600181019050612503565b5050509392505050565b600061254d6125488461352d565b6134bc565b9050808285602086028201111561256357600080fd5b60005b85811015612593578161257988826126e3565b845260208401935060208301925050600181019050612566565b5050509392505050565b60006125b06125ab84613553565b6134bc565b9050828152602081018484840111156125c857600080fd5b6125d3848285613849565b509392505050565b6000813590506125ea8161407f565b92915050565b600082601f83011261260157600080fd5b600261260e848285612474565b91505092915050565b600082601f83011261262857600080fd5b60026126358482856124d7565b91505092915050565b600082601f83011261264f57600080fd5b605161265c84828561253a565b91505092915050565b60008135905061267481614096565b92915050565b60008151905061268981614096565b92915050565b60008135905061269e816140ad565b92915050565b6000815190506126b3816140ad565b92915050565b600082601f8301126126ca57600080fd5b81356126da84826020860161259d565b91505092915050565b6000813590506126f2816140c4565b92915050565b60006020828403121561270a57600080fd5b6000612718848285016125db565b91505092915050565b6000806040838503121561273457600080fd5b6000612742858286016125db565b9250506020612753858286016125db565b9150509250929050565b60008060006060848603121561277257600080fd5b6000612780868287016125db565b9350506020612791868287016125db565b92505060406127a2868287016126e3565b9150509250925092565b600080600080608085870312156127c257600080fd5b60006127d0878288016125db565b94505060206127e1878288016125db565b93505060406127f2878288016126e3565b925050606085013567ffffffffffffffff81111561280f57600080fd5b61281b878288016126b9565b91505092959194509250565b6000806040838503121561283a57600080fd5b6000612848858286016125db565b925050602061285985828601612665565b9150509250929050565b6000806040838503121561287657600080fd5b6000612884858286016125db565b9250506020612895858286016126e3565b9150509250929050565b600080600080610b2085870312156128b657600080fd5b60006128c487828801612617565b94505060406128d5878288016125f0565b93505060c06128e687828801612617565b9250506101006128f88782880161263e565b91505092959194509250565b60006020828403121561291657600080fd5b60006129248482850161267a565b91505092915050565b60006020828403121561293f57600080fd5b600061294d8482850161268f565b91505092915050565b60006020828403121561296857600080fd5b6000612976848285016126a4565b91505092915050565b60006020828403121561299157600080fd5b600061299f848285016126e3565b91505092915050565b60006129b48383612add565b60408301905092915050565b60006129cc8383612be2565b6101208301905092915050565b60006129e58383613010565b60208301905092915050565b60006129fd8383613045565b60208301905092915050565b612a12816137c8565b82525050565b612a29612a24826137c8565b613937565b82525050565b612a38816135b6565b612a428184613644565b9250612a4d82613584565b8060005b83811015612a7e578151612a6587826129a8565b9650612a7083613603565b925050600181019050612a51565b505050505050565b612a8f816135c1565b612a99818461364f565b9250612aa48261358e565b8060005b83811015612ad5578151612abc87826129c0565b9650612ac783613610565b925050600181019050612aa8565b505050505050565b612ae6816135cc565b612af0818461365a565b9250612afb82613598565b8060005b83811015612b2c578151612b1387826129d9565b9650612b1e8361361d565b925050600181019050612aff565b505050505050565b612b3d816135cc565b612b478184613665565b9250612b5282613598565b8060005b83811015612b83578151612b6a87826129d9565b9650612b758361361d565b925050600181019050612b56565b505050505050565b612b94816135d7565b612b9e8184613670565b9250612ba9826135a2565b8060005b83811015612bda578151612bc187826129d9565b9650612bcc8361362a565b925050600181019050612bad565b505050505050565b612beb816135e2565b612bf5818461367b565b9250612c00826135ac565b8060005b83811015612c31578151612c1887826129f1565b9650612c2383613637565b925050600181019050612c04565b505050505050565b612c42816137da565b82525050565b6000612c53826135ed565b612c5d8185613686565b9350612c6d818560208601613858565b612c7681613a52565b840191505092915050565b6000612c8c826135f8565b612c968185613697565b9350612ca6818560208601613858565b612caf81613a52565b840191505092915050565b6000612cc5826135f8565b612ccf81856136a8565b9350612cdf818560208601613858565b80840191505092915050565b6000612cf86006836136a8565b9150612d0382613a70565b600682019050919050565b6000612d1b6025836136a8565b9150612d2682613a99565b602582019050919050565b6000612d3e603283613697565b9150612d4982613ae8565b604082019050919050565b6000612d61602583613697565b9150612d6c82613b37565b604082019050919050565b6000612d84601c83613697565b9150612d8f82613b86565b602082019050919050565b6000612da7602483613697565b9150612db282613baf565b604082019050919050565b6000612dca601983613697565b9150612dd582613bfe565b602082019050919050565b6000612ded602c83613697565b9150612df882613c27565b604082019050919050565b6000612e10601183613697565b9150612e1b82613c76565b602082019050919050565b6000612e33603883613697565b9150612e3e82613c9f565b604082019050919050565b6000612e56602a83613697565b9150612e6182613cee565b604082019050919050565b6000612e79602983613697565b9150612e8482613d3d565b604082019050919050565b6000612e9c602e83613697565b9150612ea782613d8c565b604082019050919050565b6000612ebf6002836136a8565b9150612eca82613ddb565b600282019050919050565b6000612ee2602083613697565b9150612eed82613e04565b602082019050919050565b6000612f05603183613697565b9150612f1082613e2d565b604082019050919050565b6000612f28602c83613697565b9150612f3382613e7c565b604082019050919050565b6000612f4b602f83613697565b9150612f5682613ecb565b604082019050919050565b6000612f6e600a836136a8565b9150612f7982613f1a565b600a82019050919050565b6000612f916053836136a8565b9150612f9c82613f43565b605382019050919050565b6000612fb4602183613697565b9150612fbf82613fb8565b604082019050919050565b6000612fd7601d836136a8565b9150612fe282614007565b601d82019050919050565b6000612ffa603183613697565b915061300582614030565b604082019050919050565b61301981613832565b82525050565b61302881613832565b82525050565b61303f61303a82613832565b61395b565b82525050565b61304e8161383c565b82525050565b60006130608285612cba565b915061306c8284612cba565b91508190509392505050565b600061308382612d0e565b915061308f8284612cba565b915081905092915050565b60006130a582612f61565b91506130b082612ceb565b91506130bb82612f84565b91506130c78284612cba565b91506130d282612eb2565b915081905092915050565b60006130e882612fca565b91506130f48284612cba565b915081905092915050565b600061310b828661302e565b60208201915061311b828561302e565b60208201915061312b8284612a18565b601482019150819050949350505050565b60006020820190506131516000830184612a09565b92915050565b600060808201905061316c6000830187612a09565b6131796020830186612a09565b613186604083018561301f565b81810360608301526131988184612c48565b905095945050505050565b6000610a20820190506131b96000830184612a86565b92915050565b6000610b20820190506131d56000830187612b34565b6131e26040830186612a2f565b6131ef60c0830185612b34565b6131fd610100830184612b8b565b95945050505050565b600060208201905061321b6000830184612c39565b92915050565b6000602082019050818103600083015261323b8184612c81565b905092915050565b6000606082019050818103600083015261325d8186612c81565b905061326c602083018561301f565b6132796040830184612a09565b949350505050565b6000602082019050818103600083015261329a81612d31565b9050919050565b600060208201905081810360008301526132ba81612d54565b9050919050565b600060208201905081810360008301526132da81612d77565b9050919050565b600060208201905081810360008301526132fa81612d9a565b9050919050565b6000602082019050818103600083015261331a81612dbd565b9050919050565b6000602082019050818103600083015261333a81612de0565b9050919050565b6000602082019050818103600083015261335a81612e03565b9050919050565b6000602082019050818103600083015261337a81612e26565b9050919050565b6000602082019050818103600083015261339a81612e49565b9050919050565b600060208201905081810360008301526133ba81612e6c565b9050919050565b600060208201905081810360008301526133da81612e8f565b9050919050565b600060208201905081810360008301526133fa81612ed5565b9050919050565b6000602082019050818103600083015261341a81612ef8565b9050919050565b6000602082019050818103600083015261343a81612f1b565b9050919050565b6000602082019050818103600083015261345a81612f3e565b9050919050565b6000602082019050818103600083015261347a81612fa7565b9050919050565b6000602082019050818103600083015261349a81612fed565b9050919050565b60006020820190506134b6600083018461301f565b92915050565b60006134c66134d7565b90506134d282826138bd565b919050565b6000604051905090565b600067ffffffffffffffff8211156134fc576134fb613a23565b5b602082029050919050565b600067ffffffffffffffff82111561352257613521613a23565b5b602082029050919050565b600067ffffffffffffffff82111561354857613547613a23565b5b602082029050919050565b600067ffffffffffffffff82111561356e5761356d613a23565b5b61357782613a52565b9050602081019050919050565b6000819050919050565b6000819050919050565b6000819050919050565b6000819050919050565b6000819050919050565b600060029050919050565b600060099050919050565b600060029050919050565b600060519050919050565b600060099050919050565b600081519050919050565b600081519050919050565b6000602082019050919050565b6000602082019050919050565b6000602082019050919050565b6000602082019050919050565b6000602082019050919050565b600081905092915050565b600081905092915050565b600081905092915050565b600081905092915050565b600081905092915050565b600081905092915050565b600082825260208201905092915050565b600082825260208201905092915050565b600081905092915050565b60006136be82613832565b91506136c983613832565b9250827fffffffffffffffffffffffffffffffffffffffffffffffffffffffffffffffff038211156136fe576136fd613996565b5b828201905092915050565b600061371482613832565b915061371f83613832565b92508261372f5761372e6139c5565b5b828204905092915050565b600061374582613832565b915061375083613832565b9250817fffffffffffffffffffffffffffffffffffffffffffffffffffffffffffffffff048311821515161561378957613788613996565b5b828202905092915050565b600061379f82613832565b91506137aa83613832565b9250828210156137bd576137bc613996565b5b828203905092915050565b60006137d382613812565b9050919050565b60008115159050919050565b60007fffffffff0000000000000000000000000000000000000000000000000000000082169050919050565b600073ffffffffffffffffffffffffffffffffffffffff82169050919050565b6000819050919050565b600060ff82169050919050565b82818337600083830152505050565b60005b8381101561387657808201518184015260208101905061385b565b83811115613885576000848401525b50505050565b600060028204905060018216806138a357607f821691505b602082108114156138b7576138b66139f4565b5b50919050565b6138c682613a52565b810181811067ffffffffffffffff821117156138e5576138e4613a23565b5b80604052505050565b60006138f982613832565b91507fffffffffffffffffffffffffffffffffffffffffffffffffffffffffffffffff82141561392c5761392b613996565b5b600182019050919050565b600061394282613949565b9050919050565b600061395482613a63565b9050919050565b6000819050919050565b600061397082613832565b915061397b83613832565b92508261398b5761398a6139c5565b5b828206905092915050565b7f4e487b7100000000000000000000000000000000000000000000000000000000600052601160045260246000fd5b7f4e487b7100000000000000000000000000000000000000000000000000000000600052601260045260246000fd5b7f4e487b7100000000000000000000000000000000000000000000000000000000600052602260045260246000fd5b7f4e487b7100000000000000000000000000000000000000000000000000000000600052604160045260246000fd5b6000601f19601f8301169050919050565b60008160601b9050919050565b7f5375646f6b750000000000000000000000000000000000000000000000000000600082015250565b7f68747470733a2f2f6e6674707265766965772e30786465762e636f6465732f3f60008201527f636f64653d000000000000000000000000000000000000000000000000000000602082015250565b7f4552433732313a207472616e7366657220746f206e6f6e20455243373231526560008201527f63656976657220696d706c656d656e7465720000000000000000000000000000602082015250565b7f4552433732313a207472616e736665722066726f6d20696e636f72726563742060008201527f6f776e6572000000000000000000000000000000000000000000000000000000602082015250565b7f4552433732313a20746f6b656e20616c7265616479206d696e74656400000000600082015250565b7f4552433732313a207472616e7366657220746f20746865207a65726f2061646460008201527f7265737300000000000000000000000000000000000000000000000000000000602082015250565b7f4552433732313a20617070726f766520746f2063616c6c657200000000000000600082015250565b7f4552433732313a206f70657261746f7220717565727920666f72206e6f6e657860008201527f697374656e7420746f6b656e0000000000000000000000000000000000000000602082015250565b7f46696c65642070726f6f6620636865636b000000000000000000000000000000600082015250565b7f4552433732313a20617070726f76652063616c6c6572206973206e6f74206f7760008201527f6e6572206e6f7220617070726f76656420666f7220616c6c0000000000000000602082015250565b7f4552433732313a2062616c616e636520717565727920666f7220746865207a6560008201527f726f206164647265737300000000000000000000000000000000000000000000602082015250565b7f4552433732313a206f776e657220717565727920666f72206e6f6e657869737460008201527f656e7420746f6b656e0000000000000000000000000000000000000000000000602082015250565b7f45524337323155524953746f726167653a2055524920736574206f66206e6f6e60008201527f6578697374656e7420746f6b656e000000000000000000000000000000000000602082015250565b7f227d000000000000000000000000000000000000000000000000000000000000600082015250565b7f4552433732313a206d696e7420746f20746865207a65726f2061646472657373600082015250565b7f45524337323155524953746f726167653a2055524920717565727920666f722060008201527f6e6f6e6578697374656e7420746f6b656e000000000000000000000000000000602082015250565b7f4552433732313a20617070726f76656420717565727920666f72206e6f6e657860008201527f697374656e7420746f6b656e0000000000000000000000000000000000000000602082015250565b7f4552433732314d657461646174613a2055524920717565727920666f72206e6f60008201527f6e6578697374656e7420746f6b656e0000000000000000000000000000000000602082015250565b7f7b226e616d65223a202200000000000000000000000000000000000000000000600082015250565b7f222c20226465736372697074696f6e223a2022536f6c766564205375646f6b7560008201527f206f6e207a6b47616d65732e222c2022696d616765223a2022646174613a696d60208201527f6167652f7376672b786d6c3b6261736536342c00000000000000000000000000604082015250565b7f4552433732313a20617070726f76616c20746f2063757272656e74206f776e6560008201527f7200000000000000000000000000000000000000000000000000000000000000602082015250565b7f646174613a6170706c69636174696f6e2f6a736f6e3b6261736536342c000000600082015250565b7f4552433732313a207472616e736665722063616c6c6572206973206e6f74206f60008201527f776e6572206e6f7220617070726f766564000000000000000000000000000000602082015250565b614088816137c8565b811461409357600080fd5b50565b61409f816137da565b81146140aa57600080fd5b50565b6140b6816137e6565b81146140c157600080fd5b50565b6140cd81613832565b81146140d857600080fd5b5056fe416e204e465420772f20494420257320686173206265656e206d696e74656420746f2025734142434445464748494a4b4c4d4e4f505152535455565758595a6162636465666768696a6b6c6d6e6f707172737475767778797a303132333435363738392b2fa2646970667358221220cb202311971f1f9fca91568c5aee740e634255944602a12e55a7d0041b5dca3f64736f6c634300080400333c7376672077696474683d2233353022206865696768743d22333530222076696577426f783d2230203020333530203335302220786d6c6e733d22687474703a2f2f7777772e77332e6f72672f323030302f737667223e3c646566733e3c6c696e6561724772616469656e742069643d2261222078313d2230222079313d2230222078323d22323730222079323d2232373022206772616469656e74556e6974733d227573657253706163654f6e557365223e3c73746f702073746f702d636f6c6f723d2223393333336561222f3e3c73746f70206f66667365743d2231222073746f702d636f6c6f723d2223346634366535222073746f702d6f7061636974793d222e3939222f3e3c2f6c696e6561724772616469656e743e3c2f646566733e3c726563742077696474683d223130302522206865696768743d2231303025222066696c6c3d2275726c28236129222f3e3c7465787420783d223830252220793d2239352522207374796c653d2266696c6c3a233066313732613b666f6e742d66616d696c793a73657269663b666f6e742d73697a653a31357078223e7a6b47616d65733c2f746578743e3c7465787420783d223530252220793d223530252220646f6d696e616e742d626173656c696e653d226d6964646c652220746578742d616e63686f723d226d6964646c6522207374796c653d2266696c6c3a236532653866303b666f6e742d66616d696c793a73657269663b666f6e742d73697a653a33307078223e5375646f6b753c2f746578743e3c2f7376673e",
  "linkReferences": {},
  "deployedLinkReferences": {}
}