{
  "_format": "hh-sol-artifact-1",
  "contractName": "Sudoku",
  "sourceName": "contracts/Sudoku/Sudoku.sol",
  "abi": [
    {
      "inputs": [
        {
          "internalType": "address",
          "name": "_verifierAddr",
          "type": "address"
        }
      ],
      "stateMutability": "nonpayable",
      "type": "constructor"
    },
    {
      "anonymous": false,
      "inputs": [
        {
          "indexed": true,
          "internalType": "address",
          "name": "owner",
          "type": "address"
        },
        {
          "indexed": true,
          "internalType": "address",
          "name": "approved",
          "type": "address"
        },
        {
          "indexed": true,
          "internalType": "uint256",
          "name": "tokenId",
          "type": "uint256"
        }
      ],
      "name": "Approval",
      "type": "event"
    },
    {
      "anonymous": false,
      "inputs": [
        {
          "indexed": true,
          "internalType": "address",
          "name": "owner",
          "type": "address"
        },
        {
          "indexed": true,
          "internalType": "address",
          "name": "operator",
          "type": "address"
        },
        {
          "indexed": false,
          "internalType": "bool",
          "name": "approved",
          "type": "bool"
        }
      ],
      "name": "ApprovalForAll",
      "type": "event"
    },
    {
      "anonymous": false,
      "inputs": [
        {
          "indexed": true,
          "internalType": "address",
          "name": "from",
          "type": "address"
        },
        {
          "indexed": true,
          "internalType": "address",
          "name": "to",
          "type": "address"
        },
        {
          "indexed": true,
          "internalType": "uint256",
          "name": "tokenId",
          "type": "uint256"
        }
      ],
      "name": "Transfer",
      "type": "event"
    },
    {
      "inputs": [
        {
          "internalType": "address",
          "name": "to",
          "type": "address"
        },
        {
          "internalType": "uint256",
          "name": "tokenId",
          "type": "uint256"
        }
      ],
      "name": "approve",
      "outputs": [],
      "stateMutability": "nonpayable",
      "type": "function"
    },
    {
      "inputs": [
        {
          "internalType": "address",
          "name": "owner",
          "type": "address"
        }
      ],
      "name": "balanceOf",
      "outputs": [
        {
          "internalType": "uint256",
          "name": "",
          "type": "uint256"
        }
      ],
      "stateMutability": "view",
      "type": "function"
    },
    {
      "inputs": [
        {
          "internalType": "string",
          "name": "stringTime",
          "type": "string"
        }
      ],
      "name": "generateSudokuBoard",
      "outputs": [
        {
          "internalType": "uint8[9][9]",
          "name": "",
          "type": "uint8[9][9]"
        }
      ],
      "stateMutability": "view",
      "type": "function"
    },
    {
      "inputs": [
        {
          "internalType": "uint256",
          "name": "tokenId",
          "type": "uint256"
        }
      ],
      "name": "getApproved",
      "outputs": [
        {
          "internalType": "address",
          "name": "",
          "type": "address"
        }
      ],
      "stateMutability": "view",
      "type": "function"
    },
    {
      "inputs": [
        {
          "internalType": "address",
          "name": "owner",
          "type": "address"
        },
        {
          "internalType": "address",
          "name": "operator",
          "type": "address"
        }
      ],
      "name": "isApprovedForAll",
      "outputs": [
        {
          "internalType": "bool",
          "name": "",
          "type": "bool"
        }
      ],
      "stateMutability": "view",
      "type": "function"
    },
    {
      "inputs": [],
      "name": "name",
      "outputs": [
        {
          "internalType": "string",
          "name": "",
          "type": "string"
        }
      ],
      "stateMutability": "view",
      "type": "function"
    },
    {
      "inputs": [
        {
          "internalType": "uint256",
          "name": "tokenId",
          "type": "uint256"
        }
      ],
      "name": "ownerOf",
      "outputs": [
        {
          "internalType": "address",
          "name": "",
          "type": "address"
        }
      ],
      "stateMutability": "view",
      "type": "function"
    },
    {
      "inputs": [
        {
          "internalType": "address",
          "name": "from",
          "type": "address"
        },
        {
          "internalType": "address",
          "name": "to",
          "type": "address"
        },
        {
          "internalType": "uint256",
          "name": "tokenId",
          "type": "uint256"
        }
      ],
      "name": "safeTransferFrom",
      "outputs": [],
      "stateMutability": "nonpayable",
      "type": "function"
    },
    {
      "inputs": [
        {
          "internalType": "address",
          "name": "from",
          "type": "address"
        },
        {
          "internalType": "address",
          "name": "to",
          "type": "address"
        },
        {
          "internalType": "uint256",
          "name": "tokenId",
          "type": "uint256"
        },
        {
          "internalType": "bytes",
          "name": "_data",
          "type": "bytes"
        }
      ],
      "name": "safeTransferFrom",
      "outputs": [],
      "stateMutability": "nonpayable",
      "type": "function"
    },
    {
      "inputs": [
        {
          "internalType": "address",
          "name": "operator",
          "type": "address"
        },
        {
          "internalType": "bool",
          "name": "approved",
          "type": "bool"
        }
      ],
      "name": "setApprovalForAll",
      "outputs": [],
      "stateMutability": "nonpayable",
      "type": "function"
    },
    {
      "inputs": [
        {
          "internalType": "bytes4",
          "name": "interfaceId",
          "type": "bytes4"
        }
      ],
      "name": "supportsInterface",
      "outputs": [
        {
          "internalType": "bool",
          "name": "",
          "type": "bool"
        }
      ],
      "stateMutability": "view",
      "type": "function"
    },
    {
      "inputs": [],
      "name": "symbol",
      "outputs": [
        {
          "internalType": "string",
          "name": "",
          "type": "string"
        }
      ],
      "stateMutability": "view",
      "type": "function"
    },
    {
      "inputs": [
        {
          "internalType": "uint256",
          "name": "tokenId",
          "type": "uint256"
        }
      ],
      "name": "tokenURI",
      "outputs": [
        {
          "internalType": "string",
          "name": "",
          "type": "string"
        }
      ],
      "stateMutability": "view",
      "type": "function"
    },
    {
      "inputs": [
        {
          "internalType": "address",
          "name": "from",
          "type": "address"
        },
        {
          "internalType": "address",
          "name": "to",
          "type": "address"
        },
        {
          "internalType": "uint256",
          "name": "tokenId",
          "type": "uint256"
        }
      ],
      "name": "transferFrom",
      "outputs": [],
      "stateMutability": "nonpayable",
      "type": "function"
    },
    {
      "inputs": [],
      "name": "verifierAddr",
      "outputs": [
        {
          "internalType": "address",
          "name": "",
          "type": "address"
        }
      ],
      "stateMutability": "view",
      "type": "function"
    },
    {
      "inputs": [
        {
          "internalType": "uint256[2]",
          "name": "a",
          "type": "uint256[2]"
        },
        {
          "internalType": "uint256[2][2]",
          "name": "b",
          "type": "uint256[2][2]"
        },
        {
          "internalType": "uint256[2]",
          "name": "c",
          "type": "uint256[2]"
        },
        {
          "internalType": "uint256[81]",
          "name": "input",
          "type": "uint256[81]"
        }
      ],
      "name": "verifyProof",
      "outputs": [
        {
          "internalType": "bool",
          "name": "",
          "type": "bool"
        }
      ],
      "stateMutability": "view",
      "type": "function"
    },
    {
      "inputs": [
        {
          "internalType": "uint256[2]",
          "name": "a",
          "type": "uint256[2]"
        },
        {
          "internalType": "uint256[2][2]",
          "name": "b",
          "type": "uint256[2][2]"
        },
        {
          "internalType": "uint256[2]",
          "name": "c",
          "type": "uint256[2]"
        },
        {
          "internalType": "uint256[81]",
          "name": "input",
          "type": "uint256[81]"
        }
      ],
      "name": "verifySudoku",
      "outputs": [
        {
          "internalType": "bool",
          "name": "",
          "type": "bool"
        }
      ],
      "stateMutability": "view",
      "type": "function"
    },
    {
      "inputs": [
        {
          "internalType": "uint256[2]",
          "name": "a",
          "type": "uint256[2]"
        },
        {
          "internalType": "uint256[2][2]",
          "name": "b",
          "type": "uint256[2][2]"
        },
        {
          "internalType": "uint256[2]",
          "name": "c",
          "type": "uint256[2]"
        },
        {
          "internalType": "uint256[81]",
          "name": "input",
          "type": "uint256[81]"
        }
      ],
      "name": "verifySudokuAndMintNft",
      "outputs": [],
      "stateMutability": "nonpayable",
      "type": "function"
    }
  ],
  "bytecode": "0x6001610200818152600261022081905260076102408190526005610260819052600861028081905260046102a081905260066102c081905260096102e0819052600361030081905260e09889526103208581526103408790526103608490526103808290526103a08890526103c08390526103e08b9052610400899052610420859052610100526104408181526104608590526104808390526104a08490526104c08990526104e08b9052610500869052610520889052610540879052610120526105608481526105808890526105a08b90526105c08390526105e0879052610600869052610620899052610640829052610660849052610140526106808881526106a08490526106c08690526106e08890526107008b9052610720829052610740879052610760859052610780839052610160526107a08281526107c08290526107e08790526108008590526108208490526108408990526108608890526108808b90526108a0869052610180526108c08681526108e08690526109008290526109208990526109408390526109608890526109808590526109a08490526109c08b90526101a0526109e0878152610a008b9052610a20859052610a40869052610a60829052610a80849052610aa0839052610ac0879052610ae08990526101c052610b00838152610b20839052610b40899052610b608b9052610b80859052610ba0879052610bc08290526000610be0819052610c008990526101e0919091526080998a52610d40818152610d608a9052610d80899052610da0889052610dc0829052610de0869052610e00829052610e20829052610e40829052610c20908152610e60828152610e80839052610ea0839052610ec0849052610ee08a9052610f00839052610f20839052610f40839052610f60879052610c4052610f80838152610fa0839052610fc0839052610fe0839052611000839052611020839052611040889052611060839052611080839052610c60526110a08681526110c08a90526110e08390526111008590526111208990526111408890526111608390526111808490526111a0869052610c80526111c08a81526111e08690526112008890526112208a90526112408d90526112608390526112808390526112a08790526112c0859052610ca0526112e08281526113008390526113208390526113408390526113608390526113808b90526113a08390526113c08d90526113e0889052610cc0526114008281526114208890526114408490526114608390526114808590526114a08390526114c08790526114e0839052611500839052610ce0526115208981526115408d90526115608390526115808390526115a08390526115c08390526115e08590526116008390526116208b9052610d00526116408281526116608390526116808390526116a08390526116c08390526116e08990526117008390526117208390526117408a9052610d205260a0526118808181526118a08290526118c08290526118e08290526119008290526119208590526119408290526119608290526119808290526117609081526119a08281526119c08390526119e08a9052611a008b9052611a20839052611a40839052611a60889052611a80839052611aa083905261178052611ac0848152611ae0839052611b00869052611b20889052611b40839052611b60839052611b80839052611ba08d9052611bc08390526117a052611be0838152611c00839052611c20839052611c408a9052611c60839052611c80839052611ca0839052611cc08b9052611ce08590526117c052611d00828152611d20839052611d40839052611d60839052611d80839052611da0839052611dc0839052611de0839052611e008390526117e052611e20868152611e40839052611e60839052611e80899052611ea0839052611ec0839052611ee0839052611f008a9052611f2083905261180052611f40948552611f60889052611f80829052611fa08c9052611fc0829052611fe0829052612000829052612020829052612040829052611820949094526120608681526120808290526120a09b909b526120c08190526120e096909652612100869052612120819052612140869052612160869052611840999099526122a06040526121809586526121a0526121c0959095526121e083905261220083905261222083905261224083905261226092909252612280919091526118609190915260c09190915262000667929091906200075f565b5060405180610260016040528061023b815260200162002ceb61023b913980516200069b91602491602090910190620007b1565b50348015620006a957600080fd5b5060405162002f2638038062002f26833981016040819052620006cc916200096a565b604080518082018252600981526814dd591bdadd53919560ba1b60208083019182528351808501909452600a845269536b757a6b47616d657360b01b9084015281519192916200071f91600091620007b1565b50805162000735906001906020840190620007b1565b5050600780546001600160a01b0319166001600160a01b03939093169290921790915550620009d7565b601b830191839082156200079f579160200282015b828111156200079f5782516200078e90839060096200083c565b509160200191906009019062000774565b50620007ad92915062000889565b5090565b828054620007bf906200099a565b90600052602060002090601f016020900481019282620007e357600085556200082e565b82601f10620007fe57805160ff19168380011785556200082e565b828001600101855582156200082e579182015b828111156200082e57825182559160200191906001019062000811565b50620007ad929150620008aa565b82600981019282156200087b579160200282015b828111156200087b5782516200086a9083906009620008c1565b509160200191906001019062000850565b50620007ad929150620008ab565b80821115620007ad576000620008a0828262000956565b5060090162000889565b5b80821115620007ad5760008155600101620008ab565b6001830191839082156200082e5791602002820160005b838211156200091857835183826101000a81548160ff021916908360ff1602179055509260200192600101602081600001049283019260010302620008d8565b8015620009475782816101000a81549060ff021916905560010160208160000104928301926001030262000918565b5050620007ad929150620008aa565b5062000967906009810190620008ab565b50565b6000602082840312156200097c578081fd5b81516001600160a01b038116811462000993578182fd5b9392505050565b600181811c90821680620009af57607f821691505b60208210811415620009d157634e487b7160e01b600052602260045260246000fd5b50919050565b61230480620009e76000396000f3fe608060405234801561001057600080fd5b50600436106101165760003560e01c806370a08231116100a2578063c0397c6711610071578063c0397c6714610246578063c54d8fd314610259578063c87b56dd14610279578063e235ad2a1461028c578063e985e9c51461029f57600080fd5b806370a08231146101f757806395d89b4114610218578063a22cb46514610220578063b88d4fde1461023357600080fd5b806323b872dd116100e957806323b872dd146101985780633e7c838f146101ab57806342842e0e146101be5780636352211e146101d1578063663ea2e2146101e457600080fd5b806301ffc9a71461011b57806306fdde0314610143578063081812fc14610158578063095ea7b314610183575b600080fd5b61012e610129366004611caf565b6102db565b60405190151581526020015b60405180910390f35b61014b61032d565b60405161013a919061202a565b61016b610166366004611d2d565b6103bf565b6040516001600160a01b03909116815260200161013a565b610196610191366004611b80565b61044c565b005b6101966101a6366004611a96565b610562565b61012e6101b9366004611ba9565b610593565b6101966101cc366004611a96565b61063e565b61016b6101df366004611d2d565b610659565b60075461016b906001600160a01b031681565b61020a610205366004611a4a565b6106d0565b60405190815260200161013a565b61014b610757565b61019661022e366004611b4a565b610766565b610196610241366004611ad1565b610775565b610196610254366004611ba9565b6107ad565b61026c610267366004611ce7565b610852565b60405161013a9190611f41565b61014b610287366004611d2d565b610863565b61012e61029a366004611ba9565b6109d2565b61012e6102ad366004611a64565b6001600160a01b03918216600090815260056020908152604080832093909416825291909152205460ff1690565b60006001600160e01b031982166380ac58cd60e01b148061030c57506001600160e01b03198216635b5e139f60e01b145b8061032757506301ffc9a760e01b6001600160e01b03198316145b92915050565b60606000805461033c906121bb565b80601f0160208091040260200160405190810160405280929190818152602001828054610368906121bb565b80156103b55780601f1061038a576101008083540402835291602001916103b5565b820191906000526020600020905b81548152906001019060200180831161039857829003601f168201915b5050505050905090565b60006103ca82610a62565b6104305760405162461bcd60e51b815260206004820152602c60248201527f4552433732313a20617070726f76656420717565727920666f72206e6f6e657860448201526b34b9ba32b73a103a37b5b2b760a11b60648201526084015b60405180910390fd5b506000908152600460205260409020546001600160a01b031690565b600061045782610659565b9050806001600160a01b0316836001600160a01b031614156104c55760405162461bcd60e51b815260206004820152602160248201527f4552433732313a20617070726f76616c20746f2063757272656e74206f776e656044820152603960f91b6064820152608401610427565b336001600160a01b03821614806104e157506104e181336102ad565b6105535760405162461bcd60e51b815260206004820152603860248201527f4552433732313a20617070726f76652063616c6c6572206973206e6f74206f7760448201527f6e6572206e6f7220617070726f76656420666f7220616c6c00000000000000006064820152608401610427565b61055d8383610a7f565b505050565b61056c3382610aed565b6105885760405162461bcd60e51b81526004016104279061208f565b61055d838383610bd3565b600061059e82610d6f565b6105e65760405162461bcd60e51b8152602060048201526019602482015278151a1a5cc8189bd85c9908191bd95cc81b9bdd08195e1a5cdd603a1b6044820152606401610427565b6105f2858585856109d2565b6106325760405162461bcd60e51b815260206004820152601160248201527046696c65642070726f6f6620636865636b60781b6044820152606401610427565b5060015b949350505050565b61055d83838360405180602001604052806000815250610775565b6000818152600260205260408120546001600160a01b0316806103275760405162461bcd60e51b815260206004820152602960248201527f4552433732313a206f776e657220717565727920666f72206e6f6e657869737460448201526832b73a103a37b5b2b760b91b6064820152608401610427565b60006001600160a01b03821661073b5760405162461bcd60e51b815260206004820152602a60248201527f4552433732313a2062616c616e636520717565727920666f7220746865207a65604482015269726f206164647265737360b01b6064820152608401610427565b506001600160a01b031660009081526003602052604090205490565b60606001805461033c906121bb565b610771338383610f10565b5050565b61077f3383610aed565b61079b5760405162461bcd60e51b81526004016104279061208f565b6107a784848484610fdf565b50505050565b6107b681610d6f565b6107fe5760405162461bcd60e51b8152602060048201526019602482015278151a1a5cc8189bd85c9908191bd95cc81b9bdd08195e1a5cdd603a1b6044820152606401610427565b61080a848484846109d2565b61084a5760405162461bcd60e51b815260206004820152601160248201527046696c65642070726f6f6620636865636b60781b6044820152606401610427565b6107a7611012565b61085a61187d565b61032782611123565b606061086e82610a62565b6108d45760405162461bcd60e51b815260206004820152603160248201527f45524337323155524953746f726167653a2055524920717565727920666f72206044820152703737b732bc34b9ba32b73a103a37b5b2b760791b6064820152608401610427565b600082815260066020526040812080546108ed906121bb565b80601f0160208091040260200160405190810160405280929190818152602001828054610919906121bb565b80156109665780601f1061093b57610100808354040283529160200191610966565b820191906000526020600020905b81548152906001019060200180831161094957829003601f168201915b50505050509050600061098460408051602081019091526000815290565b9050805160001415610997575092915050565b8151156109c95780826040516020016109b1929190611d94565b60405160208183030381529060405292505050919050565b61063684611214565b60075460405163711ad69560e11b81526000916001600160a01b03169063e235ad2a90610a09908890889088908890600401611fa6565b60206040518083038186803b158015610a2157600080fd5b505afa158015610a35573d6000803e3d6000fd5b505050506040513d601f19601f82011682018060405250810190610a599190611c93565b95945050505050565b6000908152600260205260409020546001600160a01b0316151590565b600081815260046020526040902080546001600160a01b0319166001600160a01b0384169081179091558190610ab482610659565b6001600160a01b03167f8c5be1e5ebec7d5bd14f71427d1e84f3dd0314c0f7b2291e5b200ac8c7c3b92560405160405180910390a45050565b6000610af882610a62565b610b595760405162461bcd60e51b815260206004820152602c60248201527f4552433732313a206f70657261746f7220717565727920666f72206e6f6e657860448201526b34b9ba32b73a103a37b5b2b760a11b6064820152608401610427565b6000610b6483610659565b9050806001600160a01b0316846001600160a01b03161480610b9f5750836001600160a01b0316610b94846103bf565b6001600160a01b0316145b8061063657506001600160a01b0380821660009081526005602090815260408083209388168352929052205460ff16610636565b826001600160a01b0316610be682610659565b6001600160a01b031614610c4a5760405162461bcd60e51b815260206004820152602560248201527f4552433732313a207472616e736665722066726f6d20696e636f72726563742060448201526437bbb732b960d91b6064820152608401610427565b6001600160a01b038216610cac5760405162461bcd60e51b8152602060048201526024808201527f4552433732313a207472616e7366657220746f20746865207a65726f206164646044820152637265737360e01b6064820152608401610427565b610cb7600082610a7f565b6001600160a01b0383166000908152600360205260408120805460019290610ce0908490612178565b90915550506001600160a01b0382166000908152600360205260408120805460019290610d0e90849061212d565b909155505060008181526002602052604080822080546001600160a01b0319166001600160a01b0386811691821790925591518493918716917fddf252ad1be2c89b69c2b068fc378daa952ba7f163c4a11628f55a4df523b3ef91a4505050565b60006001815b6003811015610f09576001915060005b60088260038110610da657634e487b7160e01b600052603260045260246000fd5b50506009811015610ee65760005b60088360038110610dd557634e487b7160e01b600052603260045260246000fd5b600902018260098110610df857634e487b7160e01b600052603260045260246000fd5b50506009811015610ed55760088360038110610e2457634e487b7160e01b600052603260045260246000fd5b600902018260098110610e4757634e487b7160e01b600052603260045260246000fd5b018160098110610e6757634e487b7160e01b600052603260045260246000fd5b602081049091015460ff601f9092166101000a9004168682610e8a856009612159565b610e94919061212d565b60518110610eb257634e487b7160e01b600052603260045260246000fd5b602002015114610ec55760009350610ed5565b610ece816121f6565b9050610db4565b50610edf816121f6565b9050610d85565b5060018215151415610ef9575092915050565b610f02816121f6565b9050610d75565b5092915050565b816001600160a01b0316836001600160a01b03161415610f725760405162461bcd60e51b815260206004820152601960248201527f4552433732313a20617070726f766520746f2063616c6c6572000000000000006044820152606401610427565b6001600160a01b03838116600081815260056020908152604080832094871680845294825291829020805460ff191686151590811790915591519182527f17307eab39ab6107e8899845ad3d59bd9653f200f220920489ca2b5937696c31910160405180910390a3505050565b610fea848484610bd3565b610ff6848484846112ec565b6107a75760405162461bcd60e51b81526004016104279061203d565b600061101d60235490565b905060006110db6110b760248054611034906121bb565b80601f0160208091040260200160405190810160405280929190818152602001828054611060906121bb565b80156110ad5780601f10611082576101008083540402835291602001916110ad565b820191906000526020600020905b81548152906001019060200180831161109057829003601f168201915b50505050506113f6565b6040516020016110c79190611dc3565b6040516020818303038152906040526113f6565b90506000816040516020016110f09190611e79565b604051602081830303815290604052905061110b3384611558565b6111158382611572565b61055d602380546001019055565b61112b61187d565b60006003444233866040516020016111469493929190611ebe565b6040516020818303038152906040528051906020012060001c6111699190612211565b90506008816003811061118c57634e487b7160e01b600052603260045260246000fd5b60408051610120810190915291600991820201906000835b8282101561120857604080516101208101918290529085840190600990826000855b825461010083900a900460ff168152602060019283018181049485019490930390920291018084116111c65790505050505050815260200190600101906111a4565b50505050915050919050565b606061121f82610a62565b6112835760405162461bcd60e51b815260206004820152602f60248201527f4552433732314d657461646174613a2055524920717565727920666f72206e6f60448201526e3732bc34b9ba32b73a103a37b5b2b760891b6064820152608401610427565b600061129a60408051602081019091526000815290565b905060008151116112ba57604051806020016040528060008152506112e5565b806112c4846115fd565b6040516020016112d5929190611d94565b6040516020818303038152906040525b9392505050565b60006001600160a01b0384163b156113ee57604051630a85bd0160e11b81526001600160a01b0385169063150b7a0290611330903390899088908890600401611f04565b602060405180830381600087803b15801561134a57600080fd5b505af192505050801561137a575060408051601f3d908101601f1916820190925261137791810190611ccb565b60015b6113d4573d8080156113a8576040519150601f19603f3d011682016040523d82523d6000602084013e6113ad565b606091505b5080516113cc5760405162461bcd60e51b81526004016104279061203d565b805181602001fd5b6001600160e01b031916630a85bd0160e11b149050610636565b506001610636565b606081516000141561141657505060408051602081019091526000815290565b600060405180606001604052806040815260200161228f6040913990506000600384516002611445919061212d565b61144f9190612145565b61145a906004612159565b67ffffffffffffffff81111561148057634e487b7160e01b600052604160045260246000fd5b6040519080825280601f01601f1916602001820160405280156114aa576020820181803683370190505b509050600182016020820185865187015b80821015611516576003820191508151603f8160121c168501518453600184019350603f81600c1c168501518453600184019350603f8160061c168501518453600184019350603f81168501518453506001830192506114bb565b505060038651066001811461153257600281146115455761154d565b603d6001830353603d600283035361154d565b603d60018303535b509195945050505050565b610771828260405180602001604052806000815250611717565b61157b82610a62565b6115de5760405162461bcd60e51b815260206004820152602e60248201527f45524337323155524953746f726167653a2055524920736574206f66206e6f6e60448201526d32bc34b9ba32b73a103a37b5b2b760911b6064820152608401610427565b6000828152600660209081526040909120825161055d928401906118ab565b6060816116215750506040805180820190915260018152600360fc1b602082015290565b8160005b811561164b5780611635816121f6565b91506116449050600a83612145565b9150611625565b60008167ffffffffffffffff81111561167457634e487b7160e01b600052604160045260246000fd5b6040519080825280601f01601f19166020018201604052801561169e576020820181803683370190505b5090505b8415610636576116b3600183612178565b91506116c0600a86612211565b6116cb90603061212d565b60f81b8183815181106116ee57634e487b7160e01b600052603260045260246000fd5b60200101906001600160f81b031916908160001a905350611710600a86612145565b94506116a2565b611721838361174a565b61172e60008484846112ec565b61055d5760405162461bcd60e51b81526004016104279061203d565b6001600160a01b0382166117a05760405162461bcd60e51b815260206004820181905260248201527f4552433732313a206d696e7420746f20746865207a65726f20616464726573736044820152606401610427565b6117a981610a62565b156117f65760405162461bcd60e51b815260206004820152601c60248201527f4552433732313a20746f6b656e20616c7265616479206d696e746564000000006044820152606401610427565b6001600160a01b038216600090815260036020526040812080546001929061181f90849061212d565b909155505060008181526002602052604080822080546001600160a01b0319166001600160a01b03861690811790915590518392907fddf252ad1be2c89b69c2b068fc378daa952ba7f163c4a11628f55a4df523b3ef908290a45050565b6040518061012001604052806009905b61189561192f565b81526020019060019003908161188d5790505090565b8280546118b7906121bb565b90600052602060002090601f0160209004810192826118d9576000855561191f565b82601f106118f257805160ff191683800117855561191f565b8280016001018555821561191f579182015b8281111561191f578251825591602001919060010190611904565b5061192b92915061194e565b5090565b6040518061012001604052806009906020820280368337509192915050565b5b8082111561192b576000815560010161194f565b600067ffffffffffffffff8084111561197e5761197e612251565b604051601f8501601f19908116603f011681019082821181831017156119a6576119a6612251565b816040528093508581528686860111156119bf57600080fd5b858560208301376000602087830101525050509392505050565b80356001600160a01b03811681146119f057600080fd5b919050565b600082601f830112611a05578081fd5b611a0d6120e0565b808385604086011115611a1e578384fd5b835b6002811015611a3f578135845260209384019390910190600101611a20565b509095945050505050565b600060208284031215611a5b578081fd5b6112e5826119d9565b60008060408385031215611a76578081fd5b611a7f836119d9565b9150611a8d602084016119d9565b90509250929050565b600080600060608486031215611aaa578081fd5b611ab3846119d9565b9250611ac1602085016119d9565b9150604084013590509250925092565b60008060008060808587031215611ae6578081fd5b611aef856119d9565b9350611afd602086016119d9565b925060408501359150606085013567ffffffffffffffff811115611b1f578182fd5b8501601f81018713611b2f578182fd5b611b3e87823560208401611963565b91505092959194509250565b60008060408385031215611b5c578182fd5b611b65836119d9565b91506020830135611b7581612267565b809150509250929050565b60008060408385031215611b92578182fd5b611b9b836119d9565b946020939093013593505050565b600080600080610b20808688031215611bc0578283fd5b611bca87876119f5565b9450604087605f880112611bdc578384fd5b611be46120e0565b8082890160c08a018b811115611bf8578788fd5b875b6002811015611c2157611c0d8d846119f5565b855260209094019391850191600101611bfa565b50829850611c2f8c826119f5565b975050505050508661011f870112611c45578182fd5b611c4d612109565b80610100880189848a011115611c61578485fd5b8493505b6051841015611c8557803583526001939093019260209283019201611c65565b509598949750929550505050565b600060208284031215611ca4578081fd5b81516112e581612267565b600060208284031215611cc0578081fd5b81356112e581612278565b600060208284031215611cdc578081fd5b81516112e581612278565b600060208284031215611cf8578081fd5b813567ffffffffffffffff811115611d0e578182fd5b8201601f81018413611d1e578182fd5b61063684823560208401611963565b600060208284031215611d3e578081fd5b5035919050565b8060005b60028110156107a7578151845260209384019390910190600101611d49565b60008151808452611d8081602086016020860161218f565b601f01601f19169290920160200192915050565b60008351611da681846020880161218f565b835190830190611dba81836020880161218f565b01949350505050565b693d913730b6b2911d101160b11b8152655375646f6b7560d01b600a8201527f222c20226465736372697074696f6e223a2022536f6c766564205375646f6b7560108201527f206f6e207a6b47616d65732e222c2022696d616765223a2022646174613a696d6030820152721859d94bdcdd99cade1b5b0ed8985cd94d8d0b606a1b60508201528151600090611e6081606385016020870161218f565b61227d60f01b6063939091019283015250606501919050565b7f646174613a6170706c69636174696f6e2f6a736f6e3b6261736536342c000000815260008251611eb181601d85016020870161218f565b91909101601d0192915050565b8481528360208201526bffffffffffffffffffffffff198360601b16604082015260008251611ef481605485016020870161218f565b9190910160540195945050505050565b6001600160a01b0385811682528416602082015260408101839052608060608201819052600090611f3790830184611d68565b9695505050505050565b610a20810181836000805b6009808210611f5b5750611f9c565b835185845b83811015611f8157825160ff16825260209283019290910190600101611f60565b50505061012094909401935060209290920191600101611f4c565b5050505092915050565b610b208101611fb58287611d45565b60408083018660005b6002811015611fe557611fd2838351611d45565b9183019160209190910190600101611fbe565b50505050611ff660c0830185611d45565b61010082018360005b605181101561201e578151835260209283019290910190600101611fff565b50505095945050505050565b6020815260006112e56020830184611d68565b60208082526032908201527f4552433732313a207472616e7366657220746f206e6f6e20455243373231526560408201527131b2b4bb32b91034b6b83632b6b2b73a32b960711b606082015260800190565b60208082526031908201527f4552433732313a207472616e736665722063616c6c6572206973206e6f74206f6040820152701ddb995c881b9bdc88185c1c1c9bdd9959607a1b606082015260800190565b6040805190810167ffffffffffffffff8111828210171561210357612103612251565b60405290565b604051610a20810167ffffffffffffffff8111828210171561210357612103612251565b6000821982111561214057612140612225565b500190565b6000826121545761215461223b565b500490565b600081600019048311821515161561217357612173612225565b500290565b60008282101561218a5761218a612225565b500390565b60005b838110156121aa578181015183820152602001612192565b838111156107a75750506000910152565b600181811c908216806121cf57607f821691505b602082108114156121f057634e487b7160e01b600052602260045260246000fd5b50919050565b600060001982141561220a5761220a612225565b5060010190565b6000826122205761222061223b565b500690565b634e487b7160e01b600052601160045260246000fd5b634e487b7160e01b600052601260045260246000fd5b634e487b7160e01b600052604160045260246000fd5b801515811461227557600080fd5b50565b6001600160e01b03198116811461227557600080fdfe4142434445464748494a4b4c4d4e4f505152535455565758595a6162636465666768696a6b6c6d6e6f707172737475767778797a303132333435363738392b2fa264697066735822122036f34f822402c9aa0d40a28f11a51a46b3021a5f57a1bb20846273409df4c26c64736f6c634300080400333c7376672077696474683d2233353022206865696768743d22333530222076696577426f783d2230203020333530203335302220786d6c6e733d22687474703a2f2f7777772e77332e6f72672f323030302f737667223e3c646566733e3c6c696e6561724772616469656e742069643d2261222078313d2230222079313d2230222078323d22323730222079323d2232373022206772616469656e74556e6974733d227573657253706163654f6e557365223e3c73746f702073746f702d636f6c6f723d2223393333336561222f3e3c73746f70206f66667365743d2231222073746f702d636f6c6f723d2223346634366535222073746f702d6f7061636974793d222e3939222f3e3c2f6c696e6561724772616469656e743e3c2f646566733e3c726563742077696474683d223130302522206865696768743d2231303025222066696c6c3d2275726c28236129222f3e3c7465787420783d223830252220793d2239352522207374796c653d2266696c6c3a233066313732613b666f6e742d66616d696c793a73657269663b666f6e742d73697a653a31357078223e7a6b47616d65733c2f746578743e3c7465787420783d223530252220793d223530252220646f6d696e616e742d626173656c696e653d226d6964646c652220746578742d616e63686f723d226d6964646c6522207374796c653d2266696c6c3a236532653866303b666f6e742d66616d696c793a73657269663b666f6e742d73697a653a33307078223e5375646f6b753c2f746578743e3c2f7376673e",
  "linkReferences": {},
  "deployedLinkReferences": {}
}