{
  "_format": "hh-sol-artifact-1",
  "contractName": "Sudoku",
  "sourceName": "contracts/Sudoku/Sudoku.sol",
  "abi": [
    {
      "inputs": [
        {
          "internalType": "address",
          "name": "_verifierAddr",
          "type": "address"
        }
      ],
      "stateMutability": "nonpayable",
      "type": "constructor"
    },
    {
      "anonymous": false,
      "inputs": [
        {
          "indexed": true,
          "internalType": "address",
          "name": "owner",
          "type": "address"
        },
        {
          "indexed": true,
          "internalType": "address",
          "name": "approved",
          "type": "address"
        },
        {
          "indexed": true,
          "internalType": "uint256",
          "name": "tokenId",
          "type": "uint256"
        }
      ],
      "name": "Approval",
      "type": "event"
    },
    {
      "anonymous": false,
      "inputs": [
        {
          "indexed": true,
          "internalType": "address",
          "name": "owner",
          "type": "address"
        },
        {
          "indexed": true,
          "internalType": "address",
          "name": "operator",
          "type": "address"
        },
        {
          "indexed": false,
          "internalType": "bool",
          "name": "approved",
          "type": "bool"
        }
      ],
      "name": "ApprovalForAll",
      "type": "event"
    },
    {
      "anonymous": false,
      "inputs": [
        {
          "indexed": true,
          "internalType": "address",
          "name": "from",
          "type": "address"
        },
        {
          "indexed": true,
          "internalType": "address",
          "name": "to",
          "type": "address"
        },
        {
          "indexed": true,
          "internalType": "uint256",
          "name": "tokenId",
          "type": "uint256"
        }
      ],
      "name": "Transfer",
      "type": "event"
    },
    {
      "inputs": [
        {
          "internalType": "address",
          "name": "to",
          "type": "address"
        },
        {
          "internalType": "uint256",
          "name": "tokenId",
          "type": "uint256"
        }
      ],
      "name": "approve",
      "outputs": [],
      "stateMutability": "nonpayable",
      "type": "function"
    },
    {
      "inputs": [
        {
          "internalType": "address",
          "name": "owner",
          "type": "address"
        }
      ],
      "name": "balanceOf",
      "outputs": [
        {
          "internalType": "uint256",
          "name": "",
          "type": "uint256"
        }
      ],
      "stateMutability": "view",
      "type": "function"
    },
    {
      "inputs": [
        {
          "internalType": "string",
          "name": "stringTime",
          "type": "string"
        }
      ],
      "name": "generateSudokuBoard",
      "outputs": [
        {
          "internalType": "uint8[9][9]",
          "name": "",
          "type": "uint8[9][9]"
        }
      ],
      "stateMutability": "view",
      "type": "function"
    },
    {
      "inputs": [
        {
          "internalType": "uint256",
          "name": "tokenId",
          "type": "uint256"
        }
      ],
      "name": "getApproved",
      "outputs": [
        {
          "internalType": "address",
          "name": "",
          "type": "address"
        }
      ],
      "stateMutability": "view",
      "type": "function"
    },
    {
      "inputs": [
        {
          "internalType": "address",
          "name": "owner",
          "type": "address"
        },
        {
          "internalType": "address",
          "name": "operator",
          "type": "address"
        }
      ],
      "name": "isApprovedForAll",
      "outputs": [
        {
          "internalType": "bool",
          "name": "",
          "type": "bool"
        }
      ],
      "stateMutability": "view",
      "type": "function"
    },
    {
      "inputs": [],
      "name": "name",
      "outputs": [
        {
          "internalType": "string",
          "name": "",
          "type": "string"
        }
      ],
      "stateMutability": "view",
      "type": "function"
    },
    {
      "inputs": [
        {
          "internalType": "uint256",
          "name": "tokenId",
          "type": "uint256"
        }
      ],
      "name": "ownerOf",
      "outputs": [
        {
          "internalType": "address",
          "name": "",
          "type": "address"
        }
      ],
      "stateMutability": "view",
      "type": "function"
    },
    {
      "inputs": [
        {
          "internalType": "address",
          "name": "from",
          "type": "address"
        },
        {
          "internalType": "address",
          "name": "to",
          "type": "address"
        },
        {
          "internalType": "uint256",
          "name": "tokenId",
          "type": "uint256"
        }
      ],
      "name": "safeTransferFrom",
      "outputs": [],
      "stateMutability": "nonpayable",
      "type": "function"
    },
    {
      "inputs": [
        {
          "internalType": "address",
          "name": "from",
          "type": "address"
        },
        {
          "internalType": "address",
          "name": "to",
          "type": "address"
        },
        {
          "internalType": "uint256",
          "name": "tokenId",
          "type": "uint256"
        },
        {
          "internalType": "bytes",
          "name": "_data",
          "type": "bytes"
        }
      ],
      "name": "safeTransferFrom",
      "outputs": [],
      "stateMutability": "nonpayable",
      "type": "function"
    },
    {
      "inputs": [
        {
          "internalType": "address",
          "name": "operator",
          "type": "address"
        },
        {
          "internalType": "bool",
          "name": "approved",
          "type": "bool"
        }
      ],
      "name": "setApprovalForAll",
      "outputs": [],
      "stateMutability": "nonpayable",
      "type": "function"
    },
    {
      "inputs": [
        {
          "internalType": "bytes4",
          "name": "interfaceId",
          "type": "bytes4"
        }
      ],
      "name": "supportsInterface",
      "outputs": [
        {
          "internalType": "bool",
          "name": "",
          "type": "bool"
        }
      ],
      "stateMutability": "view",
      "type": "function"
    },
    {
      "inputs": [],
      "name": "symbol",
      "outputs": [
        {
          "internalType": "string",
          "name": "",
          "type": "string"
        }
      ],
      "stateMutability": "view",
      "type": "function"
    },
    {
      "inputs": [
        {
          "internalType": "uint256",
          "name": "tokenId",
          "type": "uint256"
        }
      ],
      "name": "tokenURI",
      "outputs": [
        {
          "internalType": "string",
          "name": "",
          "type": "string"
        }
      ],
      "stateMutability": "view",
      "type": "function"
    },
    {
      "inputs": [
        {
          "internalType": "address",
          "name": "from",
          "type": "address"
        },
        {
          "internalType": "address",
          "name": "to",
          "type": "address"
        },
        {
          "internalType": "uint256",
          "name": "tokenId",
          "type": "uint256"
        }
      ],
      "name": "transferFrom",
      "outputs": [],
      "stateMutability": "nonpayable",
      "type": "function"
    },
    {
      "inputs": [],
      "name": "verifierAddr",
      "outputs": [
        {
          "internalType": "address",
          "name": "",
          "type": "address"
        }
      ],
      "stateMutability": "view",
      "type": "function"
    },
    {
      "inputs": [
        {
          "internalType": "uint256[2]",
          "name": "a",
          "type": "uint256[2]"
        },
        {
          "internalType": "uint256[2][2]",
          "name": "b",
          "type": "uint256[2][2]"
        },
        {
          "internalType": "uint256[2]",
          "name": "c",
          "type": "uint256[2]"
        },
        {
          "internalType": "uint256[81]",
          "name": "input",
          "type": "uint256[81]"
        }
      ],
      "name": "verifyProof",
      "outputs": [
        {
          "internalType": "bool",
          "name": "",
          "type": "bool"
        }
      ],
      "stateMutability": "view",
      "type": "function"
    },
    {
      "inputs": [
        {
          "internalType": "uint256[2]",
          "name": "a",
          "type": "uint256[2]"
        },
        {
          "internalType": "uint256[2][2]",
          "name": "b",
          "type": "uint256[2][2]"
        },
        {
          "internalType": "uint256[2]",
          "name": "c",
          "type": "uint256[2]"
        },
        {
          "internalType": "uint256[81]",
          "name": "input",
          "type": "uint256[81]"
        }
      ],
      "name": "verifySudoku",
      "outputs": [
        {
          "internalType": "bool",
          "name": "",
          "type": "bool"
        }
      ],
      "stateMutability": "view",
      "type": "function"
    },
    {
      "inputs": [
        {
          "internalType": "uint256[2]",
          "name": "a",
          "type": "uint256[2]"
        },
        {
          "internalType": "uint256[2][2]",
          "name": "b",
          "type": "uint256[2][2]"
        },
        {
          "internalType": "uint256[2]",
          "name": "c",
          "type": "uint256[2]"
        },
        {
          "internalType": "uint256[81]",
          "name": "input",
          "type": "uint256[81]"
        }
      ],
      "name": "verifySudokuAndMintNft",
      "outputs": [],
      "stateMutability": "nonpayable",
      "type": "function"
    }
  ],
  "bytecode": "0x60806040526040518060600160405280604051806101200160405280604051806101200160405280600160ff168152602001600260ff168152602001600760ff168152602001600560ff168152602001600860ff168152602001600460ff168152602001600660ff168152602001600960ff168152602001600360ff168152508152602001604051806101200160405280600860ff168152602001600560ff168152602001600660ff168152602001600360ff168152602001600760ff168152602001600960ff168152602001600160ff168152602001600260ff168152602001600460ff168152508152602001604051806101200160405280600360ff168152602001600460ff168152602001600960ff168152602001600660ff168152602001600260ff168152602001600160ff168152602001600860ff168152602001600760ff168152602001600560ff168152508152602001604051806101200160405280600460ff168152602001600760ff168152602001600160ff168152602001600960ff168152602001600560ff168152602001600860ff168152602001600260ff168152602001600360ff168152602001600660ff168152508152602001604051806101200160405280600260ff168152602001600660ff168152602001600860ff168152602001600760ff168152602001600160ff168152602001600360ff168152602001600560ff168152602001600460ff168152602001600960ff168152508152602001604051806101200160405280600960ff168152602001600360ff168152602001600560ff168152602001600460ff168152602001600660ff168152602001600260ff168152602001600760ff168152602001600160ff168152602001600860ff168152508152602001604051806101200160405280600560ff168152602001600860ff168152602001600360ff168152602001600260ff168152602001600960ff168152602001600760ff168152602001600460ff168152602001600660ff168152602001600160ff168152508152602001604051806101200160405280600760ff168152602001600160ff168152602001600460ff168152602001600860ff168152602001600360ff168152602001600660ff168152602001600960ff168152602001600560ff168152602001600260ff168152508152602001604051806101200160405280600660ff168152602001600960ff168152602001600260ff168152602001600160ff168152602001600460ff168152602001600560ff168152602001600360ff168152602001600060ff168152602001600760ff168152508152508152602001604051806101200160405280604051806101200160405280600060ff168152602001600260ff168152602001600760ff168152602001600560ff168152602001600060ff168152602001600460ff168152602001600060ff168152602001600060ff168152602001600060ff168152508152602001604051806101200160405280600060ff168152602001600060ff168152602001600060ff168152602001600360ff168152602001600760ff168152602001600060ff168152602001600060ff168152602001600060ff168152602001600460ff168152508152602001604051806101200160405280600360ff168152602001600060ff168152602001600060ff168152602001600060ff168152602001600060ff168152602001600060ff168152602001600860ff168152602001600060ff168152602001600060ff168152508152602001604051806101200160405280600460ff168152602001600760ff168152602001600060ff168152602001600960ff168152602001600560ff168152602001600860ff168152602001600060ff168152602001600360ff168152602001600660ff168152508152602001604051806101200160405280600260ff168152602001600660ff168152602001600860ff168152602001600760ff168152602001600160ff168152602001600060ff168152602001600060ff168152602001600460ff168152602001600960ff168152508152602001604051806101200160405280600060ff168152602001600060ff168152602001600060ff168152602001600060ff168152602001600060ff168152602001600260ff168152602001600060ff168152602001600160ff168152602001600860ff168152508152602001604051806101200160405280600060ff168152602001600860ff168152602001600360ff168152602001600060ff168152602001600960ff168152602001600060ff168152602001600460ff168152602001600060ff168152602001600060ff168152508152602001604051806101200160405280600760ff168152602001600160ff168152602001600060ff168152602001600060ff168152602001600060ff168152602001600060ff168152602001600960ff168152602001600060ff168152602001600260ff168152508152602001604051806101200160405280600060ff168152602001600060ff168152602001600060ff168152602001600060ff168152602001600060ff168152602001600560ff168152602001600060ff168152602001600060ff168152602001600760ff168152508152508152602001604051806101200160405280604051806101200160405280600060ff168152602001600060ff168152602001600060ff168152602001600060ff168152602001600060ff168152602001600660ff168152602001600060ff168152602001600060ff168152602001600060ff168152508152602001604051806101200160405280600060ff168152602001600060ff168152602001600760ff168152602001600260ff168152602001600060ff168152602001600060ff168152602001600860ff168152602001600060ff168152602001600060ff168152508152602001604051806101200160405280600960ff168152602001600060ff168152602001600660ff168152602001600860ff168152602001600060ff168152602001600060ff168152602001600060ff168152602001600160ff168152602001600060ff168152508152602001604051806101200160405280600360ff168152602001600060ff168152602001600060ff168152602001600760ff168152602001600060ff168152602001600060ff168152602001600060ff168152602001600260ff168152602001600960ff168152508152602001604051806101200160405280600060ff168152602001600060ff168152602001600060ff168152602001600060ff168152602001600060ff168152602001600060ff168152602001600060ff168152602001600060ff168152602001600060ff168152508152602001604051806101200160405280600460ff168152602001600060ff168152602001600060ff168152602001600560ff168152602001600060ff168152602001600060ff168152602001600060ff168152602001600760ff168152602001600060ff168152508152602001604051806101200160405280600660ff168152602001600560ff168152602001600060ff168152602001600160ff168152602001600060ff168152602001600060ff168152602001600060ff168152602001600060ff168152602001600060ff168152508152602001604051806101200160405280600860ff168152602001600060ff168152602001600160ff168152602001600060ff168152602001600560ff168152602001600060ff168152602001600360ff168152602001600060ff168152602001600060ff168152508152602001604051806101200160405280600760ff168152602001600960ff168152602001600260ff168152602001600060ff168152602001600060ff168152602001600060ff168152602001600060ff168152602001600060ff168152602001600460ff16815250815250815250600890600362000b5f92919062000cb0565b5060405180610260016040528061023b81526020016200537261023b91396024908051906020019062000b9492919062000d08565b5034801562000ba257600080fd5b50604051620055ad380380620055ad833981810160405281019062000bc8919062000f31565b6040518060400160405280600981526020017f5375646f6b754e465400000000000000000000000000000000000000000000008152506040518060400160405280600a81526020017f536b757a6b47616d657300000000000000000000000000000000000000000000815250816000908051906020019062000c4c92919062000d08565b50806001908051906020019062000c6592919062000d08565b50505080600760006101000a81548173ffffffffffffffffffffffffffffffffffffffff021916908373ffffffffffffffffffffffffffffffffffffffff1602179055505062001010565b826003600902810192821562000cf5579160200282015b8281111562000cf45782518290600962000ce392919062000d99565b509160200191906009019062000cc7565b5b50905062000d04919062000dee565b5090565b82805462000d169062000f91565b90600052602060002090601f01602090048101928262000d3a576000855562000d86565b82601f1062000d5557805160ff191683800117855562000d86565b8280016001018555821562000d86579182015b8281111562000d8557825182559160200191906001019062000d68565b5b50905062000d95919062000e16565b5090565b826009810192821562000ddb579160200282015b8281111562000dda5782518290600962000dc992919062000e35565b509160200191906001019062000dad565b5b50905062000dea919062000ed6565b5090565b5b8082111562000e12576000818162000e08919062000efe565b5060090162000def565b5090565b5b8082111562000e3157600081600090555060010162000e17565b5090565b826009601f0160209004810192821562000ec35791602002820160005b8382111562000e9257835183826101000a81548160ff021916908360ff160217905550926020019260010160208160000104928301926001030262000e52565b801562000ec15782816101000a81549060ff021916905560010160208160000104928301926001030262000e92565b505b50905062000ed2919062000e16565b5090565b5b8082111562000efa576000818162000ef0919062000f13565b5060010162000ed7565b5090565b50806009019062000f10919062000ed6565b50565b5060009055565b60008151905062000f2b8162000ff6565b92915050565b60006020828403121562000f4457600080fd5b600062000f548482850162000f1a565b91505092915050565b600062000f6a8262000f71565b9050919050565b600073ffffffffffffffffffffffffffffffffffffffff82169050919050565b6000600282049050600182168062000faa57607f821691505b6020821081141562000fc15762000fc062000fc7565b5b50919050565b7f4e487b7100000000000000000000000000000000000000000000000000000000600052602260045260246000fd5b620010018162000f5d565b81146200100d57600080fd5b50565b61435280620010206000396000f3fe608060405234801561001057600080fd5b50600436106101165760003560e01c806370a08231116100a2578063c0397c6711610071578063c0397c67146102f1578063c54d8fd31461030d578063c87b56dd1461033d578063e235ad2a1461036d578063e985e9c51461039d57610116565b806370a082311461026b57806395d89b411461029b578063a22cb465146102b9578063b88d4fde146102d557610116565b806323b872dd116100e957806323b872dd146101b55780633e7c838f146101d157806342842e0e146102015780636352211e1461021d578063663ea2e21461024d57610116565b806301ffc9a71461011b57806306fdde031461014b578063081812fc14610169578063095ea7b314610199575b600080fd5b61013560048036038101906101309190612a1e565b6103cd565b6040516101429190613368565b60405180910390f35b6101536104af565b6040516101609190613383565b60405180910390f35b610183600480360381019061017e9190612ab1565b610541565b604051610190919061329e565b60405180910390f35b6101b360048036038101906101ae9190612954565b6105c6565b005b6101cf60048036038101906101ca919061284e565b6106de565b005b6101eb60048036038101906101e69190612990565b61073e565b6040516101f89190613368565b60405180910390f35b61021b6004803603810190610216919061284e565b6107df565b005b61023760048036038101906102329190612ab1565b6107ff565b604051610244919061329e565b60405180910390f35b6102556108b1565b604051610262919061329e565b60405180910390f35b610285600480360381019061028091906127e9565b6108d7565b6040516102929190613623565b60405180910390f35b6102a361098f565b6040516102b09190613383565b60405180910390f35b6102d360048036038101906102ce9190612918565b610a21565b005b6102ef60048036038101906102ea919061289d565b610a37565b005b61030b60048036038101906103069190612990565b610a99565b005b61032760048036038101906103229190612a70565b610b3a565b6040516103349190613305565b60405180910390f35b61035760048036038101906103529190612ab1565b610b52565b6040516103649190613383565b60405180910390f35b61038760048036038101906103829190612990565b610ca4565b6040516103949190613368565b60405180910390f35b6103b760048036038101906103b29190612812565b610d61565b6040516103c49190613368565b60405180910390f35b60007f80ac58cd000000000000000000000000000000000000000000000000000000007bffffffffffffffffffffffffffffffffffffffffffffffffffffffff1916827bffffffffffffffffffffffffffffffffffffffffffffffffffffffff1916148061049857507f5b5e139f000000000000000000000000000000000000000000000000000000007bffffffffffffffffffffffffffffffffffffffffffffffffffffffff1916827bffffffffffffffffffffffffffffffffffffffffffffffffffffffff1916145b806104a857506104a782610df5565b5b9050919050565b6060600080546104be90613a3e565b80601f01602080910402602001604051908101604052809291908181526020018280546104ea90613a3e565b80156105375780601f1061050c57610100808354040283529160200191610537565b820191906000526020600020905b81548152906001019060200180831161051a57829003601f168201915b5050505050905090565b600061054c82610e5f565b61058b576040517f08c379a000000000000000000000000000000000000000000000000000000000815260040161058290613583565b60405180910390fd5b6004600083815260200190815260200160002060009054906101000a900473ffffffffffffffffffffffffffffffffffffffff169050919050565b60006105d1826107ff565b90508073ffffffffffffffffffffffffffffffffffffffff168373ffffffffffffffffffffffffffffffffffffffff161415610642576040517f08c379a0000000000000000000000000000000000000000000000000000000008152600401610639906135c3565b60405180910390fd5b8073ffffffffffffffffffffffffffffffffffffffff16610661610ecb565b73ffffffffffffffffffffffffffffffffffffffff161480610690575061068f8161068a610ecb565b610d61565b5b6106cf576040517f08c379a00000000000000000000000000000000000000000000000000000000081526004016106c6906134c3565b60405180910390fd5b6106d98383610ed3565b505050565b6106ef6106e9610ecb565b82610f8c565b61072e576040517f08c379a000000000000000000000000000000000000000000000000000000000815260040161072590613603565b60405180910390fd5b61073983838361106a565b505050565b6000610749826112d1565b610788576040517f08c379a000000000000000000000000000000000000000000000000000000000815260040161077f906135e3565b60405180910390fd5b61079485858585610ca4565b6107d3576040517f08c379a00000000000000000000000000000000000000000000000000000000081526004016107ca906134a3565b60405180910390fd5b60019050949350505050565b6107fa83838360405180602001604052806000815250610a37565b505050565b6000806002600084815260200190815260200160002060009054906101000a900473ffffffffffffffffffffffffffffffffffffffff169050600073ffffffffffffffffffffffffffffffffffffffff168173ffffffffffffffffffffffffffffffffffffffff1614156108a8576040517f08c379a000000000000000000000000000000000000000000000000000000000815260040161089f90613503565b60405180910390fd5b80915050919050565b600760009054906101000a900473ffffffffffffffffffffffffffffffffffffffff1681565b60008073ffffffffffffffffffffffffffffffffffffffff168273ffffffffffffffffffffffffffffffffffffffff161415610948576040517f08c379a000000000000000000000000000000000000000000000000000000000815260040161093f906134e3565b60405180910390fd5b600360008373ffffffffffffffffffffffffffffffffffffffff1673ffffffffffffffffffffffffffffffffffffffff168152602001908152602001600020549050919050565b60606001805461099e90613a3e565b80601f01602080910402602001604051908101604052809291908181526020018280546109ca90613a3e565b8015610a175780601f106109ec57610100808354040283529160200191610a17565b820191906000526020600020905b8154815290600101906020018083116109fa57829003601f168201915b5050505050905090565b610a33610a2c610ecb565b838361153c565b5050565b610a48610a42610ecb565b83610f8c565b610a87576040517f08c379a0000000000000000000000000000000000000000000000000000000008152600401610a7e90613603565b60405180910390fd5b610a93848484846116a9565b50505050565b610aa2816112d1565b610ae1576040517f08c379a0000000000000000000000000000000000000000000000000000000008152600401610ad8906135e3565b60405180910390fd5b610aed84848484610ca4565b610b2c576040517f08c379a0000000000000000000000000000000000000000000000000000000008152600401610b23906134a3565b60405180910390fd5b610b34611705565b50505050565b610b42612409565b610b4b826118df565b9050919050565b6060610b5d82610e5f565b610b9c576040517f08c379a0000000000000000000000000000000000000000000000000000000008152600401610b9390613563565b60405180910390fd5b6000600660008481526020019081526020016000208054610bbc90613a3e565b80601f0160208091040260200160405190810160405280929190818152602001828054610be890613a3e565b8015610c355780601f10610c0a57610100808354040283529160200191610c35565b820191906000526020600020905b815481529060010190602001808311610c1857829003601f168201915b505050505090506000610c46611a04565b9050600081511415610c5c578192505050610c9f565b600082511115610c91578082604051602001610c799291906131a9565b60405160208183030381529060405292505050610c9f565b610c9a84611a1b565b925050505b919050565b6000600760009054906101000a900473ffffffffffffffffffffffffffffffffffffffff1673ffffffffffffffffffffffffffffffffffffffff1663e235ad2a868686866040518563ffffffff1660e01b8152600401610d079493929190613321565b60206040518083038186803b158015610d1f57600080fd5b505afa158015610d33573d6000803e3d6000fd5b505050506040513d601f19601f82011682018060405250810190610d5791906129f5565b9050949350505050565b6000600560008473ffffffffffffffffffffffffffffffffffffffff1673ffffffffffffffffffffffffffffffffffffffff16815260200190815260200160002060008373ffffffffffffffffffffffffffffffffffffffff1673ffffffffffffffffffffffffffffffffffffffff16815260200190815260200160002060009054906101000a900460ff16905092915050565b60007f01ffc9a7000000000000000000000000000000000000000000000000000000007bffffffffffffffffffffffffffffffffffffffffffffffffffffffff1916827bffffffffffffffffffffffffffffffffffffffffffffffffffffffff1916149050919050565b60008073ffffffffffffffffffffffffffffffffffffffff166002600084815260200190815260200160002060009054906101000a900473ffffffffffffffffffffffffffffffffffffffff1673ffffffffffffffffffffffffffffffffffffffff1614159050919050565b600033905090565b816004600083815260200190815260200160002060006101000a81548173ffffffffffffffffffffffffffffffffffffffff021916908373ffffffffffffffffffffffffffffffffffffffff160217905550808273ffffffffffffffffffffffffffffffffffffffff16610f46836107ff565b73ffffffffffffffffffffffffffffffffffffffff167f8c5be1e5ebec7d5bd14f71427d1e84f3dd0314c0f7b2291e5b200ac8c7c3b92560405160405180910390a45050565b6000610f9782610e5f565b610fd6576040517f08c379a0000000000000000000000000000000000000000000000000000000008152600401610fcd90613483565b60405180910390fd5b6000610fe1836107ff565b90508073ffffffffffffffffffffffffffffffffffffffff168473ffffffffffffffffffffffffffffffffffffffff16148061105057508373ffffffffffffffffffffffffffffffffffffffff1661103884610541565b73ffffffffffffffffffffffffffffffffffffffff16145b8061106157506110608185610d61565b5b91505092915050565b8273ffffffffffffffffffffffffffffffffffffffff1661108a826107ff565b73ffffffffffffffffffffffffffffffffffffffff16146110e0576040517f08c379a00000000000000000000000000000000000000000000000000000000081526004016110d790613403565b60405180910390fd5b600073ffffffffffffffffffffffffffffffffffffffff168273ffffffffffffffffffffffffffffffffffffffff161415611150576040517f08c379a000000000000000000000000000000000000000000000000000000000815260040161114790613443565b60405180910390fd5b61115b838383611ac2565b611166600082610ed3565b6001600360008573ffffffffffffffffffffffffffffffffffffffff1673ffffffffffffffffffffffffffffffffffffffff16815260200190815260200160002060008282546111b69190613947565b925050819055506001600360008473ffffffffffffffffffffffffffffffffffffffff1673ffffffffffffffffffffffffffffffffffffffff168152602001908152602001600020600082825461120d9190613866565b92505081905550816002600083815260200190815260200160002060006101000a81548173ffffffffffffffffffffffffffffffffffffffff021916908373ffffffffffffffffffffffffffffffffffffffff160217905550808273ffffffffffffffffffffffffffffffffffffffff168473ffffffffffffffffffffffffffffffffffffffff167fddf252ad1be2c89b69c2b068fc378daa952ba7f163c4a11628f55a4df523b3ef60405160405180910390a46112cc838383611ac7565b505050565b6000806001905060005b6003811015611531576001915060005b60088260038110611325577f4e487b7100000000000000000000000000000000000000000000000000000000600052603260045260246000fd5b505060098110156115065760005b6008836003811061136d577f4e487b7100000000000000000000000000000000000000000000000000000000600052603260045260246000fd5b6009020182600981106113a9577f4e487b7100000000000000000000000000000000000000000000000000000000600052603260045260246000fd5b505060098110156114f257600883600381106113ee577f4e487b7100000000000000000000000000000000000000000000000000000000600052603260045260246000fd5b60090201826009811061142a577f4e487b7100000000000000000000000000000000000000000000000000000000600052603260045260246000fd5b018160098110611463577f4e487b7100000000000000000000000000000000000000000000000000000000600052603260045260246000fd5b602091828204019190069054906101000a900460ff1660ff16868284600961148b91906138ed565b6114959190613866565b605181106114cc577f4e487b7100000000000000000000000000000000000000000000000000000000600052603260045260246000fd5b6020020151146114df57600093506114f2565b80806114ea90613aa1565b915050611333565b5080806114fe90613aa1565b9150506112eb565b5060011515821515141561151e578192505050611537565b808061152990613aa1565b9150506112db565b50809150505b919050565b8173ffffffffffffffffffffffffffffffffffffffff168373ffffffffffffffffffffffffffffffffffffffff1614156115ab576040517f08c379a00000000000000000000000000000000000000000000000000000000081526004016115a290613463565b60405180910390fd5b80600560008573ffffffffffffffffffffffffffffffffffffffff1673ffffffffffffffffffffffffffffffffffffffff16815260200190815260200160002060008473ffffffffffffffffffffffffffffffffffffffff1673ffffffffffffffffffffffffffffffffffffffff16815260200190815260200160002060006101000a81548160ff0219169083151502179055508173ffffffffffffffffffffffffffffffffffffffff168373ffffffffffffffffffffffffffffffffffffffff167f17307eab39ab6107e8899845ad3d59bd9653f200f220920489ca2b5937696c318360405161169c9190613368565b60405180910390a3505050565b6116b484848461106a565b6116c084848484611acc565b6116ff576040517f08c379a00000000000000000000000000000000000000000000000000000000081526004016116f6906133e3565b60405180910390fd5b50505050565b60006117116023611c63565b905060006117cf6117ab6024805461172890613a3e565b80601f016020809104026020016040519081016040528092919081815260200182805461175490613a3e565b80156117a15780601f10611776576101008083540402835291602001916117a1565b820191906000526020600020905b81548152906001019060200180831161178457829003601f168201915b5050505050611c71565b6040516020016117bb91906131ef565b604051602081830303815290604052611c71565b90506000816040516020016117e49190613232565b60405160208183030381529060405290506118336040518060400160405280601581526020017f0a2d2d2d2d2d2d2d2d2d2d2d2d2d2d2d2d2d2d2d2d0000000000000000000000815250611dfb565b61185b8160405160200161184791906131cd565b604051602081830303815290604052611dfb565b6118996040518060400160405280601581526020017f2d2d2d2d2d2d2d2d2d2d2d2d2d2d2d2d2d2d2d2d0a0000000000000000000000815250611dfb565b6118a33384611e94565b6118ad8382611eb2565b6118b76023611f26565b6118da6040518060600160405280602581526020016142b8602591398433611f3c565b505050565b6118e7612409565b60006003444233866040516020016119029493929190613254565b6040516020818303038152906040528051906020012060001c6119259190613b18565b905060088160038110611961577f4e487b7100000000000000000000000000000000000000000000000000000000600052603260045260246000fd5b60090201600980602002604051908101604052809291906000905b828210156119f8578382016009806020026040519081016040528092919082600980156119e4576020028201916000905b82829054906101000a900460ff1660ff16815260200190600101906020826000010492830192600103820291508084116119ad5790505b50505050508152602001906001019061197c565b50505050915050919050565b606060405180602001604052806000815250905090565b6060611a2682610e5f565b611a65576040517f08c379a0000000000000000000000000000000000000000000000000000000008152600401611a5c906135a3565b60405180910390fd5b6000611a6f611a04565b90506000815111611a8f5760405180602001604052806000815250611aba565b80611a9984611fdb565b604051602001611aaa9291906131a9565b6040516020818303038152906040525b915050919050565b505050565b505050565b6000611aed8473ffffffffffffffffffffffffffffffffffffffff16612188565b15611c56578373ffffffffffffffffffffffffffffffffffffffff1663150b7a02611b16610ecb565b8786866040518563ffffffff1660e01b8152600401611b3894939291906132b9565b602060405180830381600087803b158015611b5257600080fd5b505af1925050508015611b8357506040513d601f19601f82011682018060405250810190611b809190612a47565b60015b611c06573d8060008114611bb3576040519150601f19603f3d011682016040523d82523d6000602084013e611bb8565b606091505b50600081511415611bfe576040517f08c379a0000000000000000000000000000000000000000000000000000000008152600401611bf5906133e3565b60405180910390fd5b805181602001fd5b63150b7a0260e01b7bffffffffffffffffffffffffffffffffffffffffffffffffffffffff1916817bffffffffffffffffffffffffffffffffffffffffffffffffffffffff191614915050611c5b565b600190505b949350505050565b600081600001549050919050565b6060600082511415611c9457604051806020016040528060008152509050611df6565b60006040518060600160405280604081526020016142dd6040913990506000600360028551611cc39190613866565b611ccd91906138bc565b6004611cd991906138ed565b67ffffffffffffffff811115611d18577f4e487b7100000000000000000000000000000000000000000000000000000000600052604160045260246000fd5b6040519080825280601f01601f191660200182016040528015611d4a5781602001600182028036833780820191505090505b509050600182016020820185865187015b80821015611db6576003820191508151603f8160121c168501518453600184019350603f81600c1c168501518453600184019350603f8160061c168501518453600184019350603f8116850151845360018401935050611d5b565b5050600386510660018114611dd25760028114611de557611ded565b603d6001830353603d6002830353611ded565b603d60018303535b50505080925050505b919050565b611e9181604051602401611e0f9190613383565b6040516020818303038152906040527f41304fac000000000000000000000000000000000000000000000000000000007bffffffffffffffffffffffffffffffffffffffffffffffffffffffff19166020820180517bffffffffffffffffffffffffffffffffffffffffffffffffffffffff83818316178352505050506121ab565b50565b611eae8282604051806020016040528060008152506121d4565b5050565b611ebb82610e5f565b611efa576040517f08c379a0000000000000000000000000000000000000000000000000000000008152600401611ef190613523565b60405180910390fd5b80600660008481526020019081526020016000209080519060200190611f21929190612437565b505050565b6001816000016000828254019250508190555050565b611fd6838383604051602401611f54939291906133a5565b6040516020818303038152906040527fe3849f79000000000000000000000000000000000000000000000000000000007bffffffffffffffffffffffffffffffffffffffffffffffffffffffff19166020820180517bffffffffffffffffffffffffffffffffffffffffffffffffffffffff83818316178352505050506121ab565b505050565b60606000821415612023576040518060400160405280600181526020017f30000000000000000000000000000000000000000000000000000000000000008152509050612183565b600082905060005b6000821461205557808061203e90613aa1565b915050600a8261204e91906138bc565b915061202b565b60008167ffffffffffffffff811115612097577f4e487b7100000000000000000000000000000000000000000000000000000000600052604160045260246000fd5b6040519080825280601f01601f1916602001820160405280156120c95781602001600182028036833780820191505090505b5090505b6000851461217c576001826120e29190613947565b9150600a856120f19190613b18565b60306120fd9190613866565b60f81b818381518110612139577f4e487b7100000000000000000000000000000000000000000000000000000000600052603260045260246000fd5b60200101907effffffffffffffffffffffffffffffffffffffffffffffffffffffffffffff1916908160001a905350600a8561217591906138bc565b94506120cd565b8093505050505b919050565b6000808273ffffffffffffffffffffffffffffffffffffffff163b119050919050565b60008151905060006a636f6e736f6c652e6c6f679050602083016000808483855afa5050505050565b6121de838361222f565b6121eb6000848484611acc565b61222a576040517f08c379a0000000000000000000000000000000000000000000000000000000008152600401612221906133e3565b60405180910390fd5b505050565b600073ffffffffffffffffffffffffffffffffffffffff168273ffffffffffffffffffffffffffffffffffffffff16141561229f576040517f08c379a000000000000000000000000000000000000000000000000000000000815260040161229690613543565b60405180910390fd5b6122a881610e5f565b156122e8576040517f08c379a00000000000000000000000000000000000000000000000000000000081526004016122df90613423565b60405180910390fd5b6122f460008383611ac2565b6001600360008473ffffffffffffffffffffffffffffffffffffffff1673ffffffffffffffffffffffffffffffffffffffff16815260200190815260200160002060008282546123449190613866565b92505081905550816002600083815260200190815260200160002060006101000a81548173ffffffffffffffffffffffffffffffffffffffff021916908373ffffffffffffffffffffffffffffffffffffffff160217905550808273ffffffffffffffffffffffffffffffffffffffff16600073ffffffffffffffffffffffffffffffffffffffff167fddf252ad1be2c89b69c2b068fc378daa952ba7f163c4a11628f55a4df523b3ef60405160405180910390a461240560008383611ac7565b5050565b6040518061012001604052806009905b6124216124bd565b8152602001906001900390816124195790505090565b82805461244390613a3e565b90600052602060002090601f01602090048101928261246557600085556124ac565b82601f1061247e57805160ff19168380011785556124ac565b828001600101855582156124ac579182015b828111156124ab578251825591602001919060010190612490565b5b5090506124b991906124e0565b5090565b604051806101200160405280600990602082028036833780820191505090505090565b5b808211156124f95760008160009055506001016124e1565b5090565b600061251061250b84613663565b61363e565b9050808285604086028201111561252657600080fd5b60005b85811015612556578161253c88826126de565b845260208401935060408301925050600181019050612529565b5050509392505050565b600061257361256e84613689565b61363e565b9050808285602086028201111561258957600080fd5b60005b858110156125b9578161259f88826127d4565b84526020840193506020830192505060018101905061258c565b5050509392505050565b60006125d66125d1846136af565b61363e565b905080828560208602820111156125ec57600080fd5b60005b8581101561261c578161260288826127d4565b8452602084019350602083019250506001810190506125ef565b5050509392505050565b6000612639612634846136d5565b61363e565b90508281526020810184848401111561265157600080fd5b61265c8482856139fc565b509392505050565b600061267761267284613706565b61363e565b90508281526020810184848401111561268f57600080fd5b61269a8482856139fc565b509392505050565b6000813590506126b18161425b565b92915050565b600082601f8301126126c857600080fd5b60026126d58482856124fd565b91505092915050565b600082601f8301126126ef57600080fd5b60026126fc848285612560565b91505092915050565b600082601f83011261271657600080fd5b60516127238482856125c3565b91505092915050565b60008135905061273b81614272565b92915050565b60008151905061275081614272565b92915050565b60008135905061276581614289565b92915050565b60008151905061277a81614289565b92915050565b600082601f83011261279157600080fd5b81356127a1848260208601612626565b91505092915050565b600082601f8301126127bb57600080fd5b81356127cb848260208601612664565b91505092915050565b6000813590506127e3816142a0565b92915050565b6000602082840312156127fb57600080fd5b6000612809848285016126a2565b91505092915050565b6000806040838503121561282557600080fd5b6000612833858286016126a2565b9250506020612844858286016126a2565b9150509250929050565b60008060006060848603121561286357600080fd5b6000612871868287016126a2565b9350506020612882868287016126a2565b9250506040612893868287016127d4565b9150509250925092565b600080600080608085870312156128b357600080fd5b60006128c1878288016126a2565b94505060206128d2878288016126a2565b93505060406128e3878288016127d4565b925050606085013567ffffffffffffffff81111561290057600080fd5b61290c87828801612780565b91505092959194509250565b6000806040838503121561292b57600080fd5b6000612939858286016126a2565b925050602061294a8582860161272c565b9150509250929050565b6000806040838503121561296757600080fd5b6000612975858286016126a2565b9250506020612986858286016127d4565b9150509250929050565b600080600080610b2085870312156129a757600080fd5b60006129b5878288016126de565b94505060406129c6878288016126b7565b93505060c06129d7878288016126de565b9250506101006129e987828801612705565b91505092959194509250565b600060208284031215612a0757600080fd5b6000612a1584828501612741565b91505092915050565b600060208284031215612a3057600080fd5b6000612a3e84828501612756565b91505092915050565b600060208284031215612a5957600080fd5b6000612a678482850161276b565b91505092915050565b600060208284031215612a8257600080fd5b600082013567ffffffffffffffff811115612a9c57600080fd5b612aa8848285016127aa565b91505092915050565b600060208284031215612ac357600080fd5b6000612ad1848285016127d4565b91505092915050565b6000612ae68383612c0f565b60408301905092915050565b6000612afe8383612d14565b6101208301905092915050565b6000612b178383613165565b60208301905092915050565b6000612b2f838361319a565b60208301905092915050565b612b448161397b565b82525050565b612b5b612b568261397b565b613aea565b82525050565b612b6a81613769565b612b7481846137f7565b9250612b7f82613737565b8060005b83811015612bb0578151612b978782612ada565b9650612ba2836137b6565b925050600181019050612b83565b505050505050565b612bc181613774565b612bcb8184613802565b9250612bd682613741565b8060005b83811015612c07578151612bee8782612af2565b9650612bf9836137c3565b925050600181019050612bda565b505050505050565b612c188161377f565b612c22818461380d565b9250612c2d8261374b565b8060005b83811015612c5e578151612c458782612b0b565b9650612c50836137d0565b925050600181019050612c31565b505050505050565b612c6f8161377f565b612c798184613818565b9250612c848261374b565b8060005b83811015612cb5578151612c9c8782612b0b565b9650612ca7836137d0565b925050600181019050612c88565b505050505050565b612cc68161378a565b612cd08184613823565b9250612cdb82613755565b8060005b83811015612d0c578151612cf38782612b0b565b9650612cfe836137dd565b925050600181019050612cdf565b505050505050565b612d1d81613795565b612d27818461382e565b9250612d328261375f565b8060005b83811015612d63578151612d4a8782612b23565b9650612d55836137ea565b925050600181019050612d36565b505050505050565b612d748161398d565b82525050565b6000612d85826137a0565b612d8f8185613839565b9350612d9f818560208601613a0b565b612da881613c05565b840191505092915050565b6000612dbe826137ab565b612dc8818561384a565b9350612dd8818560208601613a0b565b612de181613c05565b840191505092915050565b6000612df7826137ab565b612e01818561385b565b9350612e11818560208601613a0b565b80840191505092915050565b6000612e2a60068361385b565b9150612e3582613c23565b600682019050919050565b6000612e4d60258361385b565b9150612e5882613c4c565b602582019050919050565b6000612e7060328361384a565b9150612e7b82613c9b565b604082019050919050565b6000612e9360258361384a565b9150612e9e82613cea565b604082019050919050565b6000612eb6601c8361384a565b9150612ec182613d39565b602082019050919050565b6000612ed960248361384a565b9150612ee482613d62565b604082019050919050565b6000612efc60198361384a565b9150612f0782613db1565b602082019050919050565b6000612f1f602c8361384a565b9150612f2a82613dda565b604082019050919050565b6000612f4260118361384a565b9150612f4d82613e29565b602082019050919050565b6000612f6560388361384a565b9150612f7082613e52565b604082019050919050565b6000612f88602a8361384a565b9150612f9382613ea1565b604082019050919050565b6000612fab60298361384a565b9150612fb682613ef0565b604082019050919050565b6000612fce602e8361384a565b9150612fd982613f3f565b604082019050919050565b6000612ff160028361385b565b9150612ffc82613f8e565b600282019050919050565b600061301460208361384a565b915061301f82613fb7565b602082019050919050565b600061303760318361384a565b915061304282613fe0565b604082019050919050565b600061305a602c8361384a565b91506130658261402f565b604082019050919050565b600061307d602f8361384a565b91506130888261407e565b604082019050919050565b60006130a0600a8361385b565b91506130ab826140cd565b600a82019050919050565b60006130c360538361385b565b91506130ce826140f6565b605382019050919050565b60006130e660218361384a565b91506130f18261416b565b604082019050919050565b6000613109601d8361385b565b9150613114826141ba565b601d82019050919050565b600061312c60198361384a565b9150613137826141e3565b602082019050919050565b600061314f60318361384a565b915061315a8261420c565b604082019050919050565b61316e816139e5565b82525050565b61317d816139e5565b82525050565b61319461318f826139e5565b613b0e565b82525050565b6131a3816139ef565b82525050565b60006131b58285612dec565b91506131c18284612dec565b91508190509392505050565b60006131d882612e40565b91506131e48284612dec565b915081905092915050565b60006131fa82613093565b915061320582612e1d565b9150613210826130b6565b915061321c8284612dec565b915061322782612fe4565b915081905092915050565b600061323d826130fc565b91506132498284612dec565b915081905092915050565b60006132608287613183565b6020820191506132708286613183565b6020820191506132808285612b4a565b6014820191506132908284612dec565b915081905095945050505050565b60006020820190506132b36000830184612b3b565b92915050565b60006080820190506132ce6000830187612b3b565b6132db6020830186612b3b565b6132e86040830185613174565b81810360608301526132fa8184612d7a565b905095945050505050565b6000610a208201905061331b6000830184612bb8565b92915050565b6000610b20820190506133376000830187612c66565b6133446040830186612b61565b61335160c0830185612c66565b61335f610100830184612cbd565b95945050505050565b600060208201905061337d6000830184612d6b565b92915050565b6000602082019050818103600083015261339d8184612db3565b905092915050565b600060608201905081810360008301526133bf8186612db3565b90506133ce6020830185613174565b6133db6040830184612b3b565b949350505050565b600060208201905081810360008301526133fc81612e63565b9050919050565b6000602082019050818103600083015261341c81612e86565b9050919050565b6000602082019050818103600083015261343c81612ea9565b9050919050565b6000602082019050818103600083015261345c81612ecc565b9050919050565b6000602082019050818103600083015261347c81612eef565b9050919050565b6000602082019050818103600083015261349c81612f12565b9050919050565b600060208201905081810360008301526134bc81612f35565b9050919050565b600060208201905081810360008301526134dc81612f58565b9050919050565b600060208201905081810360008301526134fc81612f7b565b9050919050565b6000602082019050818103600083015261351c81612f9e565b9050919050565b6000602082019050818103600083015261353c81612fc1565b9050919050565b6000602082019050818103600083015261355c81613007565b9050919050565b6000602082019050818103600083015261357c8161302a565b9050919050565b6000602082019050818103600083015261359c8161304d565b9050919050565b600060208201905081810360008301526135bc81613070565b9050919050565b600060208201905081810360008301526135dc816130d9565b9050919050565b600060208201905081810360008301526135fc8161311f565b9050919050565b6000602082019050818103600083015261361c81613142565b9050919050565b60006020820190506136386000830184613174565b92915050565b6000613648613659565b90506136548282613a70565b919050565b6000604051905090565b600067ffffffffffffffff82111561367e5761367d613bd6565b5b602082029050919050565b600067ffffffffffffffff8211156136a4576136a3613bd6565b5b602082029050919050565b600067ffffffffffffffff8211156136ca576136c9613bd6565b5b602082029050919050565b600067ffffffffffffffff8211156136f0576136ef613bd6565b5b6136f982613c05565b9050602081019050919050565b600067ffffffffffffffff82111561372157613720613bd6565b5b61372a82613c05565b9050602081019050919050565b6000819050919050565b6000819050919050565b6000819050919050565b6000819050919050565b6000819050919050565b600060029050919050565b600060099050919050565b600060029050919050565b600060519050919050565b600060099050919050565b600081519050919050565b600081519050919050565b6000602082019050919050565b6000602082019050919050565b6000602082019050919050565b6000602082019050919050565b6000602082019050919050565b600081905092915050565b600081905092915050565b600081905092915050565b600081905092915050565b600081905092915050565b600081905092915050565b600082825260208201905092915050565b600082825260208201905092915050565b600081905092915050565b6000613871826139e5565b915061387c836139e5565b9250827fffffffffffffffffffffffffffffffffffffffffffffffffffffffffffffffff038211156138b1576138b0613b49565b5b828201905092915050565b60006138c7826139e5565b91506138d2836139e5565b9250826138e2576138e1613b78565b5b828204905092915050565b60006138f8826139e5565b9150613903836139e5565b9250817fffffffffffffffffffffffffffffffffffffffffffffffffffffffffffffffff048311821515161561393c5761393b613b49565b5b828202905092915050565b6000613952826139e5565b915061395d836139e5565b9250828210156139705761396f613b49565b5b828203905092915050565b6000613986826139c5565b9050919050565b60008115159050919050565b60007fffffffff0000000000000000000000000000000000000000000000000000000082169050919050565b600073ffffffffffffffffffffffffffffffffffffffff82169050919050565b6000819050919050565b600060ff82169050919050565b82818337600083830152505050565b60005b83811015613a29578082015181840152602081019050613a0e565b83811115613a38576000848401525b50505050565b60006002820490506001821680613a5657607f821691505b60208210811415613a6a57613a69613ba7565b5b50919050565b613a7982613c05565b810181811067ffffffffffffffff82111715613a9857613a97613bd6565b5b80604052505050565b6000613aac826139e5565b91507fffffffffffffffffffffffffffffffffffffffffffffffffffffffffffffffff821415613adf57613ade613b49565b5b600182019050919050565b6000613af582613afc565b9050919050565b6000613b0782613c16565b9050919050565b6000819050919050565b6000613b23826139e5565b9150613b2e836139e5565b925082613b3e57613b3d613b78565b5b828206905092915050565b7f4e487b7100000000000000000000000000000000000000000000000000000000600052601160045260246000fd5b7f4e487b7100000000000000000000000000000000000000000000000000000000600052601260045260246000fd5b7f4e487b7100000000000000000000000000000000000000000000000000000000600052602260045260246000fd5b7f4e487b7100000000000000000000000000000000000000000000000000000000600052604160045260246000fd5b6000601f19601f8301169050919050565b60008160601b9050919050565b7f5375646f6b750000000000000000000000000000000000000000000000000000600082015250565b7f68747470733a2f2f6e6674707265766965772e30786465762e636f6465732f3f60008201527f636f64653d000000000000000000000000000000000000000000000000000000602082015250565b7f4552433732313a207472616e7366657220746f206e6f6e20455243373231526560008201527f63656976657220696d706c656d656e7465720000000000000000000000000000602082015250565b7f4552433732313a207472616e736665722066726f6d20696e636f72726563742060008201527f6f776e6572000000000000000000000000000000000000000000000000000000602082015250565b7f4552433732313a20746f6b656e20616c7265616479206d696e74656400000000600082015250565b7f4552433732313a207472616e7366657220746f20746865207a65726f2061646460008201527f7265737300000000000000000000000000000000000000000000000000000000602082015250565b7f4552433732313a20617070726f766520746f2063616c6c657200000000000000600082015250565b7f4552433732313a206f70657261746f7220717565727920666f72206e6f6e657860008201527f697374656e7420746f6b656e0000000000000000000000000000000000000000602082015250565b7f46696c65642070726f6f6620636865636b000000000000000000000000000000600082015250565b7f4552433732313a20617070726f76652063616c6c6572206973206e6f74206f7760008201527f6e6572206e6f7220617070726f76656420666f7220616c6c0000000000000000602082015250565b7f4552433732313a2062616c616e636520717565727920666f7220746865207a6560008201527f726f206164647265737300000000000000000000000000000000000000000000602082015250565b7f4552433732313a206f776e657220717565727920666f72206e6f6e657869737460008201527f656e7420746f6b656e0000000000000000000000000000000000000000000000602082015250565b7f45524337323155524953746f726167653a2055524920736574206f66206e6f6e60008201527f6578697374656e7420746f6b656e000000000000000000000000000000000000602082015250565b7f227d000000000000000000000000000000000000000000000000000000000000600082015250565b7f4552433732313a206d696e7420746f20746865207a65726f2061646472657373600082015250565b7f45524337323155524953746f726167653a2055524920717565727920666f722060008201527f6e6f6e6578697374656e7420746f6b656e000000000000000000000000000000602082015250565b7f4552433732313a20617070726f76656420717565727920666f72206e6f6e657860008201527f697374656e7420746f6b656e0000000000000000000000000000000000000000602082015250565b7f4552433732314d657461646174613a2055524920717565727920666f72206e6f60008201527f6e6578697374656e7420746f6b656e0000000000000000000000000000000000602082015250565b7f7b226e616d65223a202200000000000000000000000000000000000000000000600082015250565b7f222c20226465736372697074696f6e223a2022536f6c766564205375646f6b7560008201527f206f6e207a6b47616d65732e222c2022696d616765223a2022646174613a696d60208201527f6167652f7376672b786d6c3b6261736536342c00000000000000000000000000604082015250565b7f4552433732313a20617070726f76616c20746f2063757272656e74206f776e6560008201527f7200000000000000000000000000000000000000000000000000000000000000602082015250565b7f646174613a6170706c69636174696f6e2f6a736f6e3b6261736536342c000000600082015250565b7f5468697320626f61726420646f6573206e6f7420657869737400000000000000600082015250565b7f4552433732313a207472616e736665722063616c6c6572206973206e6f74206f60008201527f776e6572206e6f7220617070726f766564000000000000000000000000000000602082015250565b6142648161397b565b811461426f57600080fd5b50565b61427b8161398d565b811461428657600080fd5b50565b61429281613999565b811461429d57600080fd5b50565b6142a9816139e5565b81146142b457600080fd5b5056fe416e204e465420772f20494420257320686173206265656e206d696e74656420746f2025734142434445464748494a4b4c4d4e4f505152535455565758595a6162636465666768696a6b6c6d6e6f707172737475767778797a303132333435363738392b2fa264697066735822122068be634081492b39140abb92357dbf3c99952b50753ef7032c539a98fc7fcb1664736f6c634300080400333c7376672077696474683d2233353022206865696768743d22333530222076696577426f783d2230203020333530203335302220786d6c6e733d22687474703a2f2f7777772e77332e6f72672f323030302f737667223e3c646566733e3c6c696e6561724772616469656e742069643d2261222078313d2230222079313d2230222078323d22323730222079323d2232373022206772616469656e74556e6974733d227573657253706163654f6e557365223e3c73746f702073746f702d636f6c6f723d2223393333336561222f3e3c73746f70206f66667365743d2231222073746f702d636f6c6f723d2223346634366535222073746f702d6f7061636974793d222e3939222f3e3c2f6c696e6561724772616469656e743e3c2f646566733e3c726563742077696474683d223130302522206865696768743d2231303025222066696c6c3d2275726c28236129222f3e3c7465787420783d223830252220793d2239352522207374796c653d2266696c6c3a233066313732613b666f6e742d66616d696c793a73657269663b666f6e742d73697a653a31357078223e7a6b47616d65733c2f746578743e3c7465787420783d223530252220793d223530252220646f6d696e616e742d626173656c696e653d226d6964646c652220746578742d616e63686f723d226d6964646c6522207374796c653d2266696c6c3a236532653866303b666f6e742d66616d696c793a73657269663b666f6e742d73697a653a33307078223e5375646f6b753c2f746578743e3c2f7376673e",
  "linkReferences": {},
  "deployedLinkReferences": {}
}