{
  "_format": "hh-sol-artifact-1",
  "contractName": "Skyscrapers",
  "sourceName": "contracts/Skyscrapers/Skyscrapers.sol",
  "abi": [
    {
      "inputs": [
        {
          "internalType": "address",
          "name": "_verifierAddr",
          "type": "address"
        }
      ],
      "stateMutability": "nonpayable",
      "type": "constructor"
    },
    {
      "anonymous": false,
      "inputs": [
        {
          "indexed": true,
          "internalType": "address",
          "name": "owner",
          "type": "address"
        },
        {
          "indexed": true,
          "internalType": "address",
          "name": "approved",
          "type": "address"
        },
        {
          "indexed": true,
          "internalType": "uint256",
          "name": "tokenId",
          "type": "uint256"
        }
      ],
      "name": "Approval",
      "type": "event"
    },
    {
      "anonymous": false,
      "inputs": [
        {
          "indexed": true,
          "internalType": "address",
          "name": "owner",
          "type": "address"
        },
        {
          "indexed": true,
          "internalType": "address",
          "name": "operator",
          "type": "address"
        },
        {
          "indexed": false,
          "internalType": "bool",
          "name": "approved",
          "type": "bool"
        }
      ],
      "name": "ApprovalForAll",
      "type": "event"
    },
    {
      "anonymous": false,
      "inputs": [
        {
          "indexed": true,
          "internalType": "address",
          "name": "from",
          "type": "address"
        },
        {
          "indexed": true,
          "internalType": "address",
          "name": "to",
          "type": "address"
        },
        {
          "indexed": true,
          "internalType": "uint256",
          "name": "tokenId",
          "type": "uint256"
        }
      ],
      "name": "Transfer",
      "type": "event"
    },
    {
      "inputs": [
        {
          "internalType": "address",
          "name": "to",
          "type": "address"
        },
        {
          "internalType": "uint256",
          "name": "tokenId",
          "type": "uint256"
        }
      ],
      "name": "approve",
      "outputs": [],
      "stateMutability": "nonpayable",
      "type": "function"
    },
    {
      "inputs": [
        {
          "internalType": "address",
          "name": "owner",
          "type": "address"
        }
      ],
      "name": "balanceOf",
      "outputs": [
        {
          "internalType": "uint256",
          "name": "",
          "type": "uint256"
        }
      ],
      "stateMutability": "view",
      "type": "function"
    },
    {
      "inputs": [
        {
          "internalType": "string",
          "name": "stringTime",
          "type": "string"
        }
      ],
      "name": "generateSkyscrapersBoard",
      "outputs": [
        {
          "internalType": "uint8[5][5]",
          "name": "",
          "type": "uint8[5][5]"
        },
        {
          "internalType": "uint8[20]",
          "name": "",
          "type": "uint8[20]"
        }
      ],
      "stateMutability": "view",
      "type": "function"
    },
    {
      "inputs": [
        {
          "internalType": "uint256",
          "name": "tokenId",
          "type": "uint256"
        }
      ],
      "name": "getApproved",
      "outputs": [
        {
          "internalType": "address",
          "name": "",
          "type": "address"
        }
      ],
      "stateMutability": "view",
      "type": "function"
    },
    {
      "inputs": [
        {
          "internalType": "address",
          "name": "owner",
          "type": "address"
        },
        {
          "internalType": "address",
          "name": "operator",
          "type": "address"
        }
      ],
      "name": "isApprovedForAll",
      "outputs": [
        {
          "internalType": "bool",
          "name": "",
          "type": "bool"
        }
      ],
      "stateMutability": "view",
      "type": "function"
    },
    {
      "inputs": [],
      "name": "name",
      "outputs": [
        {
          "internalType": "string",
          "name": "",
          "type": "string"
        }
      ],
      "stateMutability": "view",
      "type": "function"
    },
    {
      "inputs": [
        {
          "internalType": "uint256",
          "name": "tokenId",
          "type": "uint256"
        }
      ],
      "name": "ownerOf",
      "outputs": [
        {
          "internalType": "address",
          "name": "",
          "type": "address"
        }
      ],
      "stateMutability": "view",
      "type": "function"
    },
    {
      "inputs": [
        {
          "internalType": "address",
          "name": "from",
          "type": "address"
        },
        {
          "internalType": "address",
          "name": "to",
          "type": "address"
        },
        {
          "internalType": "uint256",
          "name": "tokenId",
          "type": "uint256"
        }
      ],
      "name": "safeTransferFrom",
      "outputs": [],
      "stateMutability": "nonpayable",
      "type": "function"
    },
    {
      "inputs": [
        {
          "internalType": "address",
          "name": "from",
          "type": "address"
        },
        {
          "internalType": "address",
          "name": "to",
          "type": "address"
        },
        {
          "internalType": "uint256",
          "name": "tokenId",
          "type": "uint256"
        },
        {
          "internalType": "bytes",
          "name": "_data",
          "type": "bytes"
        }
      ],
      "name": "safeTransferFrom",
      "outputs": [],
      "stateMutability": "nonpayable",
      "type": "function"
    },
    {
      "inputs": [
        {
          "internalType": "address",
          "name": "operator",
          "type": "address"
        },
        {
          "internalType": "bool",
          "name": "approved",
          "type": "bool"
        }
      ],
      "name": "setApprovalForAll",
      "outputs": [],
      "stateMutability": "nonpayable",
      "type": "function"
    },
    {
      "inputs": [
        {
          "internalType": "bytes4",
          "name": "interfaceId",
          "type": "bytes4"
        }
      ],
      "name": "supportsInterface",
      "outputs": [
        {
          "internalType": "bool",
          "name": "",
          "type": "bool"
        }
      ],
      "stateMutability": "view",
      "type": "function"
    },
    {
      "inputs": [],
      "name": "symbol",
      "outputs": [
        {
          "internalType": "string",
          "name": "",
          "type": "string"
        }
      ],
      "stateMutability": "view",
      "type": "function"
    },
    {
      "inputs": [
        {
          "internalType": "uint256",
          "name": "tokenId",
          "type": "uint256"
        }
      ],
      "name": "tokenURI",
      "outputs": [
        {
          "internalType": "string",
          "name": "",
          "type": "string"
        }
      ],
      "stateMutability": "view",
      "type": "function"
    },
    {
      "inputs": [
        {
          "internalType": "address",
          "name": "from",
          "type": "address"
        },
        {
          "internalType": "address",
          "name": "to",
          "type": "address"
        },
        {
          "internalType": "uint256",
          "name": "tokenId",
          "type": "uint256"
        }
      ],
      "name": "transferFrom",
      "outputs": [],
      "stateMutability": "nonpayable",
      "type": "function"
    },
    {
      "inputs": [],
      "name": "verifierAddr",
      "outputs": [
        {
          "internalType": "address",
          "name": "",
          "type": "address"
        }
      ],
      "stateMutability": "view",
      "type": "function"
    },
    {
      "inputs": [
        {
          "internalType": "uint256[2]",
          "name": "a",
          "type": "uint256[2]"
        },
        {
          "internalType": "uint256[2][2]",
          "name": "b",
          "type": "uint256[2][2]"
        },
        {
          "internalType": "uint256[2]",
          "name": "c",
          "type": "uint256[2]"
        },
        {
          "internalType": "uint256[45]",
          "name": "input",
          "type": "uint256[45]"
        }
      ],
      "name": "verifyProof",
      "outputs": [
        {
          "internalType": "bool",
          "name": "",
          "type": "bool"
        }
      ],
      "stateMutability": "view",
      "type": "function"
    },
    {
      "inputs": [
        {
          "internalType": "uint256[2]",
          "name": "a",
          "type": "uint256[2]"
        },
        {
          "internalType": "uint256[2][2]",
          "name": "b",
          "type": "uint256[2][2]"
        },
        {
          "internalType": "uint256[2]",
          "name": "c",
          "type": "uint256[2]"
        },
        {
          "internalType": "uint256[45]",
          "name": "input",
          "type": "uint256[45]"
        }
      ],
      "name": "verifySkyscrapers",
      "outputs": [
        {
          "internalType": "bool",
          "name": "",
          "type": "bool"
        }
      ],
      "stateMutability": "view",
      "type": "function"
    },
    {
      "inputs": [
        {
          "internalType": "uint256[2]",
          "name": "a",
          "type": "uint256[2]"
        },
        {
          "internalType": "uint256[2][2]",
          "name": "b",
          "type": "uint256[2][2]"
        },
        {
          "internalType": "uint256[2]",
          "name": "c",
          "type": "uint256[2]"
        },
        {
          "internalType": "uint256[45]",
          "name": "input",
          "type": "uint256[45]"
        }
      ],
      "name": "verifySkyscrapersAndMintNft",
      "outputs": [],
      "stateMutability": "nonpayable",
      "type": "function"
    }
  ],
  "bytecode": "0x608060405260405180608001604052806040518060a001604052806040518060a00160405280600060ff168152602001600060ff168152602001600060ff168152602001600060ff168152602001600060ff1681525081526020016040518060a00160405280600060ff168152602001600060ff168152602001600060ff168152602001600060ff168152602001600060ff1681525081526020016040518060a00160405280600060ff168152602001600060ff168152602001600060ff168152602001600060ff168152602001600060ff1681525081526020016040518060a00160405280600060ff168152602001600060ff168152602001600060ff168152602001600060ff168152602001600060ff1681525081526020016040518060a00160405280600060ff168152602001600060ff168152602001600060ff168152602001600060ff168152602001600060ff1681525081525081526020016040518060a001604052806040518060a00160405280600060ff168152602001600060ff168152602001600060ff168152602001600060ff168152602001600060ff1681525081526020016040518060a00160405280600060ff168152602001600060ff168152602001600060ff168152602001600060ff168152602001600060ff1681525081526020016040518060a00160405280600060ff168152602001600060ff168152602001600060ff168152602001600060ff168152602001600060ff1681525081526020016040518060a00160405280600060ff168152602001600060ff168152602001600060ff168152602001600060ff168152602001600060ff1681525081526020016040518060a00160405280600060ff168152602001600060ff168152602001600060ff168152602001600060ff168152602001600060ff1681525081525081526020016040518060a001604052806040518060a00160405280600360ff168152602001600160ff168152602001600060ff168152602001600060ff168152602001600060ff1681525081526020016040518060a00160405280600060ff168152602001600060ff168152602001600060ff168152602001600060ff168152602001600060ff1681525081526020016040518060a00160405280600060ff168152602001600060ff168152602001600360ff168152602001600060ff168152602001600060ff1681525081526020016040518060a00160405280600060ff168152602001600060ff168152602001600060ff168152602001600060ff168152602001600060ff1681525081526020016040518060a00160405280600060ff168152602001600060ff168152602001600060ff168152602001600060ff168152602001600060ff1681525081525081526020016040518060a001604052806040518060a00160405280600360ff168152602001600160ff168152602001600560ff168152602001600260ff168152602001600460ff1681525081526020016040518060a00160405280600460ff168152602001600560ff168152602001600260ff168152602001600360ff168152602001600160ff1681525081526020016040518060a00160405280600260ff168152602001600460ff168152602001600360ff168152602001600160ff168152602001600560ff1681525081526020016040518060a00160405280600160ff168152602001600360ff168152602001600460ff168152602001600560ff168152602001600260ff1681525081526020016040518060a00160405280600560ff168152602001600260ff168152602001600160ff168152602001600460ff168152602001600060ff1681525081525081525060089060046200055792919062000a20565b506040518060800160405280604051806102800160405280600460ff168152602001600460ff168152602001600060ff168152602001600060ff168152602001600060ff168152602001600060ff168152602001600060ff168152602001600560ff168152602001600060ff168152602001600060ff168152602001600060ff168152602001600060ff168152602001600260ff168152602001600160ff168152602001600060ff168152602001600260ff168152602001600060ff168152602001600160ff168152602001600060ff168152602001600060ff168152508152602001604051806102800160405280600460ff168152602001600360ff168152602001600160ff168152602001600260ff168152602001600460ff168152602001600260ff168152602001600260ff168152602001600360ff168152602001600360ff168152602001600160ff168152602001600360ff168152602001600360ff168152602001600260ff168152602001600160ff168152602001600260ff168152602001600360ff168152602001600260ff168152602001600460ff168152602001600260ff168152602001600160ff168152508152602001604051806102800160405280600260ff168152602001600260ff168152602001600360ff168152602001600460ff168152602001600160ff168152602001600260ff168152602001600360ff168152602001600160ff168152602001600260ff168152602001600360ff168152602001600360ff168152602001600260ff168152602001600160ff168152602001600360ff168152602001600260ff168152602001600160ff168152602001600460ff168152602001600360ff168152602001600260ff168152602001600260ff168152508152602001604051806102800160405280600260ff168152602001600260ff168152602001600360ff168152602001600460ff168152602001600160ff168152602001600260ff168152602001600360ff168152602001600160ff168152602001600260ff168152602001600360ff168152602001600360ff168152602001600260ff168152602001600160ff168152602001600360ff168152602001600260ff168152602001600160ff168152602001600460ff168152602001600360ff168152602001600260ff168152602001600260ff16815250815250601c906004620008cf92919062000a78565b506040518061026001604052806102408152602001620054d56102409139602190805190602001906200090492919062000acd565b503480156200091257600080fd5b506040516200571538038062005715833981810160405281019062000938919062000dc6565b6040518060400160405280600e81526020017f536b7973637261706572734e46540000000000000000000000000000000000008152506040518060400160405280600a81526020017f5365727a6b47616d6573000000000000000000000000000000000000000000008152508160009080519060200190620009bc92919062000acd565b508060019080519060200190620009d592919062000acd565b50505080600760006101000a81548173ffffffffffffffffffffffffffffffffffffffff021916908373ffffffffffffffffffffffffffffffffffffffff1602179055505062000ea5565b826004600502810192821562000a65579160200282015b8281111562000a645782518290600562000a5392919062000b5e565b509160200191906005019062000a37565b5b50905062000a74919062000bb3565b5090565b826004810192821562000aba579160200282015b8281111562000ab95782518290601462000aa892919062000bdb565b509160200191906001019062000a8c565b5b50905062000ac9919062000c7c565b5090565b82805462000adb9062000e26565b90600052602060002090601f01602090048101928262000aff576000855562000b4b565b82601f1062000b1a57805160ff191683800117855562000b4b565b8280016001018555821562000b4b579182015b8281111562000b4a57825182559160200191906001019062000b2d565b5b50905062000b5a919062000ca4565b5090565b826005810192821562000ba0579160200282015b8281111562000b9f5782518290600562000b8e92919062000cc3565b509160200191906001019062000b72565b5b50905062000baf919062000d64565b5090565b5b8082111562000bd7576000818162000bcd919062000d8c565b5060050162000bb4565b5090565b826014601f0160209004810192821562000c695791602002820160005b8382111562000c3857835183826101000a81548160ff021916908360ff160217905550926020019260010160208160000104928301926001030262000bf8565b801562000c675782816101000a81549060ff021916905560010160208160000104928301926001030262000c38565b505b50905062000c78919062000ca4565b5090565b5b8082111562000ca0576000818162000c96919062000da1565b5060010162000c7d565b5090565b5b8082111562000cbf57600081600090555060010162000ca5565b5090565b826005601f0160209004810192821562000d515791602002820160005b8382111562000d2057835183826101000a81548160ff021916908360ff160217905550926020019260010160208160000104928301926001030262000ce0565b801562000d4f5782816101000a81549060ff021916905560010160208160000104928301926001030262000d20565b505b50905062000d60919062000ca4565b5090565b5b8082111562000d88576000818162000d7e919062000da8565b5060010162000d65565b5090565b50806005019062000d9e919062000d64565b50565b5060009055565b5060009055565b60008151905062000dc08162000e8b565b92915050565b60006020828403121562000dd957600080fd5b600062000de98482850162000daf565b91505092915050565b600062000dff8262000e06565b9050919050565b600073ffffffffffffffffffffffffffffffffffffffff82169050919050565b6000600282049050600182168062000e3f57607f821691505b6020821081141562000e565762000e5562000e5c565b5b50919050565b7f4e487b7100000000000000000000000000000000000000000000000000000000600052602260045260246000fd5b62000e968162000df2565b811462000ea257600080fd5b50565b6146208062000eb56000396000f3fe608060405234801561001057600080fd5b50600436106101165760003560e01c8063663ea2e2116100a2578063b88d4fde11610071578063b88d4fde14610306578063ba01c5c514610322578063c796af531461033e578063c87b56dd1461036e578063e985e9c51461039e57610116565b8063663ea2e21461027e57806370a082311461029c57806395d89b41146102cc578063a22cb465146102ea57610116565b8063095ea7b3116100e9578063095ea7b3146101ca57806323b872dd146101e65780632da52f701461020257806342842e0e146102325780636352211e1461024e57610116565b806301ffc9a71461011b57806305ef3d331461014b57806306fdde031461017c578063081812fc1461019a575b600080fd5b61013560048036038101906101309190612c5a565b6103ce565b6040516101429190613609565b60405180910390f35b61016560048036038101906101609190612cac565b6104b0565b604051610173929190613597565b60405180910390f35b6101846104d2565b6040516101919190613624565b60405180910390f35b6101b460048036038101906101af9190612ced565b610564565b6040516101c19190613530565b60405180910390f35b6101e460048036038101906101df9190612b90565b6105e9565b005b61020060048036038101906101fb9190612a8a565b610701565b005b61021c60048036038101906102179190612bcc565b610761565b6040516102299190613609565b60405180910390f35b61024c60048036038101906102479190612a8a565b610802565b005b61026860048036038101906102639190612ced565b610822565b6040516102759190613530565b60405180910390f35b6102866108d4565b6040516102939190613530565b60405180910390f35b6102b660048036038101906102b19190612a25565b6108fa565b6040516102c391906138c4565b60405180910390f35b6102d46109b2565b6040516102e19190613624565b60405180910390f35b61030460048036038101906102ff9190612b54565b610a44565b005b610320600480360381019061031b9190612ad9565b610a5a565b005b61033c60048036038101906103379190612bcc565b610abc565b005b61035860048036038101906103539190612bcc565b610b5d565b6040516103659190613609565b60405180910390f35b61038860048036038101906103839190612ced565b610c1a565b6040516103959190613624565b60405180910390f35b6103b860048036038101906103b39190612a4e565b610d6c565b6040516103c59190613609565b60405180910390f35b60007f80ac58cd000000000000000000000000000000000000000000000000000000007bffffffffffffffffffffffffffffffffffffffffffffffffffffffff1916827bffffffffffffffffffffffffffffffffffffffffffffffffffffffff1916148061049957507f5b5e139f000000000000000000000000000000000000000000000000000000007bffffffffffffffffffffffffffffffffffffffffffffffffffffffff1916827bffffffffffffffffffffffffffffffffffffffffffffffffffffffff1916145b806104a957506104a882610e00565b5b9050919050565b6104b8612624565b6104c0612651565b6104c983610e6a565b91509150915091565b6060600080546104e190613d0c565b80601f016020809104026020016040519081016040528092919081815260200182805461050d90613d0c565b801561055a5780601f1061052f5761010080835404028352916020019161055a565b820191906000526020600020905b81548152906001019060200180831161053d57829003601f168201915b5050505050905090565b600061056f8261103c565b6105ae576040517f08c379a00000000000000000000000000000000000000000000000000000000081526004016105a590613824565b60405180910390fd5b6004600083815260200190815260200160002060009054906101000a900473ffffffffffffffffffffffffffffffffffffffff169050919050565b60006105f482610822565b90508073ffffffffffffffffffffffffffffffffffffffff168373ffffffffffffffffffffffffffffffffffffffff161415610665576040517f08c379a000000000000000000000000000000000000000000000000000000000815260040161065c90613864565b60405180910390fd5b8073ffffffffffffffffffffffffffffffffffffffff166106846110a8565b73ffffffffffffffffffffffffffffffffffffffff1614806106b357506106b2816106ad6110a8565b610d6c565b5b6106f2576040517f08c379a00000000000000000000000000000000000000000000000000000000081526004016106e990613764565b60405180910390fd5b6106fc83836110b0565b505050565b61071261070c6110a8565b82611169565b610751576040517f08c379a0000000000000000000000000000000000000000000000000000000008152600401610748906138a4565b60405180910390fd5b61075c838383611247565b505050565b600061076c826114ae565b6107ab576040517f08c379a00000000000000000000000000000000000000000000000000000000081526004016107a290613884565b60405180910390fd5b6107b785858585610b5d565b6107f6576040517f08c379a00000000000000000000000000000000000000000000000000000000081526004016107ed90613744565b60405180910390fd5b60019050949350505050565b61081d83838360405180602001604052806000815250610a5a565b505050565b6000806002600084815260200190815260200160002060009054906101000a900473ffffffffffffffffffffffffffffffffffffffff169050600073ffffffffffffffffffffffffffffffffffffffff168173ffffffffffffffffffffffffffffffffffffffff1614156108cb576040517f08c379a00000000000000000000000000000000000000000000000000000000081526004016108c2906137a4565b60405180910390fd5b80915050919050565b600760009054906101000a900473ffffffffffffffffffffffffffffffffffffffff1681565b60008073ffffffffffffffffffffffffffffffffffffffff168273ffffffffffffffffffffffffffffffffffffffff16141561096b576040517f08c379a000000000000000000000000000000000000000000000000000000000815260040161096290613784565b60405180910390fd5b600360008373ffffffffffffffffffffffffffffffffffffffff1673ffffffffffffffffffffffffffffffffffffffff168152602001908152602001600020549050919050565b6060600180546109c190613d0c565b80601f01602080910402602001604051908101604052809291908181526020018280546109ed90613d0c565b8015610a3a5780601f10610a0f57610100808354040283529160200191610a3a565b820191906000526020600020905b815481529060010190602001808311610a1d57829003601f168201915b5050505050905090565b610a56610a4f6110a8565b8383611722565b5050565b610a6b610a656110a8565b83611169565b610aaa576040517f08c379a0000000000000000000000000000000000000000000000000000000008152600401610aa1906138a4565b60405180910390fd5b610ab68484848461188f565b50505050565b610ac5816114ae565b610b04576040517f08c379a0000000000000000000000000000000000000000000000000000000008152600401610afb90613884565b60405180910390fd5b610b1084848484610b5d565b610b4f576040517f08c379a0000000000000000000000000000000000000000000000000000000008152600401610b4690613744565b60405180910390fd5b610b576118eb565b50505050565b6000600760009054906101000a900473ffffffffffffffffffffffffffffffffffffffff1673ffffffffffffffffffffffffffffffffffffffff1663c796af53868686866040518563ffffffff1660e01b8152600401610bc094939291906135c2565b60206040518083038186803b158015610bd857600080fd5b505afa158015610bec573d6000803e3d6000fd5b505050506040513d601f19601f82011682018060405250810190610c109190612c31565b9050949350505050565b6060610c258261103c565b610c64576040517f08c379a0000000000000000000000000000000000000000000000000000000008152600401610c5b90613804565b60405180910390fd5b6000600660008481526020019081526020016000208054610c8490613d0c565b80601f0160208091040260200160405190810160405280929190818152602001828054610cb090613d0c565b8015610cfd5780601f10610cd257610100808354040283529160200191610cfd565b820191906000526020600020905b815481529060010190602001808311610ce057829003601f168201915b505050505090506000610d0e611ac5565b9050600081511415610d24578192505050610d67565b600082511115610d59578082604051602001610d4192919061343b565b60405160208183030381529060405292505050610d67565b610d6284611adc565b925050505b919050565b6000600560008473ffffffffffffffffffffffffffffffffffffffff1673ffffffffffffffffffffffffffffffffffffffff16815260200190815260200160002060008373ffffffffffffffffffffffffffffffffffffffff1673ffffffffffffffffffffffffffffffffffffffff16815260200190815260200160002060009054906101000a900460ff16905092915050565b60007f01ffc9a7000000000000000000000000000000000000000000000000000000007bffffffffffffffffffffffffffffffffffffffffffffffffffffffff1916827bffffffffffffffffffffffffffffffffffffffffffffffffffffffff1916149050919050565b610e72612624565b610e7a612651565b6000600444423387604051602001610e9594939291906134e6565b6040516020818303038152906040528051906020012060001c610eb89190613de6565b905060088160048110610ef4577f4e487b7100000000000000000000000000000000000000000000000000000000600052603260045260246000fd5b60050201601c8260048110610f32577f4e487b7100000000000000000000000000000000000000000000000000000000600052603260045260246000fd5b0181600580602002604051908101604052809291906000905b82821015610fc757838201600580602002604051908101604052809291908260058015610fb3576020028201916000905b82829054906101000a900460ff1660ff1681526020019060010190602082600001049283019260010382029150808411610f7c5790505b505050505081526020019060010190610f4b565b5050505091508060148060200260405190810160405280929190826014801561102b576020028201916000905b82829054906101000a900460ff1660ff1681526020019060010190602082600001049283019260010382029150808411610ff45790505b505050505090509250925050915091565b60008073ffffffffffffffffffffffffffffffffffffffff166002600084815260200190815260200160002060009054906101000a900473ffffffffffffffffffffffffffffffffffffffff1673ffffffffffffffffffffffffffffffffffffffff1614159050919050565b600033905090565b816004600083815260200190815260200160002060006101000a81548173ffffffffffffffffffffffffffffffffffffffff021916908373ffffffffffffffffffffffffffffffffffffffff160217905550808273ffffffffffffffffffffffffffffffffffffffff1661112383610822565b73ffffffffffffffffffffffffffffffffffffffff167f8c5be1e5ebec7d5bd14f71427d1e84f3dd0314c0f7b2291e5b200ac8c7c3b92560405160405180910390a45050565b60006111748261103c565b6111b3576040517f08c379a00000000000000000000000000000000000000000000000000000000081526004016111aa90613724565b60405180910390fd5b60006111be83610822565b90508073ffffffffffffffffffffffffffffffffffffffff168473ffffffffffffffffffffffffffffffffffffffff16148061122d57508373ffffffffffffffffffffffffffffffffffffffff1661121584610564565b73ffffffffffffffffffffffffffffffffffffffff16145b8061123e575061123d8185610d6c565b5b91505092915050565b8273ffffffffffffffffffffffffffffffffffffffff1661126782610822565b73ffffffffffffffffffffffffffffffffffffffff16146112bd576040517f08c379a00000000000000000000000000000000000000000000000000000000081526004016112b4906136a4565b60405180910390fd5b600073ffffffffffffffffffffffffffffffffffffffff168273ffffffffffffffffffffffffffffffffffffffff16141561132d576040517f08c379a0000000000000000000000000000000000000000000000000000000008152600401611324906136e4565b60405180910390fd5b611338838383611b83565b6113436000826110b0565b6001600360008573ffffffffffffffffffffffffffffffffffffffff1673ffffffffffffffffffffffffffffffffffffffff16815260200190815260200160002060008282546113939190613c15565b925050819055506001600360008473ffffffffffffffffffffffffffffffffffffffff1673ffffffffffffffffffffffffffffffffffffffff16815260200190815260200160002060008282546113ea9190613b34565b92505081905550816002600083815260200190815260200160002060006101000a81548173ffffffffffffffffffffffffffffffffffffffff021916908373ffffffffffffffffffffffffffffffffffffffff160217905550808273ffffffffffffffffffffffffffffffffffffffff168473ffffffffffffffffffffffffffffffffffffffff167fddf252ad1be2c89b69c2b068fc378daa952ba7f163c4a11628f55a4df523b3ef60405160405180910390a46114a9838383611b88565b505050565b6000806001905060005b6004811015611717576001915060005b60088260048110611502577f4e487b7100000000000000000000000000000000000000000000000000000000600052603260045260246000fd5b505060058110156116e35760005b6008836004811061154a577f4e487b7100000000000000000000000000000000000000000000000000000000600052603260045260246000fd5b600502018260058110611586577f4e487b7100000000000000000000000000000000000000000000000000000000600052603260045260246000fd5b505060058110156116cf57600883600481106115cb577f4e487b7100000000000000000000000000000000000000000000000000000000600052603260045260246000fd5b600502018260058110611607577f4e487b7100000000000000000000000000000000000000000000000000000000600052603260045260246000fd5b018160058110611640577f4e487b7100000000000000000000000000000000000000000000000000000000600052603260045260246000fd5b602091828204019190069054906101000a900460ff1660ff1686828460056116689190613bbb565b6116729190613b34565b602d81106116a9577f4e487b7100000000000000000000000000000000000000000000000000000000600052603260045260246000fd5b6020020151146116bc57600093506116cf565b80806116c790613d6f565b915050611510565b5080806116db90613d6f565b9150506114c8565b508115611704576116f48482611b8d565b1561170357819250505061171d565b5b808061170f90613d6f565b9150506114b8565b50809150505b919050565b8173ffffffffffffffffffffffffffffffffffffffff168373ffffffffffffffffffffffffffffffffffffffff161415611791576040517f08c379a000000000000000000000000000000000000000000000000000000000815260040161178890613704565b60405180910390fd5b80600560008573ffffffffffffffffffffffffffffffffffffffff1673ffffffffffffffffffffffffffffffffffffffff16815260200190815260200160002060008473ffffffffffffffffffffffffffffffffffffffff1673ffffffffffffffffffffffffffffffffffffffff16815260200190815260200160002060006101000a81548160ff0219169083151502179055508173ffffffffffffffffffffffffffffffffffffffff168373ffffffffffffffffffffffffffffffffffffffff167f17307eab39ab6107e8899845ad3d59bd9653f200f220920489ca2b5937696c31836040516118829190613609565b60405180910390a3505050565b61189a848484611247565b6118a684848484611ce7565b6118e5576040517f08c379a00000000000000000000000000000000000000000000000000000000081526004016118dc90613684565b60405180910390fd5b50505050565b60006118f76020611e7e565b905060006119b56119916021805461190e90613d0c565b80601f016020809104026020016040519081016040528092919081815260200182805461193a90613d0c565b80156119875780601f1061195c57610100808354040283529160200191611987565b820191906000526020600020905b81548152906001019060200180831161196a57829003601f168201915b5050505050611e8c565b6040516020016119a19190613481565b604051602081830303815290604052611e8c565b90506000816040516020016119ca91906134c4565b6040516020818303038152906040529050611a196040518060400160405280601581526020017f0a2d2d2d2d2d2d2d2d2d2d2d2d2d2d2d2d2d2d2d2d0000000000000000000000815250612016565b611a4181604051602001611a2d919061345f565b604051602081830303815290604052612016565b611a7f6040518060400160405280601581526020017f2d2d2d2d2d2d2d2d2d2d2d2d2d2d2d2d2d2d2d2d0a0000000000000000000000815250612016565b611a8933846120af565b611a9383826120cd565b611a9d6020612141565b611ac0604051806060016040528060258152602001614586602591398433612157565b505050565b606060405180602001604052806000815250905090565b6060611ae78261103c565b611b26576040517f08c379a0000000000000000000000000000000000000000000000000000000008152600401611b1d90613844565b60405180910390fd5b6000611b30611ac5565b90506000815111611b505760405180602001604052806000815250611b7b565b80611b5a846121f6565b604051602001611b6b92919061343b565b6040516020818303038152906040525b915050919050565b505050565b505050565b6000806001905060006019905060005b601c8560048110611bd7577f4e487b7100000000000000000000000000000000000000000000000000000000600052603260045260246000fd5b50506014811015611cdb57601c8560048110611c1c577f4e487b7100000000000000000000000000000000000000000000000000000000600052603260045260246000fd5b018160148110611c55577f4e487b7100000000000000000000000000000000000000000000000000000000600052603260045260246000fd5b602091828204019190069054906101000a900460ff1660ff168683602d8110611ca7577f4e487b7100000000000000000000000000000000000000000000000000000000600052603260045260246000fd5b602002015114611cba5760009250611cdb565b8180611cc590613d6f565b9250508080611cd390613d6f565b915050611b9d565b50819250505092915050565b6000611d088473ffffffffffffffffffffffffffffffffffffffff166123a3565b15611e71578373ffffffffffffffffffffffffffffffffffffffff1663150b7a02611d316110a8565b8786866040518563ffffffff1660e01b8152600401611d53949392919061354b565b602060405180830381600087803b158015611d6d57600080fd5b505af1925050508015611d9e57506040513d601f19601f82011682018060405250810190611d9b9190612c83565b60015b611e21573d8060008114611dce576040519150601f19603f3d011682016040523d82523d6000602084013e611dd3565b606091505b50600081511415611e19576040517f08c379a0000000000000000000000000000000000000000000000000000000008152600401611e1090613684565b60405180910390fd5b805181602001fd5b63150b7a0260e01b7bffffffffffffffffffffffffffffffffffffffffffffffffffffffff1916817bffffffffffffffffffffffffffffffffffffffffffffffffffffffff191614915050611e76565b600190505b949350505050565b600081600001549050919050565b6060600082511415611eaf57604051806020016040528060008152509050612011565b60006040518060600160405280604081526020016145ab6040913990506000600360028551611ede9190613b34565b611ee89190613b8a565b6004611ef49190613bbb565b67ffffffffffffffff811115611f33577f4e487b7100000000000000000000000000000000000000000000000000000000600052604160045260246000fd5b6040519080825280601f01601f191660200182016040528015611f655781602001600182028036833780820191505090505b509050600182016020820185865187015b80821015611fd1576003820191508151603f8160121c168501518453600184019350603f81600c1c168501518453600184019350603f8160061c168501518453600184019350603f8116850151845360018401935050611f76565b5050600386510660018114611fed576002811461200057612008565b603d6001830353603d6002830353612008565b603d60018303535b50505080925050505b919050565b6120ac8160405160240161202a9190613624565b6040516020818303038152906040527f41304fac000000000000000000000000000000000000000000000000000000007bffffffffffffffffffffffffffffffffffffffffffffffffffffffff19166020820180517bffffffffffffffffffffffffffffffffffffffffffffffffffffffff83818316178352505050506123c6565b50565b6120c98282604051806020016040528060008152506123ef565b5050565b6120d68261103c565b612115576040517f08c379a000000000000000000000000000000000000000000000000000000000815260040161210c906137c4565b60405180910390fd5b8060066000848152602001908152602001600020908051906020019061213c929190612674565b505050565b6001816000016000828254019250508190555050565b6121f183838360405160240161216f93929190613646565b6040516020818303038152906040527fe3849f79000000000000000000000000000000000000000000000000000000007bffffffffffffffffffffffffffffffffffffffffffffffffffffffff19166020820180517bffffffffffffffffffffffffffffffffffffffffffffffffffffffff83818316178352505050506123c6565b505050565b6060600082141561223e576040518060400160405280600181526020017f3000000000000000000000000000000000000000000000000000000000000000815250905061239e565b600082905060005b6000821461227057808061225990613d6f565b915050600a826122699190613b8a565b9150612246565b60008167ffffffffffffffff8111156122b2577f4e487b7100000000000000000000000000000000000000000000000000000000600052604160045260246000fd5b6040519080825280601f01601f1916602001820160405280156122e45781602001600182028036833780820191505090505b5090505b60008514612397576001826122fd9190613c15565b9150600a8561230c9190613de6565b60306123189190613b34565b60f81b818381518110612354577f4e487b7100000000000000000000000000000000000000000000000000000000600052603260045260246000fd5b60200101907effffffffffffffffffffffffffffffffffffffffffffffffffffffffffffff1916908160001a905350600a856123909190613b8a565b94506122e8565b8093505050505b919050565b6000808273ffffffffffffffffffffffffffffffffffffffff163b119050919050565b60008151905060006a636f6e736f6c652e6c6f679050602083016000808483855afa5050505050565b6123f9838361244a565b6124066000848484611ce7565b612445576040517f08c379a000000000000000000000000000000000000000000000000000000000815260040161243c90613684565b60405180910390fd5b505050565b600073ffffffffffffffffffffffffffffffffffffffff168273ffffffffffffffffffffffffffffffffffffffff1614156124ba576040517f08c379a00000000000000000000000000000000000000000000000000000000081526004016124b1906137e4565b60405180910390fd5b6124c38161103c565b15612503576040517f08c379a00000000000000000000000000000000000000000000000000000000081526004016124fa906136c4565b60405180910390fd5b61250f60008383611b83565b6001600360008473ffffffffffffffffffffffffffffffffffffffff1673ffffffffffffffffffffffffffffffffffffffff168152602001908152602001600020600082825461255f9190613b34565b92505081905550816002600083815260200190815260200160002060006101000a81548173ffffffffffffffffffffffffffffffffffffffff021916908373ffffffffffffffffffffffffffffffffffffffff160217905550808273ffffffffffffffffffffffffffffffffffffffff16600073ffffffffffffffffffffffffffffffffffffffff167fddf252ad1be2c89b69c2b068fc378daa952ba7f163c4a11628f55a4df523b3ef60405160405180910390a461262060008383611b88565b5050565b6040518060a001604052806005905b61263b6126fa565b8152602001906001900390816126335790505090565b604051806102800160405280601490602082028036833780820191505090505090565b82805461268090613d0c565b90600052602060002090601f0160209004810192826126a257600085556126e9565b82601f106126bb57805160ff19168380011785556126e9565b828001600101855582156126e9579182015b828111156126e85782518255916020019190600101906126cd565b5b5090506126f6919061271c565b5090565b6040518060a00160405280600590602082028036833780820191505090505090565b5b8082111561273557600081600090555060010161271d565b5090565b600061274c61274784613904565b6138df565b9050808285604086028201111561276257600080fd5b60005b858110156127925781612778888261291a565b845260208401935060408301925050600181019050612765565b5050509392505050565b60006127af6127aa8461392a565b6138df565b905080828560208602820111156127c557600080fd5b60005b858110156127f557816127db8882612a10565b8452602084019350602083019250506001810190506127c8565b5050509392505050565b600061281261280d84613950565b6138df565b9050808285602086028201111561282857600080fd5b60005b85811015612858578161283e8882612a10565b84526020840193506020830192505060018101905061282b565b5050509392505050565b600061287561287084613976565b6138df565b90508281526020810184848401111561288d57600080fd5b612898848285613cca565b509392505050565b60006128b36128ae846139a7565b6138df565b9050828152602081018484840111156128cb57600080fd5b6128d6848285613cca565b509392505050565b6000813590506128ed81614529565b92915050565b600082601f83011261290457600080fd5b6002612911848285612739565b91505092915050565b600082601f83011261292b57600080fd5b600261293884828561279c565b91505092915050565b600082601f83011261295257600080fd5b602d61295f8482856127ff565b91505092915050565b60008135905061297781614540565b92915050565b60008151905061298c81614540565b92915050565b6000813590506129a181614557565b92915050565b6000815190506129b681614557565b92915050565b600082601f8301126129cd57600080fd5b81356129dd848260208601612862565b91505092915050565b600082601f8301126129f757600080fd5b8135612a078482602086016128a0565b91505092915050565b600081359050612a1f8161456e565b92915050565b600060208284031215612a3757600080fd5b6000612a45848285016128de565b91505092915050565b60008060408385031215612a6157600080fd5b6000612a6f858286016128de565b9250506020612a80858286016128de565b9150509250929050565b600080600060608486031215612a9f57600080fd5b6000612aad868287016128de565b9350506020612abe868287016128de565b9250506040612acf86828701612a10565b9150509250925092565b60008060008060808587031215612aef57600080fd5b6000612afd878288016128de565b9450506020612b0e878288016128de565b9350506040612b1f87828801612a10565b925050606085013567ffffffffffffffff811115612b3c57600080fd5b612b48878288016129bc565b91505092959194509250565b60008060408385031215612b6757600080fd5b6000612b75858286016128de565b9250506020612b8685828601612968565b9150509250929050565b60008060408385031215612ba357600080fd5b6000612bb1858286016128de565b9250506020612bc285828601612a10565b9150509250929050565b6000806000806106a08587031215612be357600080fd5b6000612bf18782880161291a565b9450506040612c02878288016128f3565b93505060c0612c138782880161291a565b925050610100612c2587828801612941565b91505092959194509250565b600060208284031215612c4357600080fd5b6000612c518482850161297d565b91505092915050565b600060208284031215612c6c57600080fd5b6000612c7a84828501612992565b91505092915050565b600060208284031215612c9557600080fd5b6000612ca3848285016129a7565b91505092915050565b600060208284031215612cbe57600080fd5b600082013567ffffffffffffffff811115612cd857600080fd5b612ce4848285016129e6565b91505092915050565b600060208284031215612cff57600080fd5b6000612d0d84828501612a10565b91505092915050565b6000612d228383612e4a565b60408301905092915050565b6000612d3a8383612fa6565b60a08301905092915050565b6000612d5283836133f7565b60208301905092915050565b6000612d6a838361342c565b60208301905092915050565b612d7f81613c49565b82525050565b612d96612d9182613c49565b613db8565b82525050565b612da581613a14565b612daf8184613aba565b9250612dba826139d8565b8060005b83811015612deb578151612dd28782612d16565b9650612ddd83613a6c565b925050600181019050612dbe565b505050505050565b612dfc81613a1f565b612e068184613ac5565b9250612e11826139e2565b8060005b83811015612e42578151612e298782612d2e565b9650612e3483613a79565b925050600181019050612e15565b505050505050565b612e5381613a2a565b612e5d8184613ad0565b9250612e68826139ec565b8060005b83811015612e99578151612e808782612d46565b9650612e8b83613a86565b925050600181019050612e6c565b505050505050565b612eaa81613a2a565b612eb48184613adb565b9250612ebf826139ec565b8060005b83811015612ef0578151612ed78782612d46565b9650612ee283613a86565b925050600181019050612ec3565b505050505050565b612f0181613a35565b612f0b8184613ae6565b9250612f16826139f6565b8060005b83811015612f47578151612f2e8782612d46565b9650612f3983613a93565b925050600181019050612f1a565b505050505050565b612f5881613a40565b612f628184613af1565b9250612f6d82613a00565b8060005b83811015612f9e578151612f858782612d5e565b9650612f9083613aa0565b925050600181019050612f71565b505050505050565b612faf81613a4b565b612fb98184613afc565b9250612fc482613a0a565b8060005b83811015612ff5578151612fdc8782612d5e565b9650612fe783613aad565b925050600181019050612fc8565b505050505050565b61300681613c5b565b82525050565b600061301782613a56565b6130218185613b07565b9350613031818560208601613cd9565b61303a81613ed3565b840191505092915050565b600061305082613a61565b61305a8185613b18565b935061306a818560208601613cd9565b61307381613ed3565b840191505092915050565b600061308982613a61565b6130938185613b29565b93506130a3818560208601613cd9565b80840191505092915050565b60006130bc602583613b29565b91506130c782613ef1565b602582019050919050565b60006130df603283613b18565b91506130ea82613f40565b604082019050919050565b6000613102602583613b18565b915061310d82613f8f565b604082019050919050565b6000613125601c83613b18565b915061313082613fde565b602082019050919050565b6000613148600b83613b29565b915061315382614007565b600b82019050919050565b600061316b602483613b18565b915061317682614030565b604082019050919050565b600061318e601983613b18565b91506131998261407f565b602082019050919050565b60006131b1602c83613b18565b91506131bc826140a8565b604082019050919050565b60006131d4601183613b18565b91506131df826140f7565b602082019050919050565b60006131f7603883613b18565b915061320282614120565b604082019050919050565b600061321a602a83613b18565b91506132258261416f565b604082019050919050565b600061323d602983613b18565b9150613248826141be565b604082019050919050565b6000613260602e83613b18565b915061326b8261420d565b604082019050919050565b6000613283600283613b29565b915061328e8261425c565b600282019050919050565b60006132a6602083613b18565b91506132b182614285565b602082019050919050565b60006132c9603183613b18565b91506132d4826142ae565b604082019050919050565b60006132ec602c83613b18565b91506132f7826142fd565b604082019050919050565b600061330f602f83613b18565b915061331a8261434c565b604082019050919050565b6000613332600a83613b29565b915061333d8261439b565b600a82019050919050565b6000613355602183613b18565b9150613360826143c4565b604082019050919050565b6000613378601d83613b29565b915061338382614413565b601d82019050919050565b600061339b601983613b18565b91506133a68261443c565b602082019050919050565b60006133be603183613b18565b91506133c982614465565b604082019050919050565b60006133e1605883613b29565b91506133ec826144b4565b605882019050919050565b61340081613cb3565b82525050565b61340f81613cb3565b82525050565b61342661342182613cb3565b613ddc565b82525050565b61343581613cbd565b82525050565b6000613447828561307e565b9150613453828461307e565b91508190509392505050565b600061346a826130af565b9150613476828461307e565b915081905092915050565b600061348c82613325565b91506134978261313b565b91506134a2826133d4565b91506134ae828461307e565b91506134b982613276565b915081905092915050565b60006134cf8261336b565b91506134db828461307e565b915081905092915050565b60006134f28287613415565b6020820191506135028286613415565b6020820191506135128285612d85565b601482019150613522828461307e565b915081905095945050505050565b60006020820190506135456000830184612d76565b92915050565b60006080820190506135606000830187612d76565b61356d6020830186612d76565b61357a6040830185613406565b818103606083015261358c818461300c565b905095945050505050565b60006105a0820190506135ad6000830185612df3565b6135bb610320830184612f4f565b9392505050565b60006106a0820190506135d86000830187612ea1565b6135e56040830186612d9c565b6135f260c0830185612ea1565b613600610100830184612ef8565b95945050505050565b600060208201905061361e6000830184612ffd565b92915050565b6000602082019050818103600083015261363e8184613045565b905092915050565b600060608201905081810360008301526136608186613045565b905061366f6020830185613406565b61367c6040830184612d76565b949350505050565b6000602082019050818103600083015261369d816130d2565b9050919050565b600060208201905081810360008301526136bd816130f5565b9050919050565b600060208201905081810360008301526136dd81613118565b9050919050565b600060208201905081810360008301526136fd8161315e565b9050919050565b6000602082019050818103600083015261371d81613181565b9050919050565b6000602082019050818103600083015261373d816131a4565b9050919050565b6000602082019050818103600083015261375d816131c7565b9050919050565b6000602082019050818103600083015261377d816131ea565b9050919050565b6000602082019050818103600083015261379d8161320d565b9050919050565b600060208201905081810360008301526137bd81613230565b9050919050565b600060208201905081810360008301526137dd81613253565b9050919050565b600060208201905081810360008301526137fd81613299565b9050919050565b6000602082019050818103600083015261381d816132bc565b9050919050565b6000602082019050818103600083015261383d816132df565b9050919050565b6000602082019050818103600083015261385d81613302565b9050919050565b6000602082019050818103600083015261387d81613348565b9050919050565b6000602082019050818103600083015261389d8161338e565b9050919050565b600060208201905081810360008301526138bd816133b1565b9050919050565b60006020820190506138d96000830184613406565b92915050565b60006138e96138fa565b90506138f58282613d3e565b919050565b6000604051905090565b600067ffffffffffffffff82111561391f5761391e613ea4565b5b602082029050919050565b600067ffffffffffffffff82111561394557613944613ea4565b5b602082029050919050565b600067ffffffffffffffff82111561396b5761396a613ea4565b5b602082029050919050565b600067ffffffffffffffff82111561399157613990613ea4565b5b61399a82613ed3565b9050602081019050919050565b600067ffffffffffffffff8211156139c2576139c1613ea4565b5b6139cb82613ed3565b9050602081019050919050565b6000819050919050565b6000819050919050565b6000819050919050565b6000819050919050565b6000819050919050565b6000819050919050565b600060029050919050565b600060059050919050565b600060029050919050565b6000602d9050919050565b600060149050919050565b600060059050919050565b600081519050919050565b600081519050919050565b6000602082019050919050565b6000602082019050919050565b6000602082019050919050565b6000602082019050919050565b6000602082019050919050565b6000602082019050919050565b600081905092915050565b600081905092915050565b600081905092915050565b600081905092915050565b600081905092915050565b600081905092915050565b600081905092915050565b600082825260208201905092915050565b600082825260208201905092915050565b600081905092915050565b6000613b3f82613cb3565b9150613b4a83613cb3565b9250827fffffffffffffffffffffffffffffffffffffffffffffffffffffffffffffffff03821115613b7f57613b7e613e17565b5b828201905092915050565b6000613b9582613cb3565b9150613ba083613cb3565b925082613bb057613baf613e46565b5b828204905092915050565b6000613bc682613cb3565b9150613bd183613cb3565b9250817fffffffffffffffffffffffffffffffffffffffffffffffffffffffffffffffff0483118215151615613c0a57613c09613e17565b5b828202905092915050565b6000613c2082613cb3565b9150613c2b83613cb3565b925082821015613c3e57613c3d613e17565b5b828203905092915050565b6000613c5482613c93565b9050919050565b60008115159050919050565b60007fffffffff0000000000000000000000000000000000000000000000000000000082169050919050565b600073ffffffffffffffffffffffffffffffffffffffff82169050919050565b6000819050919050565b600060ff82169050919050565b82818337600083830152505050565b60005b83811015613cf7578082015181840152602081019050613cdc565b83811115613d06576000848401525b50505050565b60006002820490506001821680613d2457607f821691505b60208210811415613d3857613d37613e75565b5b50919050565b613d4782613ed3565b810181811067ffffffffffffffff82111715613d6657613d65613ea4565b5b80604052505050565b6000613d7a82613cb3565b91507fffffffffffffffffffffffffffffffffffffffffffffffffffffffffffffffff821415613dad57613dac613e17565b5b600182019050919050565b6000613dc382613dca565b9050919050565b6000613dd582613ee4565b9050919050565b6000819050919050565b6000613df182613cb3565b9150613dfc83613cb3565b925082613e0c57613e0b613e46565b5b828206905092915050565b7f4e487b7100000000000000000000000000000000000000000000000000000000600052601160045260246000fd5b7f4e487b7100000000000000000000000000000000000000000000000000000000600052601260045260246000fd5b7f4e487b7100000000000000000000000000000000000000000000000000000000600052602260045260246000fd5b7f4e487b7100000000000000000000000000000000000000000000000000000000600052604160045260246000fd5b6000601f19601f8301169050919050565b60008160601b9050919050565b7f68747470733a2f2f6e6674707265766965772e30786465762e636f6465732f3f60008201527f636f64653d000000000000000000000000000000000000000000000000000000602082015250565b7f4552433732313a207472616e7366657220746f206e6f6e20455243373231526560008201527f63656976657220696d706c656d656e7465720000000000000000000000000000602082015250565b7f4552433732313a207472616e736665722066726f6d20696e636f72726563742060008201527f6f776e6572000000000000000000000000000000000000000000000000000000602082015250565b7f4552433732313a20746f6b656e20616c7265616479206d696e74656400000000600082015250565b7f536b797363726170657273000000000000000000000000000000000000000000600082015250565b7f4552433732313a207472616e7366657220746f20746865207a65726f2061646460008201527f7265737300000000000000000000000000000000000000000000000000000000602082015250565b7f4552433732313a20617070726f766520746f2063616c6c657200000000000000600082015250565b7f4552433732313a206f70657261746f7220717565727920666f72206e6f6e657860008201527f697374656e7420746f6b656e0000000000000000000000000000000000000000602082015250565b7f46696c65642070726f6f6620636865636b000000000000000000000000000000600082015250565b7f4552433732313a20617070726f76652063616c6c6572206973206e6f74206f7760008201527f6e6572206e6f7220617070726f76656420666f7220616c6c0000000000000000602082015250565b7f4552433732313a2062616c616e636520717565727920666f7220746865207a6560008201527f726f206164647265737300000000000000000000000000000000000000000000602082015250565b7f4552433732313a206f776e657220717565727920666f72206e6f6e657869737460008201527f656e7420746f6b656e0000000000000000000000000000000000000000000000602082015250565b7f45524337323155524953746f726167653a2055524920736574206f66206e6f6e60008201527f6578697374656e7420746f6b656e000000000000000000000000000000000000602082015250565b7f227d000000000000000000000000000000000000000000000000000000000000600082015250565b7f4552433732313a206d696e7420746f20746865207a65726f2061646472657373600082015250565b7f45524337323155524953746f726167653a2055524920717565727920666f722060008201527f6e6f6e6578697374656e7420746f6b656e000000000000000000000000000000602082015250565b7f4552433732313a20617070726f76656420717565727920666f72206e6f6e657860008201527f697374656e7420746f6b656e0000000000000000000000000000000000000000602082015250565b7f4552433732314d657461646174613a2055524920717565727920666f72206e6f60008201527f6e6578697374656e7420746f6b656e0000000000000000000000000000000000602082015250565b7f7b226e616d65223a202200000000000000000000000000000000000000000000600082015250565b7f4552433732313a20617070726f76616c20746f2063757272656e74206f776e6560008201527f7200000000000000000000000000000000000000000000000000000000000000602082015250565b7f646174613a6170706c69636174696f6e2f6a736f6e3b6261736536342c000000600082015250565b7f5468697320626f61726420646f6573206e6f7420657869737400000000000000600082015250565b7f4552433732313a207472616e736665722063616c6c6572206973206e6f74206f60008201527f776e6572206e6f7220617070726f766564000000000000000000000000000000602082015250565b7f222c20226465736372697074696f6e223a2022536f6c76656420536b7973637260008201527f6170657273206f6e207a6b47616d65732e222c2022696d616765223a2022646160208201527f74613a696d6167652f7376672b786d6c3b6261736536342c0000000000000000604082015250565b61453281613c49565b811461453d57600080fd5b50565b61454981613c5b565b811461455457600080fd5b50565b61456081613c67565b811461456b57600080fd5b50565b61457781613cb3565b811461458257600080fd5b5056fe416e204e465420772f20494420257320686173206265656e206d696e74656420746f2025734142434445464748494a4b4c4d4e4f505152535455565758595a6162636465666768696a6b6c6d6e6f707172737475767778797a303132333435363738392b2fa264697066735822122017d138a6f49f1b6ffdf2e3eaa0a7ca5674990c451feb20201c5637528cc780ae64736f6c634300080400333c7376672077696474683d2233353022206865696768743d22333530222076696577426f783d2230203020333530203335302220786d6c6e733d22687474703a2f2f7777772e77332e6f72672f323030302f737667223e3c646566733e3c6c696e6561724772616469656e742069643d2261222078313d2230222079313d2230222078323d22323730222079323d2232373022206772616469656e74556e6974733d227573657253706163654f6e557365223e3c73746f702073746f702d636f6c6f723d2223393333336561222f3e3c73746f70206f66667365743d2231222073746f702d636f6c6f723d2223346634366535222073746f702d6f7061636974793d222e3939222f3e3c2f6c696e6561724772616469656e743e3c2f646566733e3c726563742077696474683d223130302522206865696768743d2231303025222066696c6c3d2275726c28236129222f3e3c7465787420783d223830252220793d2239352522207374796c653d2266696c6c3a233066313732613b666f6e742d66616d696c793a73657269663b666f6e742d73697a653a31357078223e7a6b47616d65733c2f746578743e3c7465787420783d223530252220793d223530252220646f6d696e616e742d626173656c696e653d226d6964646c652220746578742d616e63686f723d226d6964646c6522207374796c653d2266696c6c3a236532653866303b666f6e742d66616d696c793a73657269663b666f6e742d73697a653a33307078223e536b7973637261706572733c2f746578743e3c2f7376673e",
  "linkReferences": {},
  "deployedLinkReferences": {}
}