{
  "_format": "hh-sol-artifact-1",
  "contractName": "Skyscrapers",
  "sourceName": "contracts/Skyscrapers/Skyscrapers.sol",
  "abi": [
    {
      "inputs": [
        {
          "internalType": "address",
          "name": "_verifierAddr",
          "type": "address"
        }
      ],
      "stateMutability": "nonpayable",
      "type": "constructor"
    },
    {
      "anonymous": false,
      "inputs": [
        {
          "indexed": true,
          "internalType": "address",
          "name": "owner",
          "type": "address"
        },
        {
          "indexed": true,
          "internalType": "address",
          "name": "approved",
          "type": "address"
        },
        {
          "indexed": true,
          "internalType": "uint256",
          "name": "tokenId",
          "type": "uint256"
        }
      ],
      "name": "Approval",
      "type": "event"
    },
    {
      "anonymous": false,
      "inputs": [
        {
          "indexed": true,
          "internalType": "address",
          "name": "owner",
          "type": "address"
        },
        {
          "indexed": true,
          "internalType": "address",
          "name": "operator",
          "type": "address"
        },
        {
          "indexed": false,
          "internalType": "bool",
          "name": "approved",
          "type": "bool"
        }
      ],
      "name": "ApprovalForAll",
      "type": "event"
    },
    {
      "anonymous": false,
      "inputs": [
        {
          "indexed": true,
          "internalType": "address",
          "name": "from",
          "type": "address"
        },
        {
          "indexed": true,
          "internalType": "address",
          "name": "to",
          "type": "address"
        },
        {
          "indexed": true,
          "internalType": "uint256",
          "name": "tokenId",
          "type": "uint256"
        }
      ],
      "name": "Transfer",
      "type": "event"
    },
    {
      "inputs": [
        {
          "internalType": "address",
          "name": "to",
          "type": "address"
        },
        {
          "internalType": "uint256",
          "name": "tokenId",
          "type": "uint256"
        }
      ],
      "name": "approve",
      "outputs": [],
      "stateMutability": "nonpayable",
      "type": "function"
    },
    {
      "inputs": [
        {
          "internalType": "address",
          "name": "owner",
          "type": "address"
        }
      ],
      "name": "balanceOf",
      "outputs": [
        {
          "internalType": "uint256",
          "name": "",
          "type": "uint256"
        }
      ],
      "stateMutability": "view",
      "type": "function"
    },
    {
      "inputs": [
        {
          "internalType": "string",
          "name": "stringTime",
          "type": "string"
        }
      ],
      "name": "generateSkyscrapersBoard",
      "outputs": [
        {
          "internalType": "uint8[5][5]",
          "name": "",
          "type": "uint8[5][5]"
        },
        {
          "internalType": "uint8[20]",
          "name": "",
          "type": "uint8[20]"
        }
      ],
      "stateMutability": "view",
      "type": "function"
    },
    {
      "inputs": [
        {
          "internalType": "uint256",
          "name": "tokenId",
          "type": "uint256"
        }
      ],
      "name": "getApproved",
      "outputs": [
        {
          "internalType": "address",
          "name": "",
          "type": "address"
        }
      ],
      "stateMutability": "view",
      "type": "function"
    },
    {
      "inputs": [
        {
          "internalType": "address",
          "name": "owner",
          "type": "address"
        },
        {
          "internalType": "address",
          "name": "operator",
          "type": "address"
        }
      ],
      "name": "isApprovedForAll",
      "outputs": [
        {
          "internalType": "bool",
          "name": "",
          "type": "bool"
        }
      ],
      "stateMutability": "view",
      "type": "function"
    },
    {
      "inputs": [],
      "name": "name",
      "outputs": [
        {
          "internalType": "string",
          "name": "",
          "type": "string"
        }
      ],
      "stateMutability": "view",
      "type": "function"
    },
    {
      "inputs": [
        {
          "internalType": "uint256",
          "name": "tokenId",
          "type": "uint256"
        }
      ],
      "name": "ownerOf",
      "outputs": [
        {
          "internalType": "address",
          "name": "",
          "type": "address"
        }
      ],
      "stateMutability": "view",
      "type": "function"
    },
    {
      "inputs": [
        {
          "internalType": "address",
          "name": "from",
          "type": "address"
        },
        {
          "internalType": "address",
          "name": "to",
          "type": "address"
        },
        {
          "internalType": "uint256",
          "name": "tokenId",
          "type": "uint256"
        }
      ],
      "name": "safeTransferFrom",
      "outputs": [],
      "stateMutability": "nonpayable",
      "type": "function"
    },
    {
      "inputs": [
        {
          "internalType": "address",
          "name": "from",
          "type": "address"
        },
        {
          "internalType": "address",
          "name": "to",
          "type": "address"
        },
        {
          "internalType": "uint256",
          "name": "tokenId",
          "type": "uint256"
        },
        {
          "internalType": "bytes",
          "name": "_data",
          "type": "bytes"
        }
      ],
      "name": "safeTransferFrom",
      "outputs": [],
      "stateMutability": "nonpayable",
      "type": "function"
    },
    {
      "inputs": [
        {
          "internalType": "address",
          "name": "operator",
          "type": "address"
        },
        {
          "internalType": "bool",
          "name": "approved",
          "type": "bool"
        }
      ],
      "name": "setApprovalForAll",
      "outputs": [],
      "stateMutability": "nonpayable",
      "type": "function"
    },
    {
      "inputs": [
        {
          "internalType": "bytes4",
          "name": "interfaceId",
          "type": "bytes4"
        }
      ],
      "name": "supportsInterface",
      "outputs": [
        {
          "internalType": "bool",
          "name": "",
          "type": "bool"
        }
      ],
      "stateMutability": "view",
      "type": "function"
    },
    {
      "inputs": [],
      "name": "symbol",
      "outputs": [
        {
          "internalType": "string",
          "name": "",
          "type": "string"
        }
      ],
      "stateMutability": "view",
      "type": "function"
    },
    {
      "inputs": [
        {
          "internalType": "uint256",
          "name": "tokenId",
          "type": "uint256"
        }
      ],
      "name": "tokenURI",
      "outputs": [
        {
          "internalType": "string",
          "name": "",
          "type": "string"
        }
      ],
      "stateMutability": "view",
      "type": "function"
    },
    {
      "inputs": [
        {
          "internalType": "address",
          "name": "from",
          "type": "address"
        },
        {
          "internalType": "address",
          "name": "to",
          "type": "address"
        },
        {
          "internalType": "uint256",
          "name": "tokenId",
          "type": "uint256"
        }
      ],
      "name": "transferFrom",
      "outputs": [],
      "stateMutability": "nonpayable",
      "type": "function"
    },
    {
      "inputs": [],
      "name": "verifierAddr",
      "outputs": [
        {
          "internalType": "address",
          "name": "",
          "type": "address"
        }
      ],
      "stateMutability": "view",
      "type": "function"
    },
    {
      "inputs": [
        {
          "internalType": "uint256[2]",
          "name": "a",
          "type": "uint256[2]"
        },
        {
          "internalType": "uint256[2][2]",
          "name": "b",
          "type": "uint256[2][2]"
        },
        {
          "internalType": "uint256[2]",
          "name": "c",
          "type": "uint256[2]"
        },
        {
          "internalType": "uint256[45]",
          "name": "input",
          "type": "uint256[45]"
        }
      ],
      "name": "verifyProof",
      "outputs": [
        {
          "internalType": "bool",
          "name": "",
          "type": "bool"
        }
      ],
      "stateMutability": "view",
      "type": "function"
    },
    {
      "inputs": [
        {
          "internalType": "uint256[2]",
          "name": "a",
          "type": "uint256[2]"
        },
        {
          "internalType": "uint256[2][2]",
          "name": "b",
          "type": "uint256[2][2]"
        },
        {
          "internalType": "uint256[2]",
          "name": "c",
          "type": "uint256[2]"
        },
        {
          "internalType": "uint256[45]",
          "name": "input",
          "type": "uint256[45]"
        }
      ],
      "name": "verifySkyscrapers",
      "outputs": [
        {
          "internalType": "bool",
          "name": "",
          "type": "bool"
        }
      ],
      "stateMutability": "view",
      "type": "function"
    },
    {
      "inputs": [
        {
          "internalType": "uint256[2]",
          "name": "a",
          "type": "uint256[2]"
        },
        {
          "internalType": "uint256[2][2]",
          "name": "b",
          "type": "uint256[2][2]"
        },
        {
          "internalType": "uint256[2]",
          "name": "c",
          "type": "uint256[2]"
        },
        {
          "internalType": "uint256[45]",
          "name": "input",
          "type": "uint256[45]"
        }
      ],
      "name": "verifySkyscrapersAndMintNft",
      "outputs": [],
      "stateMutability": "nonpayable",
      "type": "function"
    }
  ],
  "bytecode": "0x60006101a08181526101c08290526101e08290526102008290526102208290526101009081526102408281526102608390526102808390526102a08390526102c0839052610120526102e0828152610300839052610320839052610340839052610360839052610140526103808281526103a08390526103c08390526103e0839052610400839052610160526104208281526104408390526104608390526104808390526104a08390526101805260809081526105608281526105808390526105a08390526105c08390526105e08390526104c09081526106008381526106208490526106408490526106608490526106808490526104e0526106a08381526106c08490526106e0849052610700849052610720849052610500526107408381526107608490526107808490526107a08490526107c0849052610520526107e08381526108008490526108208490526108408490526108608490526105405260a052600361092081815260016109408190526109608590526109808590526109a08590526108809182526109c08581526109e0869052610a00869052610a20869052610a408690526108a052610a60858152610a80869052610aa0849052610ac0869052610ae08690526108c052610b00858152610b20869052610b40869052610b60869052610b808690526108e052610ba0858152610bc0869052610be0869052610c00869052610c208690526109005260c091909152610ce0828152610d008290526005610d208190526002610d408190526004610d60819052610c40938452610d80818152610da0849052610dc0839052610de0879052610e00869052610c6052610e20828152610e40829052610e60879052610e80869052610ea0849052610c8052610ec0858152610ee096909652610f00819052610f20839052610f40829052610ca095909552611000604052610f60918252610f8052610fa092909252610fc0839052610fe094909452610cc05260e092909252620002e891600891906200075d565b506040518060800160405280604051806102800160405280600460ff168152602001600460ff168152602001600060ff168152602001600060ff168152602001600060ff168152602001600060ff168152602001600060ff168152602001600560ff168152602001600060ff168152602001600060ff168152602001600060ff168152602001600060ff168152602001600260ff168152602001600160ff168152602001600060ff168152602001600260ff168152602001600060ff168152602001600160ff168152602001600060ff168152602001600060ff168152508152602001604051806102800160405280600460ff168152602001600360ff168152602001600160ff168152602001600260ff168152602001600460ff168152602001600260ff168152602001600260ff168152602001600360ff168152602001600360ff168152602001600160ff168152602001600360ff168152602001600360ff168152602001600260ff168152602001600160ff168152602001600260ff168152602001600360ff168152602001600260ff168152602001600460ff168152602001600260ff168152602001600160ff168152508152602001604051806102800160405280600260ff168152602001600260ff168152602001600360ff168152602001600460ff168152602001600160ff168152602001600260ff168152602001600360ff168152602001600160ff168152602001600260ff168152602001600360ff168152602001600360ff168152602001600260ff168152602001600160ff168152602001600360ff168152602001600260ff168152602001600160ff168152602001600460ff168152602001600360ff168152602001600260ff168152602001600260ff168152508152602001604051806102800160405280600260ff168152602001600260ff168152602001600360ff168152602001600460ff168152602001600160ff168152602001600260ff168152602001600360ff168152602001600160ff168152602001600260ff168152602001600360ff168152602001600360ff168152602001600260ff168152602001600160ff168152602001600360ff168152602001600260ff168152602001600160ff168152602001600460ff168152602001600360ff168152602001600260ff168152602001600260ff16815250815250601c90600462000660929190620007af565b50604051806102600160405280610240815260200162002f0f610240913980516200069491602191602090910190620007fc565b50348015620006a257600080fd5b506040516200314f3803806200314f833981016040819052620006c591620009bc565b604080518082018252600e81526d14dade5cd8dc985c195c9cd3919560921b60208083019182528351808501909452600a8452695365727a6b47616d657360b01b9084015281519192916200071d91600091620007fc565b50805162000733906001906020840190620007fc565b5050600780546001600160a01b0319166001600160a01b0393909316929092179091555062000a29565b6014830191839082156200079d579160200282015b828111156200079d5782516200078c908390600562000887565b509160200191906005019062000772565b50620007ab929150620008c6565b5090565b8260048101928215620007ee579160200282015b82811115620007ee578251620007dd9083906014620008e7565b5091602001919060010190620007c3565b50620007ab9291506200097c565b8280546200080a90620009ec565b90600052602060002090601f0160209004810192826200082e576000855562000879565b82601f106200084957805160ff191683800117855562000879565b8280016001018555821562000879579182015b82811115620008795782518255916020019190600101906200085c565b50620007ab92915062000992565b8260058101928215620007ee579160200282015b82811115620007ee578251620008b59083906005620008e7565b50916020019190600101906200089b565b80821115620007ab576000620008dd8282620009a8565b50600501620008c6565b600183019183908215620008795791602002820160005b838211156200093e57835183826101000a81548160ff021916908360ff1602179055509260200192600101602081600001049283019260010302620008fe565b80156200096d5782816101000a81549060ff02191690556001016020816000010492830192600103026200093e565b5050620007ab92915062000992565b80821115620007ab57600081556001016200097c565b80821115620007ab57600081556001016200097c565b50620009b99060058101906200097c565b50565b600060208284031215620009ce578081fd5b81516001600160a01b0381168114620009e5578182fd5b9392505050565b600181811c9082168062000a0157607f821691505b6020821081141562000a2357634e487b7160e01b600052602260045260246000fd5b50919050565b6124d68062000a396000396000f3fe608060405234801561001057600080fd5b50600436106101165760003560e01c8063663ea2e2116100a2578063b88d4fde11610071578063b88d4fde14610254578063ba01c5c514610267578063c796af531461027a578063c87b56dd1461028d578063e985e9c5146102a057600080fd5b8063663ea2e21461020557806370a082311461021857806395d89b4114610239578063a22cb4651461024157600080fd5b8063095ea7b3116100e9578063095ea7b3146101a457806323b872dd146101b95780632da52f70146101cc57806342842e0e146101df5780636352211e146101f257600080fd5b806301ffc9a71461011b57806305ef3d331461014357806306fdde0314610164578063081812fc14610179575b600080fd5b61012e610129366004611e45565b6102dc565b60405190151581526020015b60405180910390f35b610156610151366004611e7d565b61032e565b60405161013a9291906120e6565b61016c610350565b60405161013a91906121fc565b61018c610187366004611ec3565b6103e2565b6040516001600160a01b03909116815260200161013a565b6101b76101b2366004611d16565b61046f565b005b6101b76101c7366004611c2c565b610585565b61012e6101da366004611d3f565b6105b6565b6101b76101ed366004611c2c565b610661565b61018c610200366004611ec3565b61067c565b60075461018c906001600160a01b031681565b61022b610226366004611be0565b6106f3565b60405190815260200161013a565b61016c61077a565b6101b761024f366004611ce0565b610789565b6101b7610262366004611c67565b610798565b6101b7610275366004611d3f565b6107d0565b61012e610288366004611d3f565b610875565b61016c61029b366004611ec3565b610905565b61012e6102ae366004611bfa565b6001600160a01b03918216600090815260056020908152604080832093909416825291909152205460ff1690565b60006001600160e01b031982166380ac58cd60e01b148061030d57506001600160e01b03198216635b5e139f60e01b145b8061032857506301ffc9a760e01b6001600160e01b03198316145b92915050565b6103366119f6565b61033e611a23565b61034783610a74565b91509150915091565b60606000805461035f9061238d565b80601f016020809104026020016040519081016040528092919081815260200182805461038b9061238d565b80156103d85780601f106103ad576101008083540402835291602001916103d8565b820191906000526020600020905b8154815290600101906020018083116103bb57829003601f168201915b5050505050905090565b60006103ed82610bdf565b6104535760405162461bcd60e51b815260206004820152602c60248201527f4552433732313a20617070726f76656420717565727920666f72206e6f6e657860448201526b34b9ba32b73a103a37b5b2b760a11b60648201526084015b60405180910390fd5b506000908152600460205260409020546001600160a01b031690565b600061047a8261067c565b9050806001600160a01b0316836001600160a01b031614156104e85760405162461bcd60e51b815260206004820152602160248201527f4552433732313a20617070726f76616c20746f2063757272656e74206f776e656044820152603960f91b606482015260840161044a565b336001600160a01b0382161480610504575061050481336102ae565b6105765760405162461bcd60e51b815260206004820152603860248201527f4552433732313a20617070726f76652063616c6c6572206973206e6f74206f7760448201527f6e6572206e6f7220617070726f76656420666f7220616c6c0000000000000000606482015260840161044a565b6105808383610bfc565b505050565b61058f3382610c6a565b6105ab5760405162461bcd60e51b815260040161044a90612261565b610580838383610d50565b60006105c182610eec565b6106095760405162461bcd60e51b8152602060048201526019602482015278151a1a5cc8189bd85c9908191bd95cc81b9bdd08195e1a5cdd603a1b604482015260640161044a565b61061585858585610875565b6106555760405162461bcd60e51b815260206004820152601160248201527046696c65642070726f6f6620636865636b60781b604482015260640161044a565b5060015b949350505050565b61058083838360405180602001604052806000815250610798565b6000818152600260205260408120546001600160a01b0316806103285760405162461bcd60e51b815260206004820152602960248201527f4552433732313a206f776e657220717565727920666f72206e6f6e657869737460448201526832b73a103a37b5b2b760b91b606482015260840161044a565b60006001600160a01b03821661075e5760405162461bcd60e51b815260206004820152602a60248201527f4552433732313a2062616c616e636520717565727920666f7220746865207a65604482015269726f206164647265737360b01b606482015260840161044a565b506001600160a01b031660009081526003602052604090205490565b60606001805461035f9061238d565b610794338383611097565b5050565b6107a23383610c6a565b6107be5760405162461bcd60e51b815260040161044a90612261565b6107ca84848484611166565b50505050565b6107d981610eec565b6108215760405162461bcd60e51b8152602060048201526019602482015278151a1a5cc8189bd85c9908191bd95cc81b9bdd08195e1a5cdd603a1b604482015260640161044a565b61082d84848484610875565b61086d5760405162461bcd60e51b815260206004820152601160248201527046696c65642070726f6f6620636865636b60781b604482015260640161044a565b6107ca611199565b60075460405163c796af5360e01b81526000916001600160a01b03169063c796af53906108ac908890889088908890600401612178565b60206040518083038186803b1580156108c457600080fd5b505afa1580156108d8573d6000803e3d6000fd5b505050506040513d601f19601f820116820180604052508101906108fc9190611e29565b95945050505050565b606061091082610bdf565b6109765760405162461bcd60e51b815260206004820152603160248201527f45524337323155524953746f726167653a2055524920717565727920666f72206044820152703737b732bc34b9ba32b73a103a37b5b2b760791b606482015260840161044a565b6000828152600660205260408120805461098f9061238d565b80601f01602080910402602001604051908101604052809291908181526020018280546109bb9061238d565b8015610a085780601f106109dd57610100808354040283529160200191610a08565b820191906000526020600020905b8154815290600101906020018083116109eb57829003601f168201915b505050505090506000610a2660408051602081019091526000815290565b9050805160001415610a39575092915050565b815115610a6b578082604051602001610a53929190611f2a565b60405160208183030381529060405292505050919050565b610659846112aa565b610a7c6119f6565b610a84611a23565b6000600444423387604051602001610a9f9493929190612063565b6040516020818303038152906040528051906020012060001c610ac291906123e3565b905060088160048110610ae557634e487b7160e01b600052603260045260246000fd5b60050201601c8260048110610b0a57634e487b7160e01b600052603260045260246000fd5b6040805160a081019091529101908260056000835b82821015610b82576040805160a08101918290529085840190600590826000855b825461010083900a900460ff16815260206001928301818104948501949093039092029101808411610b40579050505050505081526020019060010190610b1f565b50506040805161028081019182905293955084925060149150826000855b825461010083900a900460ff16815260206001928301818104948501949093039092029101808411610ba0579050505050505090509250925050915091565b6000908152600260205260409020546001600160a01b0316151590565b600081815260046020526040902080546001600160a01b0319166001600160a01b0384169081179091558190610c318261067c565b6001600160a01b03167f8c5be1e5ebec7d5bd14f71427d1e84f3dd0314c0f7b2291e5b200ac8c7c3b92560405160405180910390a45050565b6000610c7582610bdf565b610cd65760405162461bcd60e51b815260206004820152602c60248201527f4552433732313a206f70657261746f7220717565727920666f72206e6f6e657860448201526b34b9ba32b73a103a37b5b2b760a11b606482015260840161044a565b6000610ce18361067c565b9050806001600160a01b0316846001600160a01b03161480610d1c5750836001600160a01b0316610d11846103e2565b6001600160a01b0316145b8061065957506001600160a01b0380821660009081526005602090815260408083209388168352929052205460ff16610659565b826001600160a01b0316610d638261067c565b6001600160a01b031614610dc75760405162461bcd60e51b815260206004820152602560248201527f4552433732313a207472616e736665722066726f6d20696e636f72726563742060448201526437bbb732b960d91b606482015260840161044a565b6001600160a01b038216610e295760405162461bcd60e51b8152602060048201526024808201527f4552433732313a207472616e7366657220746f20746865207a65726f206164646044820152637265737360e01b606482015260840161044a565b610e34600082610bfc565b6001600160a01b0383166000908152600360205260408120805460019290610e5d90849061234a565b90915550506001600160a01b0382166000908152600360205260408120805460019290610e8b9084906122ff565b909155505060008181526002602052604080822080546001600160a01b0319166001600160a01b0386811691821790925591518493918716917fddf252ad1be2c89b69c2b068fc378daa952ba7f163c4a11628f55a4df523b3ef91a4505050565b60006001815b6004811015611090576001915060005b60088260048110610f2357634e487b7160e01b600052603260045260246000fd5b505060058110156110635760005b60088360048110610f5257634e487b7160e01b600052603260045260246000fd5b600502018260058110610f7557634e487b7160e01b600052603260045260246000fd5b505060058110156110525760088360048110610fa157634e487b7160e01b600052603260045260246000fd5b600502018260058110610fc457634e487b7160e01b600052603260045260246000fd5b018160058110610fe457634e487b7160e01b600052603260045260246000fd5b602081049091015460ff601f9092166101000a900416868261100785600561232b565b61101191906122ff565b602d811061102f57634e487b7160e01b600052603260045260246000fd5b6020020151146110425760009350611052565b61104b816123c8565b9050610f31565b5061105c816123c8565b9050610f02565b508115611080576110748482611382565b15611080575092915050565b611089816123c8565b9050610ef2565b5092915050565b816001600160a01b0316836001600160a01b031614156110f95760405162461bcd60e51b815260206004820152601960248201527f4552433732313a20617070726f766520746f2063616c6c657200000000000000604482015260640161044a565b6001600160a01b03838116600081815260056020908152604080832094871680845294825291829020805460ff191686151590811790915591519182527f17307eab39ab6107e8899845ad3d59bd9653f200f220920489ca2b5937696c31910160405180910390a3505050565b611171848484610d50565b61117d84848484611465565b6107ca5760405162461bcd60e51b815260040161044a9061220f565b60006111a460205490565b9050600061126261123e602180546111bb9061238d565b80601f01602080910402602001604051908101604052809291908181526020018280546111e79061238d565b80156112345780601f1061120957610100808354040283529160200191611234565b820191906000526020600020905b81548152906001019060200180831161121757829003601f168201915b505050505061156f565b60405160200161124e9190611f59565b60405160208183030381529060405261156f565b9050600081604051602001611277919061201e565b604051602081830303815290604052905061129233846116d1565b61129c83826116eb565b610580602080546001019055565b60606112b582610bdf565b6113195760405162461bcd60e51b815260206004820152602f60248201527f4552433732314d657461646174613a2055524920717565727920666f72206e6f60448201526e3732bc34b9ba32b73a103a37b5b2b760891b606482015260840161044a565b600061133060408051602081019091526000815290565b90506000815111611350576040518060200160405280600081525061137b565b8061135a84611776565b60405160200161136b929190611f2a565b6040516020818303038152906040525b9392505050565b600060016019825b601c85600481106113ab57634e487b7160e01b600052603260045260246000fd5b5050601481101561145b57601c85600481106113d757634e487b7160e01b600052603260045260246000fd5b0181601481106113f757634e487b7160e01b600052603260045260246000fd5b602081049091015460ff601f9092166101000a9004168683602d811061142d57634e487b7160e01b600052603260045260246000fd5b602002015114611440576000925061145b565b611449826123c8565b9150611454816123c8565b905061138a565b5090949350505050565b60006001600160a01b0384163b1561156757604051630a85bd0160e11b81526001600160a01b0385169063150b7a02906114a99033908990889088906004016120a9565b602060405180830381600087803b1580156114c357600080fd5b505af19250505080156114f3575060408051601f3d908101601f191682019092526114f091810190611e61565b60015b61154d573d808015611521576040519150601f19603f3d011682016040523d82523d6000602084013e611526565b606091505b5080516115455760405162461bcd60e51b815260040161044a9061220f565b805181602001fd5b6001600160e01b031916630a85bd0160e11b149050610659565b506001610659565b606081516000141561158f57505060408051602081019091526000815290565b600060405180606001604052806040815260200161246160409139905060006003845160026115be91906122ff565b6115c89190612317565b6115d390600461232b565b67ffffffffffffffff8111156115f957634e487b7160e01b600052604160045260246000fd5b6040519080825280601f01601f191660200182016040528015611623576020820181803683370190505b509050600182016020820185865187015b8082101561168f576003820191508151603f8160121c168501518453600184019350603f81600c1c168501518453600184019350603f8160061c168501518453600184019350603f8116850151845350600183019250611634565b50506003865106600181146116ab57600281146116be576116c6565b603d6001830353603d60028303536116c6565b603d60018303535b509195945050505050565b610794828260405180602001604052806000815250611890565b6116f482610bdf565b6117575760405162461bcd60e51b815260206004820152602e60248201527f45524337323155524953746f726167653a2055524920736574206f66206e6f6e60448201526d32bc34b9ba32b73a103a37b5b2b760911b606482015260840161044a565b6000828152600660209081526040909120825161058092840190611a42565b60608161179a5750506040805180820190915260018152600360fc1b602082015290565b8160005b81156117c457806117ae816123c8565b91506117bd9050600a83612317565b915061179e565b60008167ffffffffffffffff8111156117ed57634e487b7160e01b600052604160045260246000fd5b6040519080825280601f01601f191660200182016040528015611817576020820181803683370190505b5090505b84156106595761182c60018361234a565b9150611839600a866123e3565b6118449060306122ff565b60f81b81838151811061186757634e487b7160e01b600052603260045260246000fd5b60200101906001600160f81b031916908160001a905350611889600a86612317565b945061181b565b61189a83836118c3565b6118a76000848484611465565b6105805760405162461bcd60e51b815260040161044a9061220f565b6001600160a01b0382166119195760405162461bcd60e51b815260206004820181905260248201527f4552433732313a206d696e7420746f20746865207a65726f2061646472657373604482015260640161044a565b61192281610bdf565b1561196f5760405162461bcd60e51b815260206004820152601c60248201527f4552433732313a20746f6b656e20616c7265616479206d696e74656400000000604482015260640161044a565b6001600160a01b03821660009081526003602052604081208054600192906119989084906122ff565b909155505060008181526002602052604080822080546001600160a01b0319166001600160a01b03861690811790915590518392907fddf252ad1be2c89b69c2b068fc378daa952ba7f163c4a11628f55a4df523b3ef908290a45050565b6040518060a001604052806005905b611a0d611ac6565b815260200190600190039081611a055790505090565b6040518061028001604052806014906020820280368337509192915050565b828054611a4e9061238d565b90600052602060002090601f016020900481019282611a705760008555611ab6565b82601f10611a8957805160ff1916838001178555611ab6565b82800160010185558215611ab6579182015b82811115611ab6578251825591602001919060010190611a9b565b50611ac2929150611ae4565b5090565b6040518060a001604052806005906020820280368337509192915050565b5b80821115611ac25760008155600101611ae5565b600067ffffffffffffffff80841115611b1457611b14612423565b604051601f8501601f19908116603f01168101908282118183101715611b3c57611b3c612423565b81604052809350858152868686011115611b5557600080fd5b858560208301376000602087830101525050509392505050565b80356001600160a01b0381168114611b8657600080fd5b919050565b600082601f830112611b9b578081fd5b611ba36122b2565b808385604086011115611bb4578384fd5b835b6002811015611bd5578135845260209384019390910190600101611bb6565b509095945050505050565b600060208284031215611bf1578081fd5b61137b82611b6f565b60008060408385031215611c0c578081fd5b611c1583611b6f565b9150611c2360208401611b6f565b90509250929050565b600080600060608486031215611c40578081fd5b611c4984611b6f565b9250611c5760208501611b6f565b9150604084013590509250925092565b60008060008060808587031215611c7c578081fd5b611c8585611b6f565b9350611c9360208601611b6f565b925060408501359150606085013567ffffffffffffffff811115611cb5578182fd5b8501601f81018713611cc5578182fd5b611cd487823560208401611af9565b91505092959194509250565b60008060408385031215611cf2578182fd5b611cfb83611b6f565b91506020830135611d0b81612439565b809150509250929050565b60008060408385031215611d28578182fd5b611d3183611b6f565b946020939093013593505050565b6000806000806106a0808688031215611d56578283fd5b611d608787611b8b565b9450604087605f880112611d72578384fd5b611d7a6122b2565b8082890160c08a018b811115611d8e578788fd5b875b6002811015611db757611da38d84611b8b565b855260209094019391850191600101611d90565b50829850611dc58c82611b8b565b975050505050508661011f870112611ddb578182fd5b611de36122db565b80610100880189848a011115611df7578485fd5b8493505b602d841015611e1b57803583526001939093019260209283019201611dfb565b509598949750929550505050565b600060208284031215611e3a578081fd5b815161137b81612439565b600060208284031215611e56578081fd5b813561137b8161244a565b600060208284031215611e72578081fd5b815161137b8161244a565b600060208284031215611e8e578081fd5b813567ffffffffffffffff811115611ea4578182fd5b8201601f81018413611eb4578182fd5b61065984823560208401611af9565b600060208284031215611ed4578081fd5b5035919050565b8060005b60028110156107ca578151845260209384019390910190600101611edf565b60008151808452611f16816020860160208601612361565b601f01601f19169290920160200192915050565b60008351611f3c818460208801612361565b835190830190611f50818360208801612361565b01949350505050565b693d913730b6b2911d101160b11b81526a536b79736372617065727360a81b600a8201527f222c20226465736372697074696f6e223a2022536f6c76656420536b7973637260158201527f6170657273206f6e207a6b47616d65732e222c2022696d616765223a2022646160358201527f74613a696d6167652f7376672b786d6c3b6261736536342c00000000000000006055820152815160009061200581606d850160208701612361565b61227d60f01b606d939091019283015250606f01919050565b7f646174613a6170706c69636174696f6e2f6a736f6e3b6261736536342c00000081526000825161205681601d850160208701612361565b91909101601d0192915050565b8481528360208201526bffffffffffffffffffffffff198360601b16604082015260008251612099816054850160208701612361565b9190910160540195945050505050565b6001600160a01b03858116825284166020820152604081018390526080606082018190526000906120dc90830184611efe565b9695505050505050565b6105a08101818460005b60058082106120ff5750612140565b82518460005b8381101561212657825160ff16825260209283019290910190600101612105565b50505060a0939093019250602091909101906001016120f0565b50505061032082018360005b601481101561216e57815160ff1683526020928301929091019060010161214c565b5050509392505050565b6106a081016121878287611edb565b60408083018660005b60028110156121b7576121a4838351611edb565b9183019160209190910190600101612190565b505050506121c860c0830185611edb565b61010082018360005b602d8110156121f05781518352602092830192909101906001016121d1565b50505095945050505050565b60208152600061137b6020830184611efe565b60208082526032908201527f4552433732313a207472616e7366657220746f206e6f6e20455243373231526560408201527131b2b4bb32b91034b6b83632b6b2b73a32b960711b606082015260800190565b60208082526031908201527f4552433732313a207472616e736665722063616c6c6572206973206e6f74206f6040820152701ddb995c881b9bdc88185c1c1c9bdd9959607a1b606082015260800190565b6040805190810167ffffffffffffffff811182821017156122d5576122d5612423565b60405290565b6040516105a0810167ffffffffffffffff811182821017156122d5576122d5612423565b60008219821115612312576123126123f7565b500190565b6000826123265761232661240d565b500490565b6000816000190483118215151615612345576123456123f7565b500290565b60008282101561235c5761235c6123f7565b500390565b60005b8381101561237c578181015183820152602001612364565b838111156107ca5750506000910152565b600181811c908216806123a157607f821691505b602082108114156123c257634e487b7160e01b600052602260045260246000fd5b50919050565b60006000198214156123dc576123dc6123f7565b5060010190565b6000826123f2576123f261240d565b500690565b634e487b7160e01b600052601160045260246000fd5b634e487b7160e01b600052601260045260246000fd5b634e487b7160e01b600052604160045260246000fd5b801515811461244757600080fd5b50565b6001600160e01b03198116811461244757600080fdfe4142434445464748494a4b4c4d4e4f505152535455565758595a6162636465666768696a6b6c6d6e6f707172737475767778797a303132333435363738392b2fa2646970667358221220d8545bbb2e68fdba39d13f331860bc945142edfaebecc56598b522c3af8e73d264736f6c634300080400333c7376672077696474683d2233353022206865696768743d22333530222076696577426f783d2230203020333530203335302220786d6c6e733d22687474703a2f2f7777772e77332e6f72672f323030302f737667223e3c646566733e3c6c696e6561724772616469656e742069643d2261222078313d2230222079313d2230222078323d22323730222079323d2232373022206772616469656e74556e6974733d227573657253706163654f6e557365223e3c73746f702073746f702d636f6c6f723d2223393333336561222f3e3c73746f70206f66667365743d2231222073746f702d636f6c6f723d2223346634366535222073746f702d6f7061636974793d222e3939222f3e3c2f6c696e6561724772616469656e743e3c2f646566733e3c726563742077696474683d223130302522206865696768743d2231303025222066696c6c3d2275726c28236129222f3e3c7465787420783d223830252220793d2239352522207374796c653d2266696c6c3a233066313732613b666f6e742d66616d696c793a73657269663b666f6e742d73697a653a31357078223e7a6b47616d65733c2f746578743e3c7465787420783d223530252220793d223530252220646f6d696e616e742d626173656c696e653d226d6964646c652220746578742d616e63686f723d226d6964646c6522207374796c653d2266696c6c3a236532653866303b666f6e742d66616d696c793a73657269663b666f6e742d73697a653a33307078223e536b7973637261706572733c2f746578743e3c2f7376673e",
  "linkReferences": {},
  "deployedLinkReferences": {}
}